:020000040800F2
:10000000B8CA00206D790108ED720108EF7201088D
:10001000F1720108F3720108F57201080000000096
:10002000000000000000000000000000B1600108B6
:10003000F77201080000000059600108D14301086F
:10004000E1790108E5790108E9790108F972010807
:10005000ED790108F1790108FF720108F5790108CD
:10006000F9790108FD79010805730108017A010891
:100070000B73010811730108057A0108097A010858
:100080000D7A0108117A0108157A0108197A010818
:100090001D7A0108217A0108257A010817730108E1
:1000A000297A01082D7A0108317A0108357A010888
:1000B0001D73010823730108397A01083D7A01088C
:1000C000417A0108457A0108497A01082973010833
:1000D0004D7A01082F730108517A0108557A0108F9
:1000E00035730108597A01085D7A0108617A0108BF
:1000F000657A0108697A01086D7A0108717A010848
:10010000757A0108797A01087D7A0108817A0108F7
:10011000857A0108897A01088D7A0108917A0108A7
:10012000957A0108997A01089D7A0108A17A010857
:10013000A57A0108A97A0108AD7A0108B17A010807
:10014000B57A0108B97A0108BD7A0108C17A0108B7
:10015000C57A0108C97A0108CD7A0108D17A010867
:10016000D57A0108D97A0108DD7A0108E17A010817
:10017000E57A0108E97A0108ED7A0108000000003B
:10018000F17A0108F57A010810B50C460A2200211F
:1001900001F066FA42F21072206090FBF2F242F235
:1001A000107112FB01F1401A642390FBF3F1E1801E
:1001B000A28011FB03F1401A208110BD38B504461E
:1001C000207801F011F80546607801F00DF840EA5A
:1001D000051032BD2DE9F84305460E464FF00008E4
:1001E000A8190A2464271AB1022A14D008D32AE0D5
:1001F000007800F0F9FF00F029F804FB080822E07D
:10020000007800F0F1FF00F021F84443A81907FB43
:100210000848807814E0007800F0E6FF8046A819CE
:100220004FF47A7900F014F84743A81909FB0877CE
:10023000807800F0D9FF8046A81904FB0878C078C0
:1002400000F0D2FF80444046BDE8F2838046A81902
:10025000407800F0C9BF38B50D46044600220021A1
:10026000FFF7B8FF2880002202212046FFF7B2FFE7
:10027000688000F014F8A88031BD38B50D460446FA
:1002800002220021FFF7A6FFE88000F008F828818D
:10029000002206212046FFF79DFF688131BD002224
:1002A0000421204696E700002DE9F84F0C46002572
:1002B0000127002C814674D000264FF0300ADFF869
:1002C000208C70B210FB0AF000F0C0FD00F00AFABA
:1002D000F7DB00F00BFA05E00A54401C01E000F0E7
:1002E000FDF9761CA25D0A2A0DD02C2A0AFB0BF11F
:1002F00018BF2A2A4144EFD100F0FCF929A101F0EE
:10030000B1F90028EBD028004BD00A22002108F5D3
:10031000907001F0A5F909F12804012814BF002804
:10032000A073494600F06BF9002108F1600001F06C
:10033000C2F989ED040B002198F890002070002785
:1003400008F1C00001F0B7F989ED060B0A2298F810
:10035000F0006070002108F5A87001F081F9A0811B
:1003600000F050F984ED020A002108F5D87001F080
:1003700061FB10EE100A01F06DFBC9E908010A22C9
:1003800098F8E001A070002108F5047001F068F908
:10039000208298F84002A07408F53470FFF70EFF31
:1003A000A06123E124475047474100002DE9FE4F5B
:1003B0000D460126002D80464FF0000947D000244D
:1003C000DFF81CAB00F040FA504401F067FB00F08E
:1003D00035FDF7DB0FF224124AA301920027CB462A
:1003E0000021009307E04254491C03E00BF1010B8C
:1003F0000021B1467F1CEA5D0A2A26D030202C2A33
:1004000000FB0BF018BF2A2A5044ECD100224254C2
:100410005046009901F026F900F011FA00F082F838
:1004200000B9002439A100F07DF800B9002400BF14
:1004300038A100F077F800B9002400BF37A100F020
:1004400071F8002818BF002CD0D05FEA090052D004
:1004500020225146404601F025FB08F120010AF117
:100460003000FFF791FE00210AF1600001F023F94E
:1004700088ED0C0B08F148049AF8900020700021D8
:100480000AF1C00001F017F988ED0E0B0A229AF864
:10049000F000607000269AF82011217200219AF86D
:1004A000500160720AF5C07001F0DAF86081002135
:1004B0000AF5D87001F0BEFA84ED030A00210AF5AE
:1004C000F07001F0B7FA10EE100A01F0C3FAC8E9B3
:1004D000100100210AF5047001F0ACFA84ED040A61
:1004E0009AF8400220750AF528709AF87012617522
:1004F000FFF764FEA0613046BDE8FE8F2447414708
:100500004E530000244750474E53000024424447B6
:100510004E53000024515A474E53000024474E4783
:100520004E530000504601F09DB800002DE9F84FF1
:1005300000F0F1F85AD000F0E1F800F0E5F800F032
:10054000D1F8FADB00F0D2F805E00A54401C01E0D3
:1005500000F0C4F8761CA25D0A2A0ED02C2A09FBF2
:100560000BF118BF2A2A41447FF4EFAF00F0C2F824
:1005700020A101F077F80028EAD0280036D000F05A
:100580003DF8002108F1600001F054FA8AED030AF9
:10059000002108F1900001F04DFA8AED040A0021D3
:1005A00008F1C00001F046FA8AED050A002108F1C1
:1005B000F00001F03FFA8AED060A002108F590707C
:1005C00001F038FA8AED070A002108F5A87001F059
:1005D00031FA8AED080A00F015F88AED090A08F5E3
:1005E000D870FFF7EBFDCAF8280000273846BDE8B1
:1005F000F28F00002447504753540000514608F141
:100600003000C1E5002108F5C07001F013BA000008
:100610002DE9F84F00F07FF85AD000F06FF800F0A5
:1006200073F800F05FF8FADB00F060F805E00A54B8
:10063000401C01E000F052F8761CA25D0A2A0ED0A0
:100640002C2A09FB0BF118BF2A2A41447FF4EFAF93
:1006500000F050F81FA101F005F80028EAD02800AA
:1006600036D0FFF7CBFF98F860008AF80C00002125
:1006700008F1900001F01FF88AED040B0AF128043C
:1006800098F8C000207000F0B3FA8AED060B002144
:1006900098F820016070002708F5A87001F0CAF9E9
:1006A00084ED020AFFF7AEFF84ED030A00F0A5FA1D
:1006B0002061002108F5F07001F0BCF984ED050A15
:1006C00098F81002207608F51C70FFF777FDE061BE
:1006D0008CE70000244750524D4300000BF1010B02
:1006E00001257047761C72B2302A70470026AB464F
:1006F0000020704700220A544046704700264FF001
:100700003009DFF8DC87704770B210FB09F0302148
:10071000404401F0C3B90C4600250127002C824655
:1007200070472DE9FE4F88460125B8F1000F0746B6
:100730004FF0000B49D00024DFF8A49700F084F8B4
:10074000484401F0ABF900F079FBF7DB0FF6D82253
:100750000FF6CC230192DA4600260021009307E031
:100760004254491C02E0761C0021AB460AF1010A02
:1007700018F80A200A2A26D0302070432C2A18BFE5
:100780002A2A4844ECD1002242544846009900F0FD
:1007900069FF00F054F800F05DF800B900240FF68E
:1007A000902100F057F800B900240FF68C2100F0DA
:1007B00051F800B900240FF6882100F04BF800280A
:1007C00018BF002CCFD05FEA0B0035D0202249465D
:1007D000384601F067F999F8300087F8200000F0FA
:1007E000F3F8788400243020604348440A22002132
:1007F000903000F035FF07EB8401641C0C2C48623C
:10080000F1DB002109F5347001F014F987ED150AC8
:10081000002109F5407001F00DF987ED160A00215D
:1008200009F54C7001F006F987ED170A09F55870C3
:10083000FFF7C4FC386600252846BDE8FE8F01247A
:1008400000B900240199704762B2302012FB00F019
:1008500030217047484600F005BF2DE9FE4F07469E
:100860000C4600260020002C02904FF0010950D0C9
:100870000025DFF86C866AB200F0E5FA6D1C6BB2F9
:10088000302BF8DB0FF6C8120FF6BC130192B246FC
:10089000B34600210093254608E04254491C03E07A
:1008A0000BF1010B002101260AF1010A15F80A20BB
:1008B0000A2A2DD030202C2A00FB0BF018BF2A2A40
:1008C0004044EAD1002242544046009900F0CAFE5A
:1008D000FFF7B5FF00F009FB00B900240FF678110F
:1008E00000F003FB00B900240FF6741100F0FDFACC
:1008F00000B900240FF6701100F0F7FA00B90024D7
:100900000FF66C1100F0F1FA002818BF002CC7D0C8
:10091000300056D02021384601F0D4F80020388429
:100920007884F884B884002407F1280062B2082192
:1009300000EBC20001F0B2F8641C61B20C29F3DBD9
:1009400020224146384601F0ADF800F047FC3884DB
:100950000A22002108F1600000F082FE78840A2259
:10096000002108F1900000F07BFEB8840125029C74
:10097000C020684308EB00090A220021484607EB23
:10098000C40600F06DFE30850A22002109F1300016
:1009900000F066FE708500F017F8B0850A2200218D
:1009A00009F1900000F05CFEF085B6F9280010B166
:1009B000F88C401CF884641C6D1C052DD8DB4FF0AE
:1009C00000094846BDE8FE8F0A22002109F16000B7
:1009D00000F046BE2DE9F84F82460C46002501275F
:1009E00054B3FFF78BFEFFF78FFEFFF77BFEFADBBA
:1009F000FFF77CFE05E00A54401C01E0FFF76EFEA5
:100A0000761CA25D0A2A0ED02C2A09FB0BF118BF16
:100A10002A2A41447FF4EFAFFFF76CFE07A100F0F4
:100A200021FE0028EAD0280006D05046202208F1F6
:100A3000300101F037F80027D8E500002450535466
:100A40004D564552000000002DE9F14F0E4600259D
:100A50000127002E4CD000F03EFA00F0F3F900F030
:100A6000EDF9FADB0FF6100BAA46A946002008E0C4
:100A70000A54401C03E009F10109002001250AF194
:100A8000010A16F80A200A2A31D030212C2A01FB4B
:100A900009F118BF2A2A4144EAD100F023FA00F0F4
:100AA00016FA0FF2E87100F020FA00B900240FF2F4
:100AB000F47100F01AFA00B900240FF2FC7100F092
:100AC00014FA00B900240FF6080100F00EFA00B97C
:100AD00000240FF6100100F008FA00B900240FF608
:100AE000140100F002FA002818BF002CC3D0002D1A
:100AF00072D0009C00F0F8F908B920700AE00FF2FB
:100B00008C7100F0F2F970B10FF2987100F0EDF90C
:100B100018B92770002161705DE00FF29C7100F040
:100B2000E4F918B902202070677054E00FF2A07148
:100B300000F0DBF908F19005A0B9022000F052F8AE
:100B400000F04BF80026302070430A220021284490
:100B500000F086FD04F1380141F82600761C082ECD
:100B6000F1D338E00FF27C7100F0BFF9002832D1E8
:100B7000032000F037F800F030F80A220021284660
:100B800000F06EFDE081002108F1C00000F093FD4F
:100B900084ED040B00F02CF884ED060B002108F521
:100BA000907000F088FD84ED080B002108F5A87016
:100BB00000F081FD84ED0A0B002108F5C07000F003
:100BC0007AFD84ED0C0B00F018F804F13801B4F94B
:100BD0000E2041F82200002708E5A11C08F1600062
:100BE000FFF74BBB2070A11C08F13000FFF733BBAF
:100BF000002108F1F00000F05EBD0A22002108F596
:100C0000D87000F02DBD2DE9F14F00F0BEF96BD08A
:100C100000F061F900F016F900F010F9FADB0FF2BC
:100C2000EC6B00F0A6F906E00A54401C01E000F06D
:100C3000A4F90AF1010A00F098F929D000F0A1F90D
:100C400018BF2A2A4144EFD100F04CF900F03FF9D7
:100C50000FF2C86100F049F900B900240FF2D06129
:100C600000F043F900B900240FF2D46100F03DF91F
:100C700000B900240FF2DC6100F037F900B900245C
:100C80000FF2E06100F031F9002818BF002CCED03F
:100C9000002D29D0009C00F027F9C0B10FF27C6133
:100CA00000F023F9E8B10FF2886100F01EF908B9ED
:100CB00004200CE00FF2886100F017F908B9042055
:100CC0000FE00FF2906100F010F920B905202070BC
:100CD0000021617007E00FF28C6100F006F910B995
:100CE000052020706770002780E42DE9F14F00F0A7
:100CF0004CF958D000F0EFF800F0A4F800F09EF89E
:100D0000FADB0FF2746B00F034F906E00A54401C71
:100D100001E000F032F90AF1010A00F026F941D0B1
:100D200000F02FF918BF2A2A4144EFD100F0DAF879
:100D300000F0CDF80FF2506100F0D7F800B90024B0
:100D40000FF2586100F0D1F800B900240FF2606191
:100D500000F0CBF800B900240FF2686100F0C5F88C
:100D600000B900240FF26C6100F0BFF800B9002454
:100D70000FF2746100F0B9F800B900240FF2786145
:100D800000F0B3F800B900240FF2806100F0ADF874
:100D900000B900240FF2846100F0A7F8002818BF02
:100DA000002CB6D0002D47D0009C00F09DF8002804
:100DB00035D00FF2D45100F098F8002839D00FF256
:100DC000DC5100F092F808B9062028E00FF2E0515B
:100DD00000F08BF808B906202BE00FF2E85100F084
:100DE00084F808B907201AE00FF2E85100F07DF806
:100DF00008B907201DE00FF2F05100F076F808B9AD
:100E000008200CE00FF2F05100F06FF808B908204C
:100E10000FE00FF2F85100F068F820B909202070B7
:100E20000021617007E00FF2F45100F05EF810B994
:100E30000920207067700027FFF7D8BB641C63B2DD
:100E4000302B704762B2302012FB00F0302140445A
:100E500000F024BE2DE9F14F00F097F835D000F0F6
:100E60003AF8FFF7EFFFFFF7E9FFFADB0FF2C05B9D
:100E700000F07FF806E00A54401C01E000F07DF825
:100E80000AF1010A00F071F811D000F07AF818BFE9
:100E90002A2A4144EFD100F025F800F018F80FF2AB
:100EA000A05100F022F8002818BF002CE6D065B150
:100EB000009C00F019F808B9207005E00FF280518D
:100EC00000F013F800B927700027FFF78FBB01244B
:100ED00000B9002470470024DFF804807047000048
:100EE000F858002000220A545946404600F0BABB88
:100EF0002DE9F14F00F049F835D0FFF7ECFFFFF78F
:100F0000A1FFFFF79BFFFADB0FF2485B00F031F81F
:100F100006E00A54401C01E000F02FF80AF1010A33
:100F200000F023F811D000F02CF818BF2A2A414411
:100F3000EFD1FFF7D7FFFFF7CAFF0FF22851FFF7F6
:100F4000D4FF002818BF002CE6D065B1009CFFF745
:100F5000CBFF08B9207005E00FF20851FFF7C5FF7D
:100F600000B927700027FFF741BB19F80A200A2AA9
:100F70007047AA46002600207047761C00200125F5
:100F80007047302171432C2A70478946002501277C
:100F9000B9F1000F70472DE9F14FFFF7F6FF45D08B
:100FA000FFF799FFFFF74EFFFFF748FFFADB0FF25D
:100FB000C84BFFF7DEFF06E00A54401C01E0FFF7D4
:100FC000DCFF0AF1010AFFF7D0FF11D0FFF7D9FFCC
:100FD00018BF2A2A4144EFD1FFF784FFFFF777FFBC
:100FE0000FF2A841FFF781FF002818BF002CE6D0C0
:100FF000E5B1009CFFF778FF80B9402208F130018D
:10100000204600F04FFD402208F1600104F140004D
:1010100000F048FD002084F8800006E00FF26C41EB
:10102000FFF763FF08B984F880700027FFF7DEBA86
:101030002DE9F14FFFF7A9FF6AD0FFF74CFFFFF74B
:1010400001FFFFF7FBFEFADB0FF25C4BFFF791FFAE
:1010500006E00A54401C01E0FFF78FFF0AF1010A85
:10106000FFF783FF53D0FFF78CFF18BF2A2A4144B4
:10107000EFD1FFF737FFFFF72AFF0FF23C41FFF7F1
:1010800034FF00B900240FF24841FFF72EFF00B9EA
:1010900000240FF25841FFF728FF00B900240FF297
:1010A0006441FFF722FF00B900240FF27041FFF7FF
:1010B0001CFF00B900240FF27C41FFF716FF00B9B6
:1010C00000240FF28841FFF710FF00B900240FF24F
:1010D0009441FFF70AFF00B900240FF2A041FFF787
:1010E00004FF00B900240FF2AC41FFF7FEFE00B987
:1010F00000240FF2BC41FFF7F8FE00B900240FF204
:10110000C041FFF7F2FE002818BF002CA4D0002D2C
:1011100062D0009CFFF7E8FE28B90A20207000F09A
:101120005DF8606057E00FF29031FFF7DEFE08B91E
:101130000B2044E00FF29831FFF7D7FE08B90B20DF
:1011400047E00FF2A831FFF7D0FE08B90C2036E0D7
:101150000FF2B031FFF7C9FE08B90C2039E00FF2E9
:10116000BC31FFF7C2FE08B90D2028E00FF2C431F0
:10117000FFF7BBFE08B90D202BE00FF2D031FFF7CF
:10118000B4FE08B90E201AE00FF2D831FFF7ADFE19
:1011900008B90E201DE00FF2E431FFF7A6FE08B9F2
:1011A0000F200CE00FF2EC31FFF79FFE08B90F2083
:1011B0000FE00FF2FC31FFF798FE20B910202070ED
:1011C0000021217207E00FF2F831FFF78EFE10B90F
:1011D0001020207027720027FFF708BA0A2200218A
:1011E00008F1300000F03CBA01460020A1F13003C4
:1011F0000A2B3CBFA1F13000C0B2A1F14103062B84
:1012000003D2A1F14100C0B20A30A1F16102062A65
:1012100003D2A1F16100C0B20A30704700000000A3
:10122000244750475341000024474C475341000096
:1012300024474147534100002442444753410000A2
:1012400024474E475341000024475047535600005F
:1012500024474C475356000024474147535600004B
:10126000244244475356000024515A475356000025
:1012700024474E4753560000245053544D4346478D
:1012800047454F46454E43454F4B0000245053546D
:101290004D43464747454F46454E43454552524FBD
:1012A00052000000245053544D47454F46454E438D
:1012B000454346474F4B0000245053544D47454F3C
:1012C00046454E43454346474552524F5200000063
:1012D000245053544D47454F46454E434553544182
:1012E00054555300245053544D47454F46454E43A3
:1012F00045000000245053544D47454F46454E434A
:10130000455245514552524F52000000245053540B
:101310004D4346474F444F4F4B0000002450535419
:101320004D4346474F444F4552524F520000000034
:10133000245053544D4F444F53544152544F4B003B
:10134000245053544D4F444F5354415254455252DC
:101350004F520000245053544D4F444F53544F505C
:101360004F4B0000245053544D4F444F53544F5053
:101370004552524F52000000245053544D434647AB
:101380004C4F474F4B000000245053544D434647A9
:101390004C4F474552524F520000000024505354C6
:1013A0004D4C4F474352454154454F4B00000000C0
:1013B000245053544D4C4F47435245415445455298
:1013C000524F5200245053544D4C4F4753544152A6
:1013D000544F4B00245053544D4C4F47535441529B
:1013E000544552524F520000245053544D4C4F47D5
:1013F00053544F504F4B0000245053544D4C4F47C3
:1014000053544F504552524F5200000024505354F1
:101410004D4C4F4745524153454F4B002450535478
:101420004D4C4F4745524153454552524F52000093
:10143000245053544D4346474D53474C4F4B0000A7
:10144000245053544D4346474D53474C4552524FF9
:1014500052000000245053544D53415645504152C0
:101460004F4B0000245053544D5341564550415268
:101470004552524F52000000245053544D53544192
:10148000475053385041535352544E0024505354F4
:101490004D535441475053385041535347454E459F
:1014A00052524F5200000000245053544D414750B7
:1014B0005353544154555300245053544D535441A5
:1014C00047505353454544424547494E4F4B000012
:1014D000245053544D53544147505353454544426F
:1014E0004547494E4552524F520000002450535434
:1014F0004D535441475053424C4B545950454F4B18
:1015000000000000245053544D535441475053425F
:101510004C4B545950454552524F5200245053544D
:101520004D535441475053534C4F544652514F4BD7
:1015300000000000245053544D535441475053531E
:101540004C4F544652514552524F5200245053541E
:101550004D53544147505353454544504B544F4BC2
:1015600000000000245053544D53544147505353EE
:10157000454544504B544552524F52002450535409
:101580004D5354414750535345454450524F504F8B
:101590004B000000245053544D5354414750535373
:1015A00045454450524F504552524F5200000000A2
:1015B000245053544D494E495454494D454F4B00C6
:1015C000245053544D494E495454494D4545525267
:1015D0004F5200002DE9F84381460D0090461C460D
:1015E00008BF6D464F4600E07F1C387800F06DFA6A
:1015F0000028F9D13E782D2E18BF2B2E05D117F8D3
:10160000010F00F062FA50B900E02B262346424653
:101610002946384600F064FA29688F4204D1C5F89B
:1016200000900020BDE8F2832B2E04D1B0F1004FD2
:1016300006D2BDE8F2832D2EFBD1B0F1004F0CD9BC
:10164000AFF300800CB1012020602D2E14BF6FF08D
:1016500000404FF00040BDE8F2834042BDE8F28315
:101660000023B7E710F8012B11F8013B0AB19A42A9
:10167000F8D0D01A704730B4002513E050F8042B8E
:10168000D30744BFA9F101039A18091F042942F89E
:10169000045BFAD213468C0744BF15809B1CC90714
:1016A00048BF1D7050F8041B0029E7D130BC7047BB
:1016B00041EC100B01BD80B500F02EFDF8E782680B
:1016C000521C8260426832B10268531C0360117080
:1016D0004168491E4160704710B510EE101A21F0A4
:1016E00000402DED028BB0F5000F82B0B0EE608AA5
:1016F00006D20021009160B1684600F011FD08E0BB
:10170000C00D21F0FF417E3841F07C51009000EE89
:10171000101A20EE080A10EE102A22F00041009C58
:10172000C80D2418C0B1002C16DDFF2C0ADB02B056
:101730004FF0FF4002F000420243BDEC028B00EE8E
:10174000102A10BD02B022F0FF4343EAC453BDEC9F
:10175000028B00EE103A10BD11B1009800F004FDAC
:1017600002B0BDEC028B10BD70B52DED028B0400F4
:1017700082B00D4600F0B78010EE102A510000F044
:10178000B28050000016401C02D1510200F0AB8024
:10179000002CB7EE008A63D5644200BFA7A10520E4
:1017A00008E0E30744BFD1ED000A28EE208A640870
:1017B000091D401E002C18BF0028F2D122F0004065
:1017C000B0F5000F05D200210091684600F0A8FC9A
:1017D00008E0C00D22F0FF427E3842F07C520090BB
:1017E00000EE102A80EE080A10EE102A22F00041C6
:1017F000009EC80D361890B1002E10DDFF2E07DBBD
:101800004FF0FF4002F00042024300EE102A0AE0CF
:1018100022F0FF4343EAC65300EE103A03E011B151
:10182000009800F0A1FC10EE101A4A004AD04800BF
:101830000016401C01D1490244D0002C42D0DFEDFB
:10184000760AFFF749FF10EE101A4A003AD0480016
:101850000016401C01D1490234D0641EEFD131E0A2
:1018600030DD00BF75A10520E20744BFD1ED000ABD
:1018700028EE208A6410091D401E002C01DD00287E
:10188000F2D1F0EE480AFFF727FF10EE101A4A00D7
:1018900018D048000016401C01D1490212D0002C7B
:1018A00010DDDFED5E0AFFF717FF10EE101A4A0099
:1018B00008D048000016401C01D1490202D0641E25
:1018C000002CEEDC10EE101A4A0005D0480000167D
:1018D000401C08D1490206D1AFF300801DB1286831
:1018E00040F00100286002B0BDEC028B70BD00002A
:1018F0002DE9F14183B01D001CBF00202860039F2B
:101900008846164603A800F091FCC41020F0080099
:10191000012804F0010424D1009001AB0399424650
:10192000384600F015FD10B99FED3D0A15E09DED1C
:10193000020A0128B8EEC00A0FDD03A9401EDFED40
:10194000390A51F8042BB0EE401A00EE102AB8EE16
:10195000C00A401E01EE200AF3D1019829468019E1
:1019600045E0022846D10120009001AB0399424690
:10197000384600F0C9FD10B99FED290A15E09DED2C
:10198000020A0128B8EEC00A0FDD03A9401EDFEDF0
:10199000260A51F8042BB0EE401A00EE102AB8EED9
:1019A000C00A401E01EE200AF3D110EE103A019A4F
:1019B00023F00041C80D02EB000712D0002F10DD0C
:1019C000FF2F07DB4FF0FF4003F00043034300EE1F
:1019D000103A0AE023F0FF4040EAC75800EE108AB0
:1019E00003E011B1104600F0BFFB29463046FFF777
:1019F000BBFE0AE0032808BF9FED0C0A05D00428AF
:101A00000CBF9FED0B0A9FED060A0CB1B1EE400A28
:101A100004B0BDE8F08100001EB14F0AAEC59D7450
:101A200000000000286B6E4E0000804D0000807F9B
:101A3000FFFFFF7F002300225AE700000000204143
:101A40000000C84200401C4620BCBE4CCA1B0E5AB7
:101A5000AEC59D74C0F3C75181B1FF2906D0C11036
:101A6000400721F0E04101F16051704741020CBF95
:101A700040F4E0016FF000410020704700F00041A9
:101A800000020AD0B0FA80FC00FA0CF001F16051BB
:101A9000A1EB0C5101EBD02140057047002200F072
:101AA00037BE2E0001B55AB111F8013B521E00F8A5
:101AB000013B03B1F8D111001CBF002200F028FE49
:101AC00001BD4300002200F02DBE10B5044600F019
:101AD00061FE01462046096ABDE81040084770478C
:101AE0002DE9F84F84B00E4617460BB100221A605C
:101AF0000446A04601E008F1010898F80000FFF74D
:101B0000E4FF0028F7D198F800002D2816BF2B28F5
:101B100018F8015B2B25002F019603D4012F01D06B
:101B2000252F03DB002E55D0346053E0002F0CDD51
:101B3000102F04BF98F80000302802BF98F8010069
:101B400040F02000782811D10CE098F800003028EF
:101B500018BF0A270AD198F8010040F02000782821
:101B600003D1102708F1020800E00827CDF80C8007
:101B700001E008F1010898F800003028F9D0064E7D
:101B80007E4414364FF0000906F12800CDF8088095
:101B9000CA468DF800000BE0585901009DF800106E
:101BA000401ACA465FFA80FB07FB09B908F1010831
:101BB00098F8000000F0F6FD01463A4606F12800CC
:101BC00000F0FAFD0028E9D10399414504D10198BC
:101BD00000B10460002020E00299F05DA8EB010153
:101BE000081A002810D406DCB9EB0B0103D3B1FBB3
:101BF000F7F0504508D0AFF30080049808B10121F8
:101C000001604FF0FF3903E02D2D08BFC9F1000935
:101C1000019808B1C0F80080484605B0BDE8F08FD3
:101C20002DE9B04C41EC100B2DED028B43EC182B41
:101C300053EC102B23F00041B1F5801F82B00DD280
:101C40000022002908BF0028009216D06A4651ECF5
:101C5000100B00F0DDFD41EC100B0EE0DFF87444DA
:101C6000DFF8787404EB115000903B40DFF8680413
:101C7000924643EA000B4BEC10AB53EC102B51ECAB
:101C8000180B00F0FDFD41EC100B0A465000009BC4
:101C9000400D1B18D0B1002B18DD40F2FF708342BD
:101CA0000CDB9FEDA20B53EC102B01F0004119430C
:101CB00055EC104B0D4645EC104B15E06FF31E52E2
:101CC00042EA035251EC100B11460BE051EC100BA1
:101CD00020F0000231F0004308BF002A04D0009A2F
:101CE00000F0A0FE41EC100B02B051EC100BBDEC6B
:101CF000028BBDE8B08C00002DE9F8452DED048B7A
:101D0000002A82B041EC180B1D4600F0068157EC0A
:101D1000186B37F0004308BF002800F0FE80480031
:101D20004015401C02D1090300F0F780002A9FED06
:101D3000819B40F195805242DFF8ECA1FA440AF50C
:101D4000F47A4FF0080814460EE0E00707D5DAE908
:101D5000002351EC190B00F093FD41EC190B6408C2
:101D60000AF1080AA8F10108002C18BFB8F1000F09
:101D7000EBD127F00041B1F5801F07D20020009081
:101D80006A4651EC180B00F043FD0BE0DFF84423EA
:101D900002EB11500090DFF84013DFF840030740DA
:101DA0003046394353EC192B00F0DAFE41EC180BA6
:101DB0000A465000009B400D1B18D0B1002B18DDC7
:101DC00040F2FF7083420CDB9FED580B53EC102B5D
:101DD00001F00041194357EC106B0F4647EC186BAC
:101DE00015E06FF31E5242EA035251EC180B1146F4
:101DF0000BE051EC180B20F0000231F0004308BF5B
:101E0000002A04D0009A00F00DFE41EC180B51ECB2
:101E1000180B20F0000231F0004308BF002A66D002
:101E200048004015401C01D1090360D0002C5ED051
:101E3000AB4AAC4B51EC180BFFF7F2FE20F000025E
:101E400031F0004308BF002A41EC180B4FD0480086
:101E50004015401C01D1090349D0641EE8D146E079
:101E600045DD314F7F4407F1C00708261446E007DF
:101E700007D5D7E9002351EC190B00F001FD41EC27
:101E8000190B64100837761E002C01DD002EEED1F0
:101E900053EC192B51EC180BFFF7C2FE20F0000297
:101EA00031F0004308BF002A41EC180B1FD0480056
:101EB0004015401C01D1090319D0002C17DD8A4AB6
:101EC000924B51EC180BFFF7ABFE20F0000231F003
:101ED000004308BF002A41EC180B08D04800401509
:101EE000401C01D1090302D0641E002CE7DC51EC38
:101EF000180B20F0000231F0004308BF002A05D083
:101F000048004015401C08D1090306D1AFF30080FA
:101F10001DB1286840F00100286002B051EC180B98
:101F2000BDEC048BBDE8F4851857010000000000EB
:101F30000000F07F000000000000F03F2DE9F14DAF
:101F400081B05FEA03082DED028B84B01CBF002036
:101F5000C8F80000079D0C46934607A800F066F9F4
:101F6000C11020F00800012801F0010A30D1022040
:101F7000009001AB07992246284600F0E9F90400D9
:101F800008BF9FED630B1ED0029800F00DFF022CDE
:101F900041EC100B17DB03AF661E9FED548B51EC29
:101FA000100B53EC182B00F06BFC044657F8040B95
:101FB0000D4600F0F9FE22462B4600F007FF761E84
:101FC00041EC100BEBD10198434600EB0B025FE0B4
:101FD000022864D1009001AB07992246284600F000
:101FE00093FA040008BF9FED4A0B1ED0029800F040
:101FF000DBFE022C41EC100B17DB03AF661E9FEDDE
:102000003D8B51EC100B53EC182B00F039FC0446BF
:1020100057F8040B0D4600F0C7FE22462B4600F091
:10202000D5FE761E41EC100BEBD151EC100B0B469C
:10203000019A5800400D02EB00041AD0002C18DD64
:1020400040F2FF7084420CDB9FED2C0B53EC102B05
:1020500001F00041194355EC104B0D4645EC104B77
:1020600014E06FF31E5343EA045351EC100B19466E
:102070000AE051EC100B20F0000431F0004508BFDD
:10208000002C03D000F0CEFC41EC100B43465A4626
:1020900051EC100BFFF730FE41EC100B0AE0032867
:1020A00008BF9FED160B05D004280CBF9FED150B44
:1020B0009FED170BBAF1000F05D051EC100B81F01A
:1020C000004141EC100B04B051EC100BBDEC028B45
:1020D000BDE8FC8D02FCFFFF0000E03FFFFF0F802A
:1020E000436FAC642806C80A3CBF737F0000000041
:1020F00065CDCD41000000000000B04100000000AF
:102100000000F07FFFFFFFFFFFFFFF7FDD4F157532
:102110000000000000000000002300220EE77047CE
:10212000034610EE100AF44600F004F8196000EEC1
:10213000100A6047C0F3C75129B1FF2912D07E3978
:10214000A0EBC1507047C0420DD000F000424002E9
:10215000B0FA80F188407E31494242EA102000F115
:102160007A50704700217047010010EE100AC0F34A
:10217000C7520AD4D2B3FF2A37D05218FF2A4CD202
:1021800000EBC15100EE101A7047494232B3FF2AEA
:102190002BD0914204D2A0EBC15100EE101A70472F
:1021A000521E891AA0EBC25000EE100A192918D845
:1021B000C1F17F01C90500EE901AF1EE101A21F06D
:1021C0001F0020F4F850E1EE100A20EE200AF1EE94
:1021D000100AE1EE101A000925D27047C042E5D17D
:1021E000704700F0004000EE100A7047C042FCD07B
:1021F0007F2906D87F31C90500EE901A20EE200A0B
:1022000070474FF0FE4000EE900A20EE200A7F3922
:1022100010EE100AC0F3C752AFE7C10D41F0FF0145
:10222000C90500EE101AAFF3008070472DE9F8439E
:1022300005460C462E68002700E0761C3078FFF734
:1022400044FC0028F9D130782D280CBF08272B2812
:1022500000D1761C307840F020016E2927D17078AB
:1022600040F02000612802BFB07840F020006E28C6
:1022700002D02E68002746E0F61CB046042798F8E6
:10228000000028283FD118F8019F484600F05BFE67
:102290000028F8D1A9F130000A28F4D398F80000FA
:1022A0005F28F0D029282ED108F101062BE06929FA
:1022B0002CD1707840F020006E2802BFB07840F03A
:1022C0002000662802D02E6800271CE016F8030FB5
:1022D00040F02000692802BF707840F020006E288E
:1022E00047F003070FD1B07840F02000692802BF03
:1022F000F07840F02000742805D1307940F02000BB
:10230000792808BF761DF4B126601CE0302802BF92
:10231000707840F02000782813D1B01C01782E2965
:1023200008BF401C0078A0F16101062921BFA0F17F
:102330004102062A30380A2803D2B61C47F00207A9
:1023400001E047F001072E603846BDE8F283704790
:102350002DE9F14F8CB04FF00008169DC34605EBF8
:10236000C5052D2DC3F800B09246C8BF2D25C3F872
:1023700004B0D94602E0491C4FF001090878302822
:10238000F9D0002411E01868401C18600A78302A3F
:1023900008D04FF0010805E0AC42F4DA30380DF80F
:1023A0000400641C491C4FF001090878A0F13002B8
:1023B0000A2AF1D30F461E4600F0EEF9406A39783A
:1023C0000278914208BF7F1C002C48460ED1397814
:1023D00030290BD13068401E30607F1C0120F6E7A9
:1023E000302918BF4FF001087F1C01203978A1F176
:1023F00030020A2A0AD2AC42F2DAA1F130000DF81A
:102400000400641C3268521E3260EDE7B8F1000F20
:102410000DD00DF1FF314A5D521C4A5507E00DF118
:10242000FF32115D49B93268521C3260641E002CC3
:10243000F5DC04BF8DF800B00124002857D04FF020
:10244000090994FBF9F9C4F1090309EBC9010B442B
:10245000092193FBF1F1002201EBC101591A1AD0B5
:102460004FF0010B17E056F82B1001EB810105EB43
:10247000410146F82B100CE0092193FBF1F101EB2F
:10248000C1011DF80250591AEDD10BF1010B46F8AC
:102490002B505B1C521CA242EEDB397841F020012C
:1024A000652924D1394617F8012F164D2B2A16BF5E
:1024B0002D2A17F8014B2B240022002308E0AB4201
:1024C00004DA03EB83020CEB4203303B7F1C012256
:1024D00097F800C0ACF1300EBEF10A0FEFD32D2CEF
:1024E000346808BF5B421B19336002B90F46BAF16A
:1024F000000F03D000B90C9FCAF8007058460DB009
:10250000BDE8F08F00E1F5052DE9F14F8CB04FF0FB
:10251000000ADDF85880C3F800A0C8EBC808B8F17D
:10252000230FC8BF4FF023089146C3F804A000272B
:1025300001E0491C012708783028FAD068A20192EE
:102540005FF000046CA200920DF1080B0D461E46D0
:102550000EE03068401C306008E0A045F9DB019ACD
:102560000099801A085C0BF80400641C6D1C01279C
:1025700095F800105AA0162200F01EF90028ECD1A0
:1025800000F00AF9406A29780278914208BF6D1C70
:10259000B4B92878302813D13168491E31606D1CD8
:1025A0000127F6E7A04509DB019A0099801A085C2B
:1025B0000BF80400641C3168491E31606D1C012752
:1025C0002978162246A000F0F7F80028EAD1A045A5
:1025D00017DA1BF80810072906DD0DF1070111F8BD
:1025E0000820521C01F8082044463268521C326010
:1025F00007E00DF10702115D49B93268521C3260E3
:10260000641E002CF5DC04BF8DF808A0012431689D
:102610008900002F316055D04FF0070C94FBFCFC73
:10262000C4F10703CCEBCC0C6344072193FBF1F11D
:102630000022C1EBC101591A18D04FF0010A15E070
:1026400056F82A100CEB011046F82A000CE007217E
:1026500093FBF1F1C1EBC1011BF802C0591AEFD194
:102660000AF1010A46F82AC05B1C521CA242EEDBAA
:10267000297841F02001702924D1294615F8012F2D
:1026800016482B2A16BF2D2A15F8014B2B240022A1
:10269000002308E0834204DA03EB83020CEB4203DD
:1026A000303B6D1C012295F800C0ACF1300EBEF13C
:1026B0000A0FEFD32D2C346808BF5B421B1933601F
:1026C00002B90D46B9F1000F03D007B90C9DC9F846
:1026D000005050460DB0BDE8F08F000000E1F50558
:1026E0003031323334353637383961626364656688
:1026F0004142434445460000000102030405060729
:1027000008090A0B0C0D0E0F0A0B0C0D0E0F000022
:102710004018491C1CBFB1F1010100F8012DF9D18D
:102720007047704700B500BF1300964694461039B5
:1027300028BFA0E80C50FAD85FEA417C28BF0CC043
:1027400048BF40F8042BC90728BF20F8022B48BF18
:1027500000F8012B00BD7047613807E005E0A0F1EB
:1027600061011A2901D20120704741381A2880419D
:10277000C00F7047A0F10901052901D3202801D11C
:102780000120704700207047A0F141011A2938BF8D
:102790002030704701487047014870470C070020FF
:1027A000D406002010B50446FFF7F4FF014620468A
:1027B000896ABDE810400847C9B2830706D0521E97
:1027C00022D310F8013B9942F7D11FE0083A13D306
:1027D00002F1040241EA012141EA014150F8043BBF
:1027E000121F21BF4B40A3F1013C2CEA030C1CF04B
:1027F000803FF3D0C9B2001F083210F8013B521ECF
:1028000028BF91EA030FF8D818BF0120401E704777
:1028100010B5144600F002F8226010BDC1F30A534F
:1028200043B14A0012F5001F28D2A3F2FE32A1EBF9
:102830000251704750EA410C20D001F0004C31EABF
:102840000C01B1FA81F204BFB0FA80F3D2180B3A4E
:10285000B2F120032CBF00FA03F1914041EA0C01D0
:102860003EBFC2F1200C20FA0CF3194390405242B3
:1028700040F2FD33D21A01EB03517047002270473A
:10288000B0B581EA030C0CF0004C40F2FF7515EA7C
:1028900011541DBF15EA1357AC42AF4239E0E41999
:1028A00023EA455343F48013C90241F0004141EA51
:1028B000505EC7021100A7FB020200284FF0000083
:1028C000EEFB01204FF00001E3FB072118BF42F0AF
:1028D0000102401800214941E3FB0E01A4F5806488
:1028E0000F0302D252004041494154F101046CDD12
:1028F000470872F1004250F1000051EB0451A1F57C
:1029000080115CBF41EA0C01B0BD4CEA05510020CA
:10291000B0BD05EA1357AC4214BFAF4241E050EAE4
:10292000410E1CBF52EA430E02E061460020B0BDDA
:1029300024423C441BD15FEA070EF6D0090302BFD4
:1029400001460020AEF1140EB1FA81F7AEEB070498
:1029500001FA07FE0C37C7F1200100FA07F7C8405B
:102960004EEA000E23EA455343F48013A2E733F006
:102970000043B3FA83F704BFB2FA82FE77440B3FF9
:10298000E41BB7F1200E2FBF02FA0EF3BB40C7F1D4
:10299000200E22FA0EFE38BF43EA0E03BA40641C32
:1029A00082E750EA410E14BF52EA430E6FF0000175
:1029B0004FF4001717EB430F8ABF194617EB410F6F
:1029C000B5E74CEA05510020B0BDD4F10104B4F1E3
:1029D00020070FDAC4F12007520828BF42F0010295
:1029E00010FA07F501FA07F7E1BF2A43E040384340
:1029F000E1400FE0352C98DCC7F1200452EA400298
:102A000020FA07F218BF42F0010231FA07F0A140A4
:102A10000A43002172F1004250F1000051EB0C0119
:102A2000B0BD7047124254D440F2FF7C1CEA1153EF
:102A30000FD0634531D09B1863453CBF01EB025179
:102A4000704701F0004141EA0C510020AFF30080D3
:102A5000704750EA410320D001F0004C91EA0C018C
:102A60001CD0B1FA81F30B3B9A420DD9D21A99408E
:102A700051EA0C01C3F1200C20FA0CFC614498408F
:102A8000531C40F2FF7CD7E7914041EA0C01C2F1B0
:102A9000200C20FA0CF3194390407047B0FA80F3F1
:102AA0001533202BE0D3202AEED3203A203B9A4244
:102AB00009D9D21A00FA03F141EA0C010020531C93
:102AC00040F2FF7CB8E700FA02F141EA0C01002075
:102AD0007047524240F2FF7C1CEA11530DD063450F
:102AE000DBD0B2EB030C3CBFA1EB025170470CF101
:102AF000010221EA035141F4801150EA410CCCD08B
:102B000001F0004C352A27DC30B481EA0C01B2F127
:102B1000200309DAC2F12003044601FA03F5D0408C
:102B20002843D1409C400CE0C3F12002450020FA2C
:102B300003F418BF44F0010421FA03F091400C4360
:102B4000002174F1004550F1000051EB0C012442CA
:102B500030BC7FF47BAF70476146002076E770475A
:102B6000F0B540F2FF7581EA030C0CF0004C15EA59
:102B700011541DBF15EA1357AC42AF42E5E0BC410A
:102B8000C1F31301C3F31303801A994143F4801373
:102B900004D2641E4000494180185941C90241EAEB
:102BA0005051B1FBF3F603FB1611A2FB0675D7EBF0
:102BB000C020A94102D2761E80185941C90241EABB
:102BC0005051B1FBF3FE03FB1E11A2FB0E75D7EBB8
:102BD000C020A94103D2AEF1010E801859418902EB
:102BE00041EA9051760546EA8E2EB1FBF3F603FBDF
:102BF0001611A2FB0675D7EB8020A94102D2761EE2
:102C000080185941C90241EA50514EEA060EB1FB03
:102C1000F3F603FB1611A2FB0675D7EBC020A94102
:102C200002D2761E80185941C90241EA5051B1FBC7
:102C3000F3F703FB1711A2FB0735D3EBC020A94123
:102C400067F100070CBF004247F0010766F3D52784
:102C50004FEA1E31B80814F5806412DDBD0775F126
:102C6000004250EB0E5051EB045111F5801F5CBF38
:102C700041EA0C01F0BD4CF07F6141F0E0410020E1
:102C8000F0BDBD076D0840EA0E5041F48011D4F14B
:102C90000104B4F120060ADAC4F120060200E04083
:102CA00001FA06F3E1401843B24015430EE0342C1C
:102CB00013DCC6F1200445EA40056D0820FA06F24F
:102CC000154321FA06F0A1400D43002175F10042A1
:102CD00050F1000051EB0C01F0BD00205FEA0C0147
:102CE000F0BDCFB992185B41B3FA83F704BFB2FAD3
:102CF00082F6BF190B3FB7F120062FBF02FA06F389
:102D0000BB40C7F1200622FA06F638BF3343BA406B
:102D10001CB1E419641E33E77F4231F00041B1FA7F
:102D200081F404BFB0FA80F6A4190B3CB4F120067C
:102D30002FBF00FA06F1A140C4F1200620FA06F6E2
:102D400038BF3143A0403C1B1AE7AC421ABF05EA2A
:102D50001357AF4212E050EA41061CBF52EA430645
:102D6000BFE750EA4107304661461CBF41EA0551C2
:102D7000F0BD52EA430C08BFC143F0BD00204FF440
:102D8000001616EB410F98BF16EB430F08BF16EB6A
:102D9000410F24BFC14305E016EB430F0CBF614652
:102DA0004CEA0551F0BD7047C11768B14840401A60
:102DB000B0FA80F29040D21CC907C2F5846241EAA1
:102DC000025202EBD02140057047704770B44FF0BB
:102DD000004591EA030F40F1C9806B40841A71EB02
:102DE000030604D26E40001BB141121973414FF427
:102DF000001C1CEB410F34BF7CEB430683E00C0D41
:102E0000A4EB1356362E00F37C80012E45EAC32333
:102E100041DC43EA525312BFD20292025B082405FE
:102E200045EAC12141EA5051D2EBC020994125D455
:102E300007D1B0FA80F610FA06F162D000202036F1
:102E400008E0B1FA81F6B140C6F1200220FA02F2A0
:102E50001143B0404FEAF474B4EB465434F0010629
:102E60004FEA74040AD8D6F50016760D04F0004433
:102E7000F04061FA06F25040F1404840C00A40EA92
:102E8000415021F0004128BF5FEA500550F1000099
:102E900044EBD12135E0DB0A45EAC121C90AB6F18C
:102EA00020050EDD42EA0242120CC5F1200603FAAB
:102EB00006F6EB4042EA06056D42984161F10001D9
:102EC0000DE062FA06F5F240554063FA06FC82EA2C
:102ED0000C02F3405A406D42904161EB030111F442
:102EE000801F05D1641E620502D06D00404149413A
:102EF00021F48011430875F1004350F1000041EBCB
:102F0000045170BC70471CEB410F15D223F00043F5
:102F100052EA43060BD04FEA4C0CBCEB410F04D8ED
:102F20000C0D661E342EB7DDEBE7801A994150EA8E
:102F3000410608BF0021E4E708BF1CEB430F28BF90
:102F40006FF00001DDE710B50446FFF723FC0146F2
:102F500020460969BDE810400847704770B44FF03B
:102F6000004591EA030F7FF539AF6B40841A71EB8E
:102F7000030603D2001BB141121973414FF4001C28
:102F80001CEB410F34BF7CEB430442E00C0DA4EB7F
:102F90001356352E4FDC45EAC323DB0A45EAC1212F
:102FA000C912B6F120050DDD63FA05F6EB4086EA9D
:102FB0000305124218BF45F00105C01851F1000188
:102FC0000CD213E062FA06F5F2405540F3415A4044
:102FD000B340F3405A408018594107D349085FEA8B
:102FE00030005FEA350528BF45F0010501F5801185
:102FF000420875F1004250F1000041EB04514E00CF
:1030000016F5001F70BC38BF70470020090D090578
:1030100070471CEB410F10D252EA43060BD0BCEBB9
:10302000410F05D80C0DAB43661E342EB6DD02E011
:10303000AB438018594170BC704770BC70477047F3
:1030400010B50446A0686468A04710BD10B50446DA
:10305000A0682468A04710BD38B500F0C4F918B9BD
:1030600000F0ADF900F0B7F932BD1CB500F075F80D
:1030700000F0AAF906D004D3032903D038BF0221F7
:1030800000D30021217016BDF8B500F000F900282A
:103090002E4628D100F0D0F826D100F0C8F800283C
:1030A00021D19DF8031003291DD8DFE801F00205A6
:1030B0000B12CDB9012617E0280018BF012D13D13E
:1030C000022611E028001CBF012D022D0CD1032681
:1030D0000AE0280018BF012D03D0022D18BF032DD0
:1030E00002D1042600E050B900F00AF8FFF7A8FF6B
:1030F00028B900F093F800F003F8FFF7A7FFF2BD3E
:1031000001230DF102021021204670471CB500F08A
:1031100024F800F0F4F91DD8DFE801F006080A0CE5
:103120000E10121416181A00012114E0022112E0E8
:10313000032110E004210EE005210CE006210AE045
:10314000072108E0082106E0092104E00A2102E045
:103150000B2100E00021217016BD0C4601236A46B8
:1031600010216DE738B500F008F91121FFF768FF6D
:1031700040B99DF8000065F3430000F0F9F8112113
:1031800000F01DFA32BD1CB500F0ACF800F032F9C9
:1031900018BF022903D004291CBF06290021217071
:1031A00016BD0000F8B500F072F800282E4628D1B0
:1031B00000F042F826D100F03AF8002821D19DF81D
:1031C000031003291DD8DFE801F002050B12CDB969
:1031D000012617E0280018BF012D13D1022611E0A7
:1031E00028001CBF012D022D0CD103260AE0280067
:1031F00018BF012D03D0022D18BF032D02D10426C4
:1032000000E050B900F03DF8FFF71AFF28B900F0D0
:1032100005F800F036F8FFF719FFF2BD9DF802003F
:1032200000F00F0040EA06108DF8020070470DF123
:103230000301204600F0CBB99DF800109DF8017005
:10324000084641EA500141EA900141EAD00141EAD1
:10325000101141EA501141EA9011394341EA5701F6
:1032600041EA970141EAD70141EA171141EA5711B2
:1032700041EA971101F00101074341EAD710012803
:10328000704701230DF102021121204670470446C8
:103290000D46694600F080B91CB500F023F800F037
:1032A00051F9491E09291AD8DFE801F00507090B71
:1032B0000D0F11131517012112E0022110E0032157
:1032C0000EE004210CE005210AE0062108E00721B8
:1032D00006E0082104E0092102E00A2100E00021C3
:1032E000217016BD0C4601236A461121A8E638B5A7
:1032F00000F05EF818B900F0DBF800F051F832BDCC
:103300009DF8011021809DF8002002EB0121218011
:1033100070471CB50C4606236A46222104E01CB502
:103320000C4606236A462821FFF78AFEFFF7E8FFCE
:103330009DF8031061809DF8023003EB012161804C
:103340009DF80510A1809DF8042002EB0121A180C9
:1033500016BD38B500F011F80121FFF771FE30B944
:1033600000F0F4F800F004F8012100F028F932BD73
:103370008DF8000001236A4670470D46044601237C
:103380006A4670470A4601230F21FFF759BE38B538
:1033900000F00EF818B900F095F800F001F832BD11
:1033A0008DF8000001236A4612212046FFF74EBE29
:1033B0000D46044601236A461221FFF741BE9DF8DF
:1033C000000065F3830070479DF80010890801F044
:1033D0000301012970478DF8000001236A4610217E
:1033E0002046FFF733BE0D46044601236A461021EE
:1033F000FFF726BE9DF80010490801F007010129DA
:10340000704738B500F0B1F8C0B99DF8000000F081
:10341000FD00E90940EA410000F09FF870B900F0B2
:103420000EF8FFF70DFE48B99DF8010065F3C400E2
:103430008DF8010000F003F8FFF708FE32BD01230C
:103440000DF10102622120467047000038B500F0FE
:1034500010F828B99DF8000065F3050000F001F8A8
:1034600032BD8DF8000001236A465B212046FFF73C
:10347000EDBD0D46044601236A465B21FFF7E0BD22
:1034800038B500F00EF818B900F017F800F001F8A0
:1034900032BD8DF8000001236A465C212046FFF70B
:1034A000D5BD0D46044601236A465C21FFF7C8BD21
:1034B0009DF8000065F3861070479DF8000065F3E5
:1034C000461070479DF8000065F38200704738B5DC
:1034D00000F00EF818B9FFF7F0FF00F001F832BD68
:1034E0008DF8000001236A4659212046FFF7AEBD42
:1034F0000D46044601236A465921FFF7A1BD9DF8F8
:1035000000100909491E0A29704738B500F013F860
:1035100018B900F003F800F006F832BD9DF800007D
:1035200065F3020070478DF8000001236A460A2106
:103530002046FFF78BBD0D46044601236A460A214B
:10354000FFF77EBD9DF80010090970479DF8000047
:1035500000F03F0040EA851070478DF8000001231D
:103560006A4618212046FFF771BD0D460446012327
:103570006A461821FFF764BD38B500F023F820B97A
:1035800000F004F808B900F043F832BD01236A46A0
:1035900012212046FFF754BD38B500F013F830B9BA
:1035A00002232A46462100F030F800B900E032BD7F
:1035B0002046BDE834400021FFF7CBBE6221204603
:1035C000FFF744BD0D4604460221FFF7C2BE38B5E1
:1035D000FFF7F8FF90B900F012F878B99DF80000F5
:1035E000C00800F00300012806D004D3032803D04C
:1035F00038BF022000D3002000F013F832BD0123B1
:103600006A465F212046FFF71BBD2046FFF718BD25
:103610009DF80000C0F30010287000212046FFF73D
:1036200098BE287000212046FFF793BE2046FFF782
:1036300007BD05460C461646002070471321284654
:10364000FFF7FEBCF6B585B004469DF814309DF832
:1036500014609DF814005B0806F0010600F00200FB
:10366000064303F00402164303F008010E4303F07F
:1036700010009DF81410064303F020039DF8155028
:103680003343C9096E0843EA8113C5F3400706F0C6
:10369000040243EAC513174306F008018DF803300E
:1036A0000F4306F01000074306F020069DF8163081
:1036B0003E43EA0946EA821646EAC31699008DF8A7
:1036C000006001F0080201F01000024301F0200147
:1036D00011431E0941EAC6118DF8061058099DF8DC
:1036E0001760C3F3401100F00200F7000843DB0944
:1036F00040EA830000F0FBF8320947EAC2178DF870
:10370000027070099DF81830C6F3401100F00200F5
:10371000DF000843F60940EA860000F0E8F81B09DC
:1037200047EAC3178DF80170012301AA1321FFF79F
:103730007DFF48BB9DF8140028438008C1079DF811
:1037400004004CBF40F0200000F0DF008DF80400C2
:10375000012301AA1321FFF732FFA8B90221FFF7C5
:1037600062FF88B901230DF106020A21FFF727FF46
:1037700050B900F0E3F80B21FFF721FF20B900F06A
:10378000E1F808B9FFF74EFF002825D19DF8062083
:103790009DF802109DF801009DF8063000F087FBAF
:1037A0009DF8020041EA131100F0AEF89DF8010007
:1037B00000F0AAF801F001019DF8000051EAD211D1
:1037C00014BF40F0020000F0FD008DF8000000F092
:1037D000FFF90D21FFF7F3FEB8BB01236A465E2116
:1037E000FFF7EDFE88BB012302AA0E21FFF71EFFA3
:1037F00058BB9DF808009DF8141000F0FB0001F084
:10380000040108438DF80800012302AA0E21FFF7E6
:10381000D6FED0B900F08CF8FFF712FCA8B99DF8DD
:103820000700AD0865F300008DF8070000F080F890
:10383000FFF70CFC48B900F075F8FFF701FC20B960
:1038400003AA0021204600F04EFB00284DD19DF830
:103850000D609DF80C509DF803109DF800000D437D
:103860009DF80C10CF0847EA910747EA510747EA4D
:10387000911747EA511747EA111747EA560747EAEF
:10388000960747EAD60747EA161747EA56179DF8FC
:10389000031047EA961747EA910747EA911747EA64
:1038A00051070F4347EA511747EA111747EAD10773
:1038B000074347EA900747EAD00747EA101747EA65
:1038C000501747EA9017054307F001079DF80500D8
:1038D00057EAD51714BF40F0800000F07F008DF844
:1038E000050000F01FF8FFF7B1FB07B0F0BD07F0CF
:1038F0000802104307F01001014307F020000843BD
:1039000007F0400707437047014341EA500141EA8D
:10391000900141EAD00141EA101141EA501141EA17
:103920009011704701230DF1050258212046704780
:1039300001230DF107025F212046704701230DF19D
:103940000202704701230DF101020C212046FFF70E
:103950007DBB3EB50C4605460221FFF7FAFC28BBAD
:10396000012301AA0A21FFF76AFEF8B9FFF7E6FF73
:103970000B21FFF764FEC8B900F0B1FA0C21FFF784
:103980005EFE98B900F0D8FB80B901236A460D218C
:10399000FFF755FE50B900F01BF95E21FFF74FFE0F
:1039A00020B901230DF10502FFF748FE9DF805102F
:1039B000C1F34011E1B118BB01230DF107020E2143
:1039C000FFF73DFE21789DF8072001F0FB0102F092
:1039D00004021143217098B901230DF106025F2101
:1039E000FFF72DFE9DF80610627861F3820206E073
:1039F000217801F0FB012170627802F0FB02627015
:103A00009DF80020217862F30001217001F0FD0192
:103A10009DF8002002F00202114300F0D5F8920850
:103A200062F3C30100F0D0F8D20862F3041100F091
:103A3000CBF8120962F3451100F0C6F8520962F39F
:103A40008611217001F07F019DF80020920941EA62
:103A5000C211217061789DF8002001F0FE0141EA59
:103A6000D21100F09FF862F3410100F09BF8920838
:103A700062F3C30100F096F8D20862F3041100F07B
:103A800091F8120962F3451100F08CF8520962F3C3
:103A90008611617001F07F019DF80320920941EACF
:103AA000C2116170A1789DF8032001F0FE0141EA86
:103AB000D211A1709DF80420D20862F34101A170D7
:103AC0009DF80420120962F38201A1709DF8042080
:103AD000520962F3C301A17001F0EF019DF80420C7
:103AE000D20941EA0211A1709DF8022062F345114A
:103AF000A17000F063F8A17000F058F8A1709DF873
:103B00000220E178D20862F30001E1709DF8022002
:103B1000120962F34101E1709DF80220520962F33B
:103B20008201E1709DF80220920962F3C301E17005
:103B300001F0EF019DF80220D20941EA0211E17083
:103B40009DF8012062F34511E1709DF801205208B3
:103B500062F38611E17001F07F019DF80120920867
:103B600041EAC211E1709DF801202179D20862F387
:103B70000001217100F084FB21719DF801205209A0
:103B800062F3820121719DF80120920962F3C30161
:103B9000217101F0EF019DF80120D20941EA0211E3
:103BA00021713EBD61709DF80320704701F07F01D7
:103BB0009DF80220920841EAC21170479DF8022048
:103BC000520862F38611704721709DF800207047FB
:103BD00001230DF1030270472DE9FC4F834685B0A8
:103BE0000C46002094B100F0B1FA78B99DF80500B8
:103BF0009DF8141000F07F0040EAC1108DF8050018
:103C000001230DF105026F21FFF7D9FCBBF1000F75
:103C100000F044819DF814509DF814206D08C2F303
:103C2000400705F002010F4305F0040637439DF8F5
:103C3000156005F008031F4305F010029DF81430CD
:103C40004FEA560A1743B2098DF8082005F0200103
:103C50009DF8022002F0FA020F4306F001010A4328
:103C600042EA8A02DB094FEA960902F0F70247EAC4
:103C7000831742EAC9028DF809704FEAD60802F0AC
:103C8000EF0242EA0812370902F0DF0242EA471265
:103C9000730902F0BF028DF8073042EA83129DF8E3
:103CA00008109DF8163002F07F0242EAC1128DF82A
:103CB00002201901F20901F0100444EAC20201F0E5
:103CC000200111439A0841EAC2118DF804104FEA0D
:103CD000D30CC3F3C0040CF002010C430CF004013C
:103CE0000C439DF817200CF008012143DB094FEA33
:103CF000421E41EA03130EF0200119430EF0400367
:103D00001943930841EAC3118DF801104FEAD20E0E
:103D1000C2F3C0040EF002010C430EF004010C4388
:103D20009DF818C00EF008012143D2094FEA4C1348
:103D300041EA021203F02001114303F040030B4358
:103D40004FEA9C019DF8144043EAC1138DF80030FE
:103D5000E40860BB00F0B5F8FFF772F938BB264302
:103D6000F00705D59DF8061001F0DF018DF806106B
:103D700000F0A7F8FFF76AF9C8B902215846FFF723
:103D8000E8FAA0B9012301AA00F097F878B900F089
:103D9000A6F80F2100F092F848B901236A461021D5
:103DA00000F08CF818B900215846FFF7D2FA002825
:103DB00020D19DF804209DF801109DF800009DF889
:103DC000043000F074F89DF8010041EA131101433A
:103DD00000F0CDF99DF8020051EAD21114BF40F075
:103DE000020000F0FD008DF8020001230DF1090230
:103DF00000F063F870B9FFF7A1FD5F2100F05EF8F5
:103E000040B900F064F8FFF71BF918B903A9584648
:103E1000FFF79FFD002841D19DF814109DF8146014
:103E20009DF80C009DF80D3044EA9104254300F004
:103E300037F84AEA050549EA050548EA05059DF807
:103E400007103D430D439DF80C1006439DF80800F4
:103E500005431D4345EAD10545EA51050D4300F0F0
:103E60001FF845EAD30545EA131545EA53159DF8B1
:103E70000E0045EA931505431E4305F001059DF824
:103E8000030055EAD61514BF40F0800000F07F0013
:103E90008DF8030000F01BF8FFF7D8F800F064B9C4
:103EA00045EA911545EA511545EA111570470A434F
:103EB0000243D90841EA531170470E215846FFF7D3
:103EC000C5B801230DF1060213215846704701239E
:103ED0000DF103025821584670478DF80100012367
:103EE0000DF1010270477CB5FFF7A3FB4CB100F068
:103EF0002DF932789DF8051002F0FE0242EAD11247
:103F00003270002D00F0058120BB02212846FFF70A
:103F100020FAF8B9012301AA0E21FFF790FBC8B9D6
:103F2000FFF756FE0F21FFF78AFB98B9FFF706FD52
:103F30001021FFF784FB68B900F0FEF850B900F0DB
:103F40000CF938B900F0FCF820B901230DF1060294
:103F5000FFF774FB9DF80610C1F3401191B9C8B981
:103F600000F0FBF89DF801103278890861F3C30274
:103F7000327078B900F0E4F89DF80010727861F3BF
:103F8000000206E0317801F0F7013170727802F03A
:103F9000FE0272709DF80120317862F3410100F059
:103FA000C7F8520800F0C2F8920862F3C30100F0AB
:103FB000BFF8D20862F3041100F0BAF8120962F3F4
:103FC000451100F0B5F8520962F38611317001F025
:103FD0007F019DF80120920941EAC21131709DF8DC
:103FE0000020717862F3000100F09CF8920862F3FF
:103FF000410100F097F8D20862F38201717000F07D
:1040000045F900F08FF8520962F3041100F08AF8C4
:10401000920962F34511717001F0BF019DF8002013
:10402000D20941EA8211717001F07F019DF80420EC
:10403000D20841EAC21171709DF80420B1781209CA
:1040400062F30001B17001F0FB019DF80420D20978
:1040500041EA820100F062F862F3C30100F05EF809
:10406000520862F3041100F059F8920862F3451106
:1040700000F054F8D20862F38611B17001F07F01AC
:104080009DF80320120941EAC21100F047F8F178C7
:10409000520962F30001F1709DF80320920962F366
:1040A0004101F17001F0FB019DF80320D20941EAC2
:1040B000820100F02FF862F3C30100F02BF85208E0
:1040C00062F3041100F026F8920862F3451100F043
:1040D00021F8D20862F38611F17001F07F019DF89A
:1040E0000220120941EAC21100F014F83179520994
:1040F00062F3000131719DF80220920962F34101DF
:10410000317101F0FB019DF80220D20941EA8201E0
:10411000317176BDF1709DF802207047B1709DF845
:104120000320704771709DF80020704762F3820190
:1041300031709DF80120704700212846FFF709B92A
:1041400001236A465F212846FEF77ABF01230DF15D
:1041500005026F212046FEF773BF01230DF1010216
:104160000E212846FEF76CBF07B0BDE8F08F41EA8C
:10417000500141EA900141EAD00141EA101141EABF
:10418000501141EA90119DF80000014341EA5001AD
:1041900041EA900141EAD00141EA101141EA50118F
:1041A00041EA901101F00101704738B5FFF70AFAB2
:1041B00070BB00F077F858BB00F06EF829789DF8D6
:1041C0000020090961F3000200F023F8490861F3B7
:1041D00004128DF801202978890861F3C30200F0E8
:1041E0001EF8C90861F3041200F013F861F34512D8
:1041F00000F015F8490961F3C3028DF8002038B9C1
:1042000000F07CF820B900F073F808B9FFF70AFA5B
:1042100032BD8DF8002029789DF8012070478DF877
:10422000012029789DF80020704738B5FFF7CAF9BA
:1042300028BB00F037F810BB00F02EF89DF80020E6
:10424000297862F30411297000F01AF829709DF89A
:104250000120D20862F38201297000F017F829705A
:104260009DF80120520962F3000129709DF8002099
:10427000D20862F34511297008B9FFF7D3F932BDAE
:104280009DF80120120962F3410170479DF800205A
:10429000120962F3C301704701236A4605212046D3
:1042A000FEF7CEBE01230DF1010204212046FEF7E8
:1042B000C7BE1CB5FFF787F9C8B9FFF7F3FFB0B960
:1042C000FFF7EAFF9DF8011001F0C7018DF801101A
:1042D0009DF8001001F0E6018DF8001038B900F0EB
:1042E0000DF820B900F004F808B9FFF79BF916BDE6
:1042F00001236A4605212046FEF7A8BE01230DF1E1
:10430000010204212046FEF7A1BE70472DE9F841C5
:10431000DFF8F85CB5F92640002C1CBF05F1E80673
:10432000B14295B01BD00F788DF800704F788DF8A2
:10433000017002270DE011F807C0FE0706D595F8B9
:104340008D8004EB0C064645B8BFA4440DF807C0A9
:104350007F1C8742EFD3694601F07CFA01E001F04F
:1043600079FA16B0BDE8F08180B580228DF8002082
:104370008DF80100002300226946022001F06AFA4C
:1043800001BD10B586B00346084600248DF80040F4
:104390008DF80130002104E0535C0DEB0104491C51
:1043A000A3708142F8D3801C002300226946C0B26A
:1043B00001F050FA06B010BD70B5C2B00E461546F9
:1043C000012234008DF800208DF8010004D0FF2276
:1043D0000DF10200FEF79CF9B61C002321AA6946E4
:1043E000F0B201F037FA002004E021A901448A78F4
:1043F0002A54401CA042F8D342B070BD2DE9F043CE
:104400009DB006460C4691461D4668460FF218318F
:10441000102201F043FA482104A8FDF753FB16A827
:104420000FF214311C2201F039FA6879002788B99B
:104430000F228DF80920142318228DF80A308DF8E8
:104440000B201E23272236208DF80C308DF80D20EE
:104450008DF80E00304605284FF0FF0804AE44D812
:10446000DFE810F00600460055009D00E1001F0146
:1044700000F08EF91DF800206B799A180DF80020D5
:10448000401C0E28F6DD0220611C00222254FEB2E0
:104490002B790B547F1C23181A741DF8063026182C
:1044A000801C11287374F1DD122004F1110104F154
:1044B00010031A54FBB27F1C1DF803500D54801CCE
:1044C0002228F4DB002004F1500355422B4400273E
:1044D0001F70921CC7B2401C1DF8071059701F2A8C
:1044E000F1DD0020207084F801801DB0BDE8F0836C
:1044F000522189F80010277084F801800220631C83
:1045000027542A791A54801C5128F9DDEDE700F070
:104510003FF901E0092801DC0121315400F034F9B0
:104520009CBF0221315400F02BF99CBF0321315470
:1045300000F022F99CBF0421315400F013F93CBF74
:104540000521315400F00AF93CBF0621315400F036
:1045500001F93CBF07213154401C2D28DADD00F061
:1045600005F9002000F021F9631C27542A791A5418
:10457000801C1128F9DD0020FBB204AA5B421A441A
:10458000414292F81FC0AA792144503162447F1CF5
:10459000801C4A70002340280B70EDDBA1E700F07F
:1045A000F7F801E0092801DC0121315400F0ECF8B2
:1045B0009CBF0221315400F0E3F89CBF0321315429
:1045C00000F0DAF89CBF0421315400F0CBF83CBF76
:1045D0000521315400F0C2F83CBF0621315400F0EF
:1045E000B9F83CBF07213154401C2D28DADD00F01A
:1045F000BDF8002000F0D1F80020207084F8018080
:10460000FBB20DF157025B42414212F80380AA79D6
:104610002144503142444A707F1C801C00225028A3
:104620000A70EDDB61E700F0B3F801E0092801DC76
:104630000121315400F0A8F89CBF0221315400F050
:104640009FF89CBF0321315400F096F89CBF0421D1
:10465000315400F087F83CBF0521315400F07EF85A
:104660003CBF0621315400F075F83CBF072131549E
:10467000401C2D28DADD00F079F8002000F095F8D4
:104680000021FBB221540DF157025B42A97912F8C7
:1046900003C0621C614411547F1C801C5028EFDD54
:1046A0001FE7422089F80000002001E0092801DC12
:1046B0000121315400F068F89CBF0221315400F010
:1046C0005FF89CBF0321315400F056F89CBF0421D1
:1046D000315400F047F83CBF0521315400F03EF85A
:1046E0003CBF0621315400F035F83CBF072131545E
:1046F000401C2D28DADD00F039F8002000F04DF8DC
:10470000282002210022C7B262540DF157037F42D4
:10471000AA7913F807C0631C62445A54401C891CD0
:104720004029EFDDDDE60000010102020304060876
:104730000B0E13171B1F2CDC080809090A0A0B0BA8
:104740000D0D0F1011121416181A1F23282D333CAB
:1047500043465000A0F12902042A7047A0F1240228
:10476000052A7047A0F11F02052A70471B2216A9CF
:104770000DF13D0001F082B8A0F11902052A704741
:10478000A0F11202062A7047A0F10A02072A704718
:10479000522089F8000000207047315C6A79511876
:1047A0003154401C4728F8DD7047315C6A79511854
:1047B0003154401C4728F8DD02207047DFF84C08D0
:1047C0008069704710B5044600206071A071812196
:1047D0007F2060702170DC220320E270A07001F065
:1047E000A7F860B1022802D0032804D010BD22200F
:1047F000607123210DE0DFF81428907F20B9122189
:104800000120A170207110BD042161710220A071EE
:104810000521217110BD2DE9F84F86B00746FFF73D
:10482000CDFF044680250026DFF84C0C84424FF073
:10483000000828BF64080023012F8DF8108022464D
:1048400057D161208DF810004FF4FA71002001F06B
:1048500051F91FFA80F808F10116A6FB047B3F1EF0
:104860006BF5FA7B264608F580300022A0FB06494E
:104870004FF4FA73101B63EB09018B4503D82CBF6F
:10488000874208F10108FFF799FFDFF8EC1B884227
:104890001CD3FFF793FF00F04EF900F043F9824676
:1048A000FFF78CFFF7B20246781C4FF0000BA0FB1D
:1048B000024910FB0B9900F01DF9A7FB0A234FF0EA
:1048C00074444FF0010917FB0B33E5E0FFF776FF67
:1048D00000F031F900F026F98246FFF76FFF00F093
:1048E00018F9812510FB039900F004F94FF0744486
:1048F000C9E0022F40F0DB80DFF8D00B844210D3F8
:10490000002040F2EE2101F0F5F800F0FAF8DFF8AF
:10491000C03B6325801859418DF8105040F2EE23BA
:104920000FE0002040F2771101F0E4F800F0E9F820
:104930006FF4BB736425801859418DF8105040F214
:1049400077130CF58038A8FB047BD21B63EB0B05B7
:10495000A94204D82CBF90420CF1010800D3E046D4
:10496000FFF72CFFDFF8101B884253D3FFF726FF19
:10497000DFF8601B884240F2011418D2FFF71EFFD7
:1049800000F0D2F800F0CEF88246F7B2FFF716FF3B
:1049900000F0AAF8832510FB0199B4F16E4069F18B
:1049A0000201CDE902014FF06E4002211CE0FFF749
:1049B00005FF024600234FF05C40052101F09AF804
:1049C00000F0B0F88246F7B2FFF7F8FE00F08CF87E
:1049D000822510FB0199B4F15C4069F10501CDE934
:1049E00002014FF05C400521CDE9000107F580721E
:1049F0000021A2FB0A4912FB0199DDE90023141BE7
:104A000063EB0909DDE902234B4550D84ED3A2429E
:104A10004DD24BE0DFF8B40A844218D3FFF7CEFE44
:104A200000F082F800F07EF88246FFF7C7FE00F043
:104A300070F8832510FB0399B4F16E4069F102010F
:104A4000CDE900014FF06E444FF002091DE0FFF781
:104A5000B5FE024600234FF0EE40012101F04AF876
:104A60000646DFF8A805D0F818A0826900F052F8D1
:104A7000842510FB0399B4F1EE4069F10101CDE901
:104A800000014FF0EE444FF0010907F58077002157
:104A9000A7FB0A2317FB0133A01ADDE9007269EBBB
:104AA00003018A4203D828BF874200D2761C4FEA0E
:104AB0000840000E8DF8140005AC9DF8100084F835
:104AC0000180A07005AA03210E20FFF75AFC8DF883
:104AD0001450667005AA02211120FFF752FCDFF87E
:104AE000F809FFF76FFE3FE2024638190021A0FBEC
:104AF00002497047B4F1744069F10101CDE9000148
:104B000070471FFA80FC0CF10112A2FB0401002285
:104B100070470246F7B240F2011038180023A0FB9C
:104B200002497047064649E6024600234FF06E40B0
:104B3000022100F0DFBF024600234FF07440012144
:104B400000F0D8BF01880A0681EA5272C1F347011A
:104B500041EA0221C1F308010180704711B581B01B
:104B6000082401A8FFF7EEFF641EFAD1BDF8040087
:104B700016BDF8B5DFF89444DFF8607904F19405C8
:104B800004F18A06002833463A4629460BD1FFF73E
:104B900035FC30787978814208BF70787870787801
:104BA00084F8C60002E00120FFF728FC3878294687
:104BB00001B0BDE8F04001230022FFF7A7BB7CB5A0
:104BC0007220FFF7D1FBDFF844440023002204F1F8
:104BD000E8011220FFF79AFB04F19405DFF8FC6866
:104BE00004F18A03324629460420FFF707FC307897
:104BF000002300222946FFF789FB32208DF80000B0
:104C000000F00CF800F006F8012084F824000221DE
:104C1000217073BD0121012000F007BE6A46012109
:104C20000120FFF7AEBB00002DE9F84F040086B06D
:104C3000DFF8D85305D195F82A0010B1002129706A
:104C400091E1012000F0F3FD002000F0F0FD687F0D
:104C500040B1B0218DF809100DF1090201216D203C
:104C6000FFF78FFB00F0A9FAA869DFF87478B84263
:104C700039BF3E218DF809102E208DF809000DF165
:104C8000090201216C20FFF77CFB032C00F26181FB
:104C9000DFE814F03300830004000400AE69AA6961
:104CA000DFF84008BE4288BF760800F018FA643882
:104CB0008DF802000121DFF82C08324600F010FACE
:104CC000A0F164018DF803100DF102020221092008
:104CD000FFF757FB81208DF80000032C04BF512003
:104CE0008DF800006A4601211320FFF74AFB2020BF
:104CF00000F015FB2E20FFF744FB042000F00FFB13
:104D00003020FFF73EFB072000F009FB6220FFF791
:104D100038FB6A4601216320FFF74EFB9DF8000037
:104D200000F0FD0000F0FBFA6320FFF72AFBD7201C
:104D30008DF8000000F0CEF9872000F0F0FA762020
:104D4000FFF71FFBFC2000F0EAFA7720FFF719FBC2
:104D5000C8208DF8000000F014F9287F98B1287F52
:104D6000082810DA287F000140F0020000F0D7FA8E
:104D70007920FFF706FB287F052804DB88218DF8C2
:104D8000001000F0FEF8302000F0C9FA3F20FFF7D5
:104D9000F8FA012085F82A00DBE0AC690FF26071B7
:104DA00004A8D1E90023C0E90023BC4288BF6408FD
:104DB00000204FF41671224600F092F91FFA80FA93
:104DC0000AF10116A6FB0479381E69F51671CDE9C2
:104DD00000010AF580320027A2FB04684FF4167325
:104DE000B81B63EB0801DDE900238B4204D82CBF1C
:104DF00082420AF1010600D35646A969D5F818C0C7
:104E0000AA694FF04840B0FBF1F85FFA88F8002338
:104E10009B4618F101006BF1FF31A0FB027910FBFA
:104E20000399B7F14847C64669F100094FF0484079
:104E3000AEFB0C23801A9941894503D82CBF8742C9
:104E400008F10108AA69DFF89C0600F048F9A0F112
:104E500064038DF800300121DFF88806224600F057
:104E60003FF9A0F164028DF8012002216A46092071
:104E7000FFF787FA3004000E03AF8DF80C007E7048
:104E80002120B87003AA03210E20FFF77AFA8DF8CB
:104E90000CB087F8018003AA02211120FFF771FAF4
:104EA000DFF828168C4227BF88228DF80820682159
:104EB0008DF8081002AA01211320FFF762FA04AA54
:104EC00005212E20FFF75DFA40208DF8100004AA7E
:104ED00001212B20FFF755FA04AC2720B2218DF8D1
:104EE0001000617004AA02213520FFF74AFA402021
:104EF0008DF8100084F801B004AA02213920FFF7D0
:104F000040FA00F034F81F20FFF73BFA072000F0CA
:104F100033F81820FFF735FA702000F02DF8212023
:104F2000FFF72FFA202000F027F8FFF72AFA00F009
:104F30001EF81420FFF725FA882000F01DF87620CF
:104F4000FFF71FFA00F013F87720FFF71AFA85F839
:104F50002AB00021DFF88405817005F18A00FFF78F
:104F600031FC00F0D1FA002007B0BDE8F08F8DF8D9
:104F700008B002AA012170478DF8080002AA012199
:104F800070476A4601216420FFF7FBB980B500F045
:104F900094FA012000F04BFCDFF84C05017905295B
:104FA00004BF00220271002101708172002002BD45
:104FB00070B504461546002000E0401CC2B2AA426B
:104FC000FBD3080003D0114E96F8240008B131201D
:104FD00070BD0846FFF71FFC0020B073B4607580F9
:104FE000FFF7EDFD00F055FA002086F8200001E003
:104FF00000F092FA96F820000028F9D0002186F8F7
:105000002010002086F8240070BD000094030020CA
:105010002DE9F84FDFF8D454AA6904464FEAD42B9F
:105020004FEA445A5046594600F05AF8AB69AA690B
:1050300006460027701C67F1FF31A0FB028901FBC7
:105040000299B8EB0A0069EB0B01A6FB0389BAEBE6
:1050500008026BEB0909494502D82CBF9042761C27
:10506000A400DFF88C14DFF810048C4206D3AA6980
:10507000824228BF402405D2202406E0A96981424B
:1050800002D36024002501E0402404256A46012162
:105090006520FFF791F99DF8000000F0FB00054343
:1050A0008DF8005000F016F8300E310C320A00F086
:1050B0000F008DF801108DF8022004438DF8004098
:1050C0008DF803606A4604210520FFF75AF9002095
:1050D000BDE8F28F6A4601216520FFF752B9012130
:1050E000002300F007BD2DE9FC47824601A8884651
:1050F000002701AC076001212020E170A070154657
:1051000001AA00F012F902218DF8041001AAFFF79C
:1051100086FD0021FFF77FFD7120FFF725F900F0E4
:1051200047F8DFF8C89309F1210689F820700221B9
:10513000F17000F0B9F903E0A078810648BF0127BB
:10514000307800B167B300F0E7F999F82000002843
:10515000F6D0002189F8201000F02AF8E078C10785
:10516000EAD500F0C7F99DF800105246FF20FFF77E
:1051700023F909F110020121A220FFF71DF999F985
:10518000100096F907100918A1F19202A8F8002062
:1051900000F013F80020F07001212970BDE8F687B7
:1051A00000F08BF900F009F80020F0702870F5E7A6
:1051B00001AA0421FA20FFF7FFB80021002000F027
:1051C00034BB2DE9F8468A460021DFF820430091E0
:1051D0008146A569A848854228BF6D0840208DF802
:1051E0000200102317468DF8003000F09DF80221D0
:1051F0008DF80010FFF712FD0021012004F12206B6
:1052000000F013FB96F9061096F90700AAF16E025A
:10521000521A121A8DF8002001216A461820FFF751
:10522000B0F8802000F07BF83920FFF7AAF8A5FB42
:1052300009014FF47A72FFF753FF40F2BA42FFF7C9
:105240004FFF451C61F1FF3928464946FF22FFF711
:1052500047FF8DF801009DF801000128C7BF401EDF
:105260008DF8010001218DF801109DF80120521CDC
:1052700028464946D31700F03DFC8DF800006A46E9
:1052800002214620FFF77DF80420B070012139701B
:105290007120FFF769F86A46FFF78BFF002084F85A
:1052A000200000F001F901E000F036F994F8201038
:1052B000002904BF30780028F6D094F8200080B18F
:1052C000002184F820106A46FFF773FF9DF8020062
:1052D000410602D500F0F1F803E09DF80000C10698
:1052E0000ED430780028D3D00021317000203870DF
:1052F0003878012806D10020009000F015F808E069
:105300000120F4E7012000F092FA00F064FA002096
:105310003072FFF752FF0020B070BDE8F2868DF8C2
:1053200000006A46012170476A4604215020FFF7B9
:1053300028B800006D4981F8210070476B490120B1
:1053400081F822007047000070B5684C94F8240082
:1053500001281CBF94F82400052803D0012184F8FB
:10536000201070BD00F020FD002875D15B4D01209C
:10537000A87004F194062078E188801E062804F1C4
:105380008A0367D8DFE800F0512E42251C13040081
:1053900000F093F87220FEF7E7FF0121002000F0F3
:1053A00044FA00202070012184F8201052E00123EB
:1053B000002204F1E8014220FEF7A8FF082041E0A6
:1053C0002A4631460320FFF719F800F04BF8072072
:1053D00038E02A4631460220FFF710F800F042F884
:1053E00006202FE0A268A088105C00F036F8E08864
:1053F000C0B90720E080A0886188401CA08080B2EE
:10540000884227D10020A080052122E0A08900F059
:1054100024F8E08830B90820E080A089FFF79EFBDF
:10542000A08117E0401EE08014E02A4631460520A6
:10543000FEF7E4FF00F016F8A07B012804D1082154
:10544000E1800420207005E00021A1800720E08099
:10545000032121700020A87070BDC84000F0010039
:10546000FFF787BB2878012300223146FEF74EBFA5
:105470001E4988610020704781C3C9011B49887794
:1054800000207047194890F88C0070471748807BBF
:10549000704780B51549887F00280CBF0120022085
:1054A00000F081FC602004E080B5032000F07BFC6C
:1054B0006120FEF759FF002002BD80B56720FEF78E
:1054C00053FF002000F06FFC002002BD21D77501C2
:1054D00012FDFFFF200DE4021E040020A87A002028
:1054E00080C3C901000074B7B403002094030020F6
:1054F00000A493D66A4601219020FEF75DBF00000C
:10550000000000000F0000007047704700F0AEBEC2
:1055100000F0D3BB00F0D2BB38B5DFF840432079B0
:1055200098B1607988B900F0C8FBEFF3108572B6C6
:10553000A07930B901214FF4804000F02DFF00F038
:1055400095FE85F3108800F0B9FBA07918B1FFF73C
:10555000FBFE0020A07131BD80B500F028FCBDE845
:105560000240BF4800F03DBFF8B50446BC4FBD48FF
:10557000BA4DBD4E3860FFF7EFFF0120A870002242
:105580003868C16801F0800161F49061C1604FF436
:105590008010B6490860EA6043F67F614FF6FE72FC
:1055A000304600F08CFB3068C16849084900C16092
:1055B000304600F064FF304600F03AFF304600F01D
:1055C00092FFB5F9081061434FF47A730022B1FBE2
:1055D000F3F1384601F018FB28780028FCD0316838
:1055E0004F6A00202870BFB2304600F0B0FFB5F916
:1055F0000800444394FBF7F02881F1BD80B5FFF724
:1056000045FF18B995490120887101BDBDE80140E9
:10561000FFF79ABE10B50446FFF79EFF204601F043
:1056200056FB8E4CE06888B901212170002262701F
:10563000A07888B1E07820B1E270BDE81040FFF7B3
:105640007DBEBDE810400120FFF774BEE06800F0A9
:1056500081F82069401C206110BD01F0A5BB40F21B
:10566000F512904201DB112070478148086000204C
:1056700070470020704700230380002008801080BE
:105680007047000080B5032812D8DFE800F002025E
:105690000A02FFF7F7FE4000C0F5FA70FFF7DDFFE2
:1056A00006E0FFF7EFFE4000C0F5FA6001F07CFB7A
:1056B000002002BD1CB59DF81040009402F0ECF8EB
:1056C000002016BD072102F03DB9072102F041B9C3
:1056D000F8B50646614C012060714FF6FF756078A1
:1056E000B8B14FF47A506A460DF10201704300F0F0
:1056F000A0FABDF80020BDF802005B4CAA182D18D6
:1057000092B2A9B2204600F0DAFA204600F02AFF51
:105710001EE0FFF721FF0120A07000F045F8236193
:1057200001216170E1704FF47A77B4F908104E43AB
:1057300096FBF7F1A94203D94E4B5B1829467B43F0
:10574000B4F90820B3FBF2F2E260002201F05CFA47
:105750000020F2BD70B504460020FFF7EBFD3F4D81
:1057600000202870222C08BF2424FFF7F5FE01201A
:10577000A87000F019F82B6101216970B5F90820B3
:1057800054434FF6FF72944283BF3A490E191446B0
:1057900000260022214601F037FAB5F90800B6FBD1
:1057A000F0F0E860002070BD00232D480168CA6851
:1057B00002F0800262F49062CA604FF480112B4ABA
:1057C0001160704780B5264801F081FA2348002116
:1057D0004170002002BD10B5204CE07830B1204867
:1057E00001F075FA00216170E17002E01E4800F0DE
:1057F000F2FE0020607110BD10B5184C01E0FFF7FB
:105800008BFE20780028FAD000210BE080B500F054
:10581000A1FB002002BD000010B50C4602F059F8B3
:10582000154801782170002010BD00F0E7B980B55F
:10583000012806D102F0AEF9BDE80240002002F0D6
:10584000D1BA02F0D0FA012002F0CCFABDE8014052
:1058500002F0A6B9002300F078BA0000740300201B
:10586000FC79002000280040EC7000201404014066
:10587000386D00200100FFFFB17A002062B38B0772
:1058800008D0521E11F8013B00F8013B00F02480C3
:105890008B07F6D1830740F0208000BF103A07D372
:1058A00030B4B1E83810103AA0E83810F9D230BC62
:1058B000530724BFB1E80810A0E8081044BF51F80E
:1058C000043B40F8043BD20724BF31F8022B20F8F8
:1058D000022B44BF0B7803707047121F17D35B0075
:1058E00009D151F8043B20F8023B1B0C121F20F891
:1058F000023BF6D20BE051F8043B00F8013B1B0AD7
:1059000020F8023B1B0C121F00F8013BF3D238BFFA
:10591000121D521E24BF11F8013B00F8013BF8D8BC
:10592000704770475E49887070475D49487070479E
:105930005B48407870470000F8B52DED028B8AB0C7
:10594000584C002002E09DF80000401C8DF800003B
:105950009DF80000FF28F6D10DF1010201218E20F3
:1059600002F052FA02F070FA20784008E9D10DF105
:1059700001020121F12002F047FA494C9DF8010093
:105980002070812814BF912802F004F900F098F8E3
:10599000454F48B902F004F900F079F800286CD1BD
:1059A000384602F063FA68E002AB202200210020B2
:1059B00002F07EF99DF80800002818BFFF289FED2F
:1059C000378A0AD102F0C3F92078812814BF9128C0
:1059D00002F0E6F800F05BF855E002AE707860B1D6
:1059E00001280CD002280CD003280CD004280CD09D
:1059F00005280CD0FF280CD01AE02C4815E02C48C4
:105A000013E02C4811E02C480FE038460DE02B48FD
:105A10000BE00195002001AD02A9424211448B7FA9
:105A20002B54401C0328F7DD019802F01FFA01E017
:105A300000F02DF89DF82700012804BF0121E17036
:105A4000F078A07002AB9DF80D0060700422212157
:105A5000002002F02DF900208DED018A0DF10B01DF
:105A600001AD42428B5C2B54401C0328F9DD9DEDB7
:105A7000010ABDEEC00A84ED010A2078812814BF16
:105A8000912802F08DF80AB0BDEC028BF1BD10B583
:105A9000054C204602F0EAF9204610BD0000000047
:105AA000D4040020AC7A002080F0FA0200366E01A7
:105AB00040787D0180BA8C01006CDC02007519030E
:105AC00080B5002002F024F9012811D0002002F056
:105AD000ADF8012001F068F9002002F08BF80120F8
