:020000040800F2
:10000000783A002085640108015D0108035D01085C
:1000100000000000000000000000000000000000E0
:10002000000000000000000000000000055D010865
:100030000000000000000000075D0108095D0108E4
:100040008731000807390008115D0108874600085C
:10005000EB4600081B5D0108275A0008255D0108D2
:100060003F5E0008636000083B5D01089760000880
:100070005F6500080F7F0008D77F0008DB7F00085E
:1000800087A6000863B400081BBB0008000000003E
:1000900007BF0008EBCD000813DD00083FE20008B1
:1000A0003BFB00084B5D01080B1F0108555D010873
:1000B000972901089B2A0108A32B0108432C01085A
:1000C00010B50400A0686468A04710BD10B5040016
:1000D000A0682468A04710BD38B505000C000123B6
:1000E0006A461021FFF7ECFF00280FD16846007820
:1000F000F3210140A0000C2202400A43684602702E
:1001000001236A4610212800FFF7E0FF32BD1CB52D
:100110000C0001236A461021FFF7D2FF03216A4633
:100120001278920800F06DFABCB507000D002C00A3
:1001300000A9891C00F0C7FA002855D100A9891C24
:100140004A78087843080343800818430B78DB0893
:1001500003430878000918430B785B0903430878C8
:100160008009184310435308034390081843D308E9
:10017000034310091843530903439009184301230B
:10018000034008780243D009184301282ED100A962
:10019000491C380000F0A7FA002825D169464978A3
:1001A000002905D002290DD006D3032912D01BE067
:1001B000002D1BD1012419E0290001D0012D15D1FA
:1001C000022413E0290003D0012D01D0022D0DD10E
:1001D00003240BE0290005D0012D03D0022D01D00E
:1001E000032D03D1042401E0002805D101236A4630
:1001F00010213800FFF764FF00280DD16846007811
:100200000007000F210101436846017001236A467F
:1002100010213800FFF75AFFB6BD00001CB50C00D6
:1002200001236A461021FFF74BFF69460978090947
:10023000491E0A291ED801A2525C97440A0E1216C2
:100240001A1E22262A2E3200012114E0022112E079
:10025000032110E004210EE005210CE006210AE054
:10026000072108E0082106E0092104E00A2102E054
:100270000B2100E00021217016BD38B505000C00EF
:1002800001236A461121FFF71BFF00280FD16846A2
:100290000078F121014060000E2202400A436846C6
:1002A000027001236A4611212800FFF70FFF32BDBB
:1002B0001CB50C0001236A46112100F020F9BCB5E1
:1002C00007000D002C0000A9891C00F0FCF9002893
:1002D00055D100A9891C4A7808784308034380084F
:1002E00018430B78DB0803430878000918430B78A0
:1002F0005B090343087880091843104353080343FC
:1003000090081843D30803431009184353090343C3
:10031000900918430123034008780243D009184389
:1003200001282ED100A9491C380000F0DCF9002872
:1003300025D169464978002905D002290DD006D378
:10034000032912D01BE0002D1BD1012419E0290044
:1003500001D0012D15D1022413E0290003D0012D75
:1003600001D0022D0DD103240BE0290005D0012D71
:1003700003D0022D01D0032D03D1042401E0002875
:1003800005D101236A4611213800FFF799FE0028A4
:100390000DD1684600780007000F2101014368462F
:1003A000017001236A4611213800FFF78FFEB6BDA8
:1003B0001CB50C0001236A461121FFF781FE694636
:1003C00009780909491E09291BD801A2525C9744E2
:1003D000080C1014181C2024282C012112E00221E2
:1003E00010E003210EE004210CE005210AE00621C3
:1003F00008E0072106E0082104E0092102E00A21C3
:1004000000E00021217016BD38B505000C00012365
:100410006A461221FFF754FE00280FD16846007883
:10042000BF210140A00140221040084369460870E6
:1004300001236A4612212800FFF748FE32BD1CB591
:100440000C0006236A46222104E01CB50C0006239A
:100450006A462821FFF734FE69464A782280120254
:100460000B78D2182280CA78628012028B78D21858
:1004700062804A79A280120209795118A18016BDC2
:1004800038B505000C0001236A460121FFF718FE6C
:1004900000280DD1684600788006800EA101014336
:1004A0006846017001236A4601212800FFF70EFE0D
:1004B00032BD80B50A0001230F211DE038B50500CB
:1004C0000C0001236A461221FFF7FAFD00280FD124
:1004D00068460078FB210140A00004221040084338
:1004E0006946087001236A4612212800FFF7EEFDD5
:1004F00032BD0A0001231E21FFF7E2FD02BDFFF716
:10050000DFFD694609780907490F012906D002294C
:1005100004D0042902D0062900D00021217016BD84
:1005200038B505000C0001236A461821FFF7C8FD05
:1005300000280ED168460078FD210140E009400006
:1005400008436946087001236A4618212800FFF70E
:10055000BDFD002806D1012300AA521C62212800FB
:10056000FFF7AEFD002810D168464078E721014032
:10057000E000182202400A4368464270012300AAA4
:10058000521C62212800FFF7A1FD32BD38B50500DD
:100590000C0001236A465B21FFF792FD00280ED173
:1005A00068460078C0210140A006800E08436946D5
:1005B000087001236A465B212800FFF787FD32BDE2
:1005C00038B505000C0001236A465C21FFF778FD71
:1005D00000280FD1684600789F2101406001602209
:1005E00002400A436846027001236A465C212800E3
:1005F000FFF76CFD32BDFFF763FD03216A461278F9
:1006000052090A40012A04D007D3032A06D002D394
:1006100003E0012102E0022100E00021217016BD6B
:1006200038B505000C0001236A465921FFF748FD43
:1006300000280FD1684600789F21014060016022A8
:1006400002400A436846027001236A465921280085
:10065000FFF73CFD32BD002803D100212800FFF741
:100660000FFF32BD38B505000C0001236A460A2190
:10067000FFF726FD00280ED168460078F8210140DA
:100680006007400F08436946087001236A460A2143
:100690002800FFF71BFD32BD002803D100212000F8
:1006A000FFF7EEFE32BD38B505000C000221FFF762
:1006B000E7FE002805D101236A4612212800FFF732
:1006C000FFFC00F037F838B504000D000221FFF7F9
:1006D000D7FE002805D12A00022346212000FFF77B
:1006E000EFFCFFF7D9FF38B505000C000221FFF73A
:1006F000C7FE002805D101236A465F212800FFF7C5
:10070000DFFC002815D1032069460978C90801409B
:10071000012904D007D3032906D002D303E0012026
:1007200002E0022000E00020207000212800FFF7F6
:10073000A7FE32BD002808D168460078C006C10F68
:10074000217000212800FFF79BFE32BD002803D155
:1007500000212000FFF794FE16BDF6B585B0050018
:100760006846007D400802270124202669460A7D4C
:10077000012111406A46137D02221A400A430421D6
:1007800001401143082202400A4310210140114355
:1007900030400843D9098901014305A84078C001C8
:1007A00008436946C87005A84078410805A88078C4
:1007B00001230B4004220A401A4308230B40134331
:1007C00010220A401A433140114305AA5278D20937
:1007D00092010A43C10111436A4611708100082247
:1007E0000A4010230B401343314019430209D20140
:1007F0000A4369468A7105A9C978CA006B465A70CE
:1008000042099A706A469278012313409C466A46D0
:10081000937802221A4063461A43C00980001043AD
:100820006A46527808231A400243684643781020EB
:100830000340134368464078304018436A46527874
:1008400040231A4002430809C00110436A469070D1
:1008500005A80079C2006B465A704B0901221A4064
:10086000944602221A4063461A43C909890011437B
:100870006A46527808231A400A4369464B78102189
:100880000B40134369464978314019436A46527810
:1008900040231A400A430009C001104369464870CA
:1008A000012301AA13212800FFF70AFC002817D111
:1008B0006846007D05A949780143880820426846BA
:1008C000007903D006436846067103E0DF2101404A
:1008D00068460171012301AA13212800FFF7F6FBE6
:1008E000002803D102212800FFF7CAFD002806D105
:1008F000012301AA921C0A212800FFF7E7FB002828
:1009000006D1012300AA921C0B212800FFF7DEFB71
:10091000002806D1012300AA521C0C212800FFF751
:10092000D5FB002803D100212800FFF7A9FD0028EE
:100930005ED1684680796946897801436846407887
:100940000843C009694689794A0969468979C9080D
:1009500011436A46927912090A436946897811431C
:100960006A46927852080A43694689788908114391
:100970006A469278D2080A43694689780909114380
:100980006A46927852090A43694689788B0913436B
:100990006946497819436A46527852080A436946BB
:1009A0004978890811436A465278D2080A43694651
:1009B0004978090911436A46527852090A4369463F
:1009C00049788909114301220A40024368460078A8
:1009D00003D007436846077003E0FD2101406846E5
:1009E0000170012300AAD21C0D212800FFF76EFB25
:1009F000002805D101236A465E212800FFF766FB27
:100A0000002805D1012302AA0E212800FFF758FB78
:100A1000002810D16846007AFB2101406846007D1D
:100A200004221040084369460872012302AA0E21DD
:100A30002800FFF74BFB002806D1012301AAD21C96
:100A40005F212800FFF73CFB002812D16846C079DF
:100A5000FE21014005A840788008012202400A4397
:100A60006846C271012301AAD21C5F212800FFF74A
:100A70002DFB002806D1012301AA521C5821280071
:100A8000FFF71EFB002804D103AA0021280000F074
:100A900054FC00286CD103A94A7808786B46DB78AF
:100AA0000343684600781843C0090B789E08DB08AA
:100AB00033430E7876081E430B789B0933430E7838
:100AC00076091E4309780909314353080B439108FD
:100AD0001943D3080B431109194353090B439109D7
:100AE00019436A46D27892080A436946C978890947
:100AF00011436A46D27852080A436946C9781143BD
:100B00006A46D27852090A436946C97809091143ED
:100B10006A46D278D2080A436946097811436A4680
:100B2000127892080A4369460978C90811436A464F
:100B3000127812090A4369460978490911436A463D
:100B4000127892090A43144004436846407904D05D
:100B5000802101436846417103E04006400E69462A
:100B60004871012301AA521C58212800FFF7AEFA50
:100B700007B0F0BDFEB505000C000221FFF780FCB8
:100B8000002805D1012301AA0A212800FFF798FABD
:100B9000002806D1012300AA921C0B212800FFF790
:100BA0008FFA002806D1012300AA521C0C2128002C
:100BB000FFF786FA002803D100212800FFF760FC28
:100BC000002805D101236A460D212800FFF778FA95
:100BD000002806D1012300AAD21C5E212800FFF7BD
:100BE0006FFA002806D1012301AA921C13212800C4
:100BF000FFF766FA694689794909C90723D50028AC
:100C00000ED1012302AA0E212800FFF759FA2178FC
:100C1000FB220A406946097A0423194011432170D6
:100C2000002817D1012301AAD21C5F212800FFF759
:100C300047FA6178FB220A406946C9798900042392
:100C40001940114305E0FB2122780A4022706278A6
:100C5000114061702178FE220A4069460B78D9075D
:100C6000C90F11432170FD220A4069460B78022109
:100C70000B40134323700821F72213406D462D7853
:100C80006E000E401E4326701023EF252E406F4647
:100C90003F787F001F4037436E4677712770767923
:100CA000DF273740BC466E463678760020273E4028
:100CB00067463E436F467E716E46767926706E4675
:100CC0007679BF273740BC466E4636787600402797
:100CD0003E4067463E436F467E716E46767926708B
:100CE0006E4676797606760E3F78BF09FF01374368
:100CF00027706678FE2737406E463678F6093E4301
:100D00006670FD273740BC466E46F67876000227AF
:100D10003E4067463E43667016406F46FF787F0050
:100D20000F40374367702F406E46F67876003340A9
:100D30003B436370DF261E406B46DB785B00202759
:100D40003B4033436370BF261E406B46DB785B003D
:100D500040273B40334363705B065B0E6E46F6787C
:100D6000B609F6011E436670A678FE2333406E4630
:100D7000F678F6091E43A670FD2333406E46367999
:100D8000B708022637401F43A770FB231F40BC460D
:100D90006E463679B60804273E4067463E43A67045
:100DA00016406F463F79BF080F403743A7702F406A
:100DB0006E463679F60936013E43A670DF27374086
:100DC000BC466E46B678760120273E4067463E43D5
:100DD000A670BF273740BC466E46B67876014027DE
:100DE0003E4067463E43A6707606760E6F46BF7855
:100DF000BF08FF013743A770E678FE273740BC469F
:100E00006E46B6783707FE0F67463E43E670FD270D
:100E10003740BC466E46B678F60802273E40674625
:100E20003E43E6701E40B4466E46B678F708042688
:100E3000374066463743E77017406E46B678F60887
:100E40000E403E43E6702E406F46BF78FF093F01DB
:100E500037433E00E670DF273740BC466E46767863
:100E6000760120273E4067463E43E670BF27374065
:100E7000BC466E467678760140273E4067463E4344
:100E8000E6707606760E6F467F78BF08FF0137431F
:100E9000E7702679FE273740BC466E4676783707DE
:100EA000FE0F67463E432671FD273740BC466E461F
:100EB0007678F60802273E4067463E432671334067
:100EC0006E467678F60804273E401E43267132406F
:100ED0006B465B78DB081940114321710D40694670
:100EE0004978C909090129432171FEBDFCB587B0C4
:100EF00004000D000020002D19D0012301AA921C2E
:100F00006F212800FFF7DCF8002810D168468079AF
:100F10004006400E6946097FC90101436846817158
:100F2000012301AA921C6F212800FFF7CFF8029439
:100F3000002C00D1FFE16946097F49086A4691709B
:100F400002250124102269468B78012119406B4645
:100F50009E78022333400B43314604263140194327
:100F60006B469B78082633400B43694689781140CD
:100F700019436B469B78202633400B436946097F13
:100F8000C909890119436B46D97407A949788909A8
:100F9000997407A949784909597407A94978090931
:100FA000197407A94978C908D97307A94978890824
:100FB000997307A94978490859737F266946CB7800
:100FC000FA21194007AB5F7801233B400B43694688
:100FD000497B8F001F43F72139406B469B7BDB0029
:100FE0000B43EF2119406B46DB7B1B010B43DF21D9
:100FF00019406B461B7C5B010B43BF2119406B46BC
:101000005B7C9B010B4333406946897CC9011943D2
:101010006B46D97007A989780B0107AF7F78FF0964
:10102000FF001A403A4320273B4013438A08D2016D
:101030001A436B465A7107AAD27853016F467B70E8
:10104000CB083B706B461B7801271F40BC466B46A4
:101050001F7802233B4067463B439C466B461B7808
:1010600004273B4067463B439C466B461F7808235A
:101070001F4063461F43C909090139436B465B782A
:1010800020273B400B4369464978402739401943A4
:101090009308DB010B4369464B7007A909794B01A3
:1010A0006F463B73D3083B706B461B7801271F408C
:1010B000BC466B461F7802233B4067463B439C4639
:1010C0006B461B7804273B4067463B439C466B4678
:1010D0001F7808231F4063461F43D20912013A4379
:1010E0006B461B7B20273B4013436A46127B4027FD
:1010F0003A401A438908C90111436A46117069468A
:10110000097FCF0800281AD1012301AAD21C13217C
:101110000298FEF7D5FF002811D107A84078384380
:10112000204205D06846C079DF2101406846C17180
:10113000012301AAD21C13210298FEF7C7FF002841
:1011400003D102210298FFF79BF9002806D1012361
:1011500001AA521C0E210298FEF7B8FF002806D102
:10116000012300AA521C0F210298FEF7AFFF0028AE
:1011700005D101236A4610210298FEF7A7FF002837
:1011800003D100210298FFF77BF900285ED1684661
:101190004079694649780143684600780843C009A8
:1011A0006946497949096A465279D2080A4369462B
:1011B0004979090911436A4652780A4369464978D0
:1011C000490811436A46527892080A4369464978A9
:1011D000C90811436A46527812090A436946497898
:1011E000490911436A46527892090A4369460978C7
:1011F00011436A46127852080A43694609788908F9
:1012000011436A461278D2080A43694609780909E7
:1012100011436A46127852090A43694609788909D6
:10122000114301220A4002436846C07803D00543B7
:101230006846C57003E0FD2101406846C170012386
:1012400004AAD21C0E210298FEF740FF002806D106
:10125000012300AAD21C5F210298FEF737FF002865
:1012600005D1012301AA58210298FEF729FF002881
:1012700003D105A90298FFF77DFC00285BD105A9E1
:101280004A786846007F0B7803431343D8096B46BE
:101290001B7F9B081F436B469B783B436D462D7F0E
:1012A000AD091D436B461B7F5B092B436D462D7FAC
:1012B0002D091D436B465B7B2B436D46AD7B1D4368
:1012C0006B46DB7B2B436D462D7C1D436B465B7C65
:1012D0002B436D46AD7C1D4315430B78DB082B4338
:1012E0000D786D081D430B782B430D78AD091D4318
:1012F0000B785B092B430D782D091D43D3082B4335
:1013000015091D4353092B4392091A438978114348
:101310000C4004436846007904D0802101436846AC
:10132000017102E0064068460671012301AA5821B6
:101330000298FEF7CBFE09B0F0BDFEB506000F0027
:1013400014000020FE25002F0DD0012301AA521CFD
:101350006F213800FEF7B4FE217829406A465279A1
:10136000D2090A432270370000D18CE1002803D152
:1013700002213800FFF784F8002805D1012301AAD3
:101380000E213800FEF79CFE002806D1012300AA9A
:10139000D21C0F213800FEF793FE002806D101234E
:1013A00000AA921C10213800FEF78AFE002803D103
:1013B00000213800FFF764F8002806D1012300AAB5
:1013C000521C0E213800FEF77BFE002805D10123B8
:1013D0006A465F213800FEF773FE002806D101231C
:1013E00001AA921C13213800FEF76AFE0126694605
:1013F00089794909314223D1002810D1012300AA5B
:10140000521C0E213800FEF75BFE2278F7211140B6
:101410006A4652785300082213400B432370002879
:1014200015D101236A465F213800FEF749FE617835
:1014300029406A461278012313400B43637006E08B
:101440002178F7220A402270617829406170217862
:10145000FD220A4069464978490002231940114398
:101460002170FB2211406B465B785B0004273B40F8
:101470000B432370F72119406B465B785B0008270C
:101480003B400B432370EF2119406B465B785B00B8
:1014900010273B400B432370DF2119406B465B78DC
:1014A0005B0020273B400B432370BF2119406B4654
:1014B0005B785B0040273B400B4323705906490E85
:1014C0006B465B789B09DB010B43237063782B40F1
:1014D00069460F780121394019436170FD230B40A3
:1014E000694609784908022739401943617011405B
:1014F0006B461B785B0804273B400B436370F72166
:1015000019406B461B785B0808273B400B43637010
:10151000EF2119406B461B785B0810273B400B43BB
:101520006370DF2119406B461B785B0820273B4026
:101530000B436370BF2119406B461B78DB099B018D
:101540000B4363705906490E6B461B79DB08DB01C0
:101550000B436370A17829406B461B791F09012357
:101560003B400B43A370134069460979C9098F00BA
:101570001F43A770F72139406B46DB78DB00082753
:101580003B400B43A370EF2119406B46DB78DB0037
:1015900010273B400B43A370DF2119406B46DB78DB
:1015A000DB0020273B400B43A370BF2119406B4653
:1015B000DB78DB0040273B400B43A3705906490E04
:1015C0006B46DB781B09DB010B43A370E1782940F4
:1015D0006B46DB785F0901233B400B43E370FD2141
:1015E00019406B46DB785B0902273B400B43E370F5
:1015F00013406946C978C9098F001F43E770F72176
:1016000039406B469B78DB0008273B400B43E37077
:10161000EF2119406B469B78DB0010273B400B43C2
:10162000E370DF2119406B469B78DB0020273B40AD
:101630000B43E370BF2119406B469B78DB004027CA
:101640003B400B43E3705906490E6B469B781B09E0
:10165000DB010B43E37021790D4069468978490924
:101660000E402E432671FD2131406B469B785B096D
:1016700002252B400B4323711A4069468978C9091A
:10168000890011432171FEBDFEB505000C00022149
:10169000FEF7F6FE002806D1012300AA521C042101
:1016A0002800FEF70DFD002846D1019401236A466B
:1016B00005212800FEF704FD69460978FE220A404C
:1016C00001990978C906CB0F134369460B701023A3
:1016D000EF2449782140019A1278D2001A400A4337
:1016E00069464A700821F7226E4676781640019FB7
:1016F0003F787F000F4037436E467770367834402E
:10170000019E36787600334023436C4623706B4647
:101710005C78DF232340019C247864012026344038
:101720001C436B465C701B781A40019B1B789B081E
:10173000194011436A461170002806D1012300AAFE
:10174000521C04212800FEF7C1FC002805D101230A
:101750006A4605212800FEF7B9FC002803D10021C4
:101760002800FEF78DFEFEBD38B505000C000221F5
:10177000FEF786FE002806D1012300AA521C042190
:101780002800FEF79DFC00283BD101236A46052175
:101790002800FEF795FC2278EF2111406A46127866
:1017A000120110231A400A432270FD2111406A469B
:1017B0005278D20802231A400A432270FB211140BA
:1017C0006A465278520804231A400A432270F721CD
:1017D00011406A461278520808231A400A432270C0
:1017E000FE2111406A4652789306DA0F0A432270AE
:1017F000DF2111406A461278920020231A400A43E2
:101800002270FEF728FF1CB504000221FEF738FE07
:10181000002806D1012300AA521C04212000FEF753
:101820004FFC002810D101236A4605212000FEF755
:1018300047FC69464978C7220A4069464A700978D8
:10184000E6220A4069460A70002806D1012300AA50
:10185000521C04212000FEF739FC002805D1012389
:101860006A4605212000FEF731FCFEF76FFFF1B458
:101870000168421841684808131800988068C90731
:101880001ED5494640181BE01778521C0770401CB3
:10189000761EF9D1002C13D01678521C89080D4001
:1018A000032D01D11578521C290271184D4241199E
:1018B000A41C05D00D78491C0570401C641EF9D18C
:1018C0009A420FD01178521C032503260E4002D1F4
:1018D0001678F61C521C0C090F2CD9D114780F3431
:1018E000521CD5E700980C30F2BC7047F8B50C00DC
:1018F0000A22002101F0E6FB07002760904E31002C
:1019000001F0E6FB050000B24643BE1B3000642137
:1019100001F0DEFBE080A58000B264214143701A33
:101920002081F1BD38B50400207801F06BFB050182
:10193000607801F067FB284332BD70B504000D00EC
:101940000020002A03D0022A1AD009D370BD605D9E
:1019500001F058FB06000A2046436019407826E053
:10196000605D01F04FFB060064204643601940783B
:1019700001F048FB0A21484336186019807816E0C8
:10198000605D01F03FFB0600FA20800046436019CD
:10199000407801F037FB642148433618601980789D
:1019A00001F030FB0A21484336186019C07801F075
:1019B00029FB301870BD38B505000C00002200214D
:1019C000FFF7BBFF2080002202212800FFF7B5FFB0
:1019D0006080002204212800FFF7AFFFA08031BD06
:1019E00038B505000C0002220021FFF7A6FFE080B9
:1019F000002204212800FFF7A0FF208100220621F9
:101A00002800FFF79AFF608131BD0000F1B582B078
:101A10000E000024012069460870002E2BD00025FE
:101A2000A94F302168B230225043381801F090FBA2
:101A30006D1C68B23028F4DB0025002001960026DA
:101A400005E00A54401C01E06D1C0124761C01993C
:101A50008A5D0A2A0ED03021694379182C2A01D0D8
:101A60002A2AEED100220A5436A1380001F08CFB5C
:101A70000028E9D0002C5FD00A22002190204000ED
:101A8000381801F01FFB029C012801D0002801D169
:101A900036216054210038003030FFF727FF002145
:101AA0003800603001F088FD2200103203C290201F
:101AB000385C2821605400213800C03001F07CFDE2
:101AC0002200183203C2F020385C292160540A2217
:101AD0000021A8204000381801F0F4FAA086002167
:101AE000C0204000381801F0E3FE20630021D82018
:101AF0004000381801F0DCFE01F0ECFE220020323C
:101B000003C2F0204000385C2A2160540A220021E0
:101B100084208000381801F0D5FA208790208000BA
:101B2000385C3A216054B42080003818FFF7FAFE80
:101B3000206400206946087068460078FEBD0000F9
:101B4000102700002447504747410000F1B584B0FA
:101B50000D0000200290012069460870002D53D02E
:101B60000024594F302160B230225043381801F020
:101B7000EFFA641C60B23028F4DB00260024002158
:101B8000039507E05054491C03E0641C01990120AF
:101B90000290761C0398805D002201920A2831D0C1
:101BA00030226243BA182C2801D02A28EAD100201A
:101BB0005054012545A1380001F0E6FA002800D173
:101BC000019D00BF43A1380001F0DEFA002800D1DA
:101BD000019D00BF41A1380001F0D6FA002800D1D4
:101BE000019D00BF3FA1380001F0CEFA002800D1CE
:101BF000019D00BF3DA1380001F0C6FA0028C4D005
:101C0000002DC2D0029800285CD0049D202239000B
:101C1000280001F079FE2900203138003030FFF72C
:101C200065FE00213800603001F0C6FC2A00303229
:101C300003C22C0048349020385C2070002138000A
:101C4000C03001F0B9FC2A00383203C2F020385C01
:101C5000607090204000385C2072A8204000385C02
:101C600060720A220021C0204000381801F02AFAD0
:101C700060810021D8204000381801F019FEE06092
:101C80000021F0204000381801F012FE01F022FE81
:101C900028646964002184208000381801F008FE5F
:101CA000206190208000385C20759C208000385C8A
:101CB0006075A82080003818FFF734FEA0610198F5
:101CC00069460870BDE10000401A002024475047D3
:101CD0004E530000244741474E53000024424447DE
:101CE0004E53000024515A474E53000024474E479C
:101CF0004E530000F1B582B00E0000240120694669
:101D00000870002E68D00025D04F302168B23022F4
:101D10005043381801F01CFA6D1C68B23028F4DB0F
:101D2000002500200196002605E00A54401C01E031
:101D30006D1C0124761C01998A5D0A2A0ED030217F
:101D4000694379182C2A01D02A2AEED100220A549C
:101D500023A1380001F018FA0028E9D0002C3BD06C
:101D6000029C210038003030FFF7C0FD0021380010
:101D7000603001F09DFDE06000213800903001F0FE
:101D800097FD206100213800C03001F091FD6061B5
:101D900000213800F03001F08BFDA061002190207F
:101DA0004000381801F084FDE0610021A8204000C7
:101DB000381801F07DFD20620021C0204000381855
:101DC00001F076FD6062D82040003818FFF7AAFDC8
:101DD000A06200206946087068460078FEBD0000D9
:101DE0002447504753540000F1B582B00F0000243F
:101DF000012069460870002F7BD0002593483021D0
:101E00006AB230235A43801801F0A2F96D1C68B2FF
:101E10003028F3DB00260025002106E05854491C39
:101E200002E06D1C00210124761CB85D0A2810D048
:101E3000864A30236B43D3182C2801D02A28EDD1B1
:101E4000104600225A5400BF2BA101F09DF9002832
:101E5000E7D0002C4DD0029D7C4C29002000303072
:101E6000FFF744FD6020205C2873002120009030A3
:101E700001F0A2FB2A00103203C2C020205C2821FE
:101E8000685400212000F03001F096FB2A0018323F
:101E900003C290204000205C292168540021A82022
:101EA0004000201801F004FD28630021C0204000FC
:101EB000201801F0FDFC68630A220021D8204000B0
:101EC000201801F0FFF8A8630021F020400020183E
:101ED00001F0EEFCE86384208000205C402168541F
:101EE0009C2080002018FFF71DFD686400206946D3
:101EF000087068460078FEBD244750524D430000EC
:101F0000F1B584B00C0000200190012069460870F2
:101F1000002C57D0002530214C486AB230235A4358
:101F2000801801F015F96D1C68B23028F3DB002130
:101F300000270020039402910024444E09E00A5433
:101F4000401C03E07F1C0020012101910299491CE3
:101F500002910399029A8A5C0A2A31D030237B438A
:101F6000F1182C2A01D02A2AE9D10C54012500BFEE
:101F700037A1300001F008F9002800D1002500BF8A
:101F800035A1300001F000F9002800D1002500BF84
:101F900033A1300001F0F8F8002800D1002500BF7F
:101FA00031A1300001F0F0F8002800D1002500BF79
:101FB0002FA1300001F0E8F80028C3D0002DC1D0D7
:101FC000019800283DD0049D374620223900280082
:101FD00001F09AFC3020385C202168540A2200214C
:101FE0003800603001F06EF8688400260A22002173
:101FF000302060433818903001F064F8A10069186F
:102000004862641C0C2CF1DB0021B42080003818DD
:1020100001F04EFC68650021C0208000381801F0F6
:1020200047FCA8650021CC208000381801F040FC56
:10203000E865D82080003818FFF774FC28666846E9
:1020400006706846007805B0F0BD0000401A002018
:10205000244750475341000024474C475341000058
:102060002447414753410000244244475341000064
:1020700024474E4753410000F1B586B00C000020C4
:1020800003900027012069460870002C5FD00026CD
:10209000634D302170B230225043281801F058F8B7
:1020A000761C70B23028F4DB00200190049402907A
:1020B0002E460AE00A54401C04E00298401C02909C
:1020C000002001270199491C01910499019A8A5C19
:1020D0000A2A3BD0029B30246343F1182C2A01D0FA
:1020E0002A2AE7D100240C54012500BF4DA130005D
:1020F00001F04AF8002800D1002500BF4BA13000B4
:1021000001F042F8002800D1002500BF49A13000AD
:1021100001F03AF8002800D1002500BF47A13000A7
:1021200001F032F8002800D1002500BF45A13000A1
:1021300001F02AF8002800D1002500BF43A130009B
:1021400001F022F80028B8D0002DB6D0002F62D0C0
:10215000069C2021200000F0FDFF002020846084E8
:10216000E084A08400250821200028302A0652158A
:10217000801800F0EDFF6D1C68B20C28F3DB202204
:102180003146200001F0C0FB0A220021534800F034
:1021900099FF20840A220021514800F093FF6084B7
:1021A0000A2200214F4800F08DFFA08401260694EA
:1021B000039F0698F90044181948C0217143451837
:1021C0000A220021280000F07DFF20850A2200213C
:1021D0002800303000F076FF60850A2200212800B8
:1021E000603000F06FFFA0850A22002128009030A7
:1021F00000F068FFE0852820205E002804D00698C3
:10220000C08C401C0699C8847F1C761C052ED0DB30
:102210000020694608706846007807B0F0BD0000ED
:10222000401A0020244750475356000024474C478B
:102230005356000024474147535600002442444768
:102240005356000024515A475356000024474E4726
:1022500053560000F1B582B00D0000270024012084
:1022600069460870002D35D00026A948302172B289
:1022700030235A43801800F06BFF761C70B2302870
:10228000F3DB002600210195002506E05854491C87
:1022900002E06D1C00210124761C0198805D0A2853
:1022A0000FD09B4A30236B43D3182C2801D02A2807
:1022B000ECD110465F5400BF0BA100F065FF002871
:1022C000E7D0002C06D002982022044901F01CFB24
:1022D0006846077068460078FEBD0000701A00204E
:1022E000A01A0020D01A0020245053544D564552B5
:1022F00000000000F1B584B00C0000260120694602
:102300000870002C63D00025814830216AB2302348
:102310005A43801800F01CFF6D1C68B23028F3DBB4
:102320000027002002940196794C08E00A54401CD2
:1023300002E07F1C002001260199491C01910299AD
:10234000019A8A5C0A2A41D030237B43E1182C2A67
:1023500001D02A2AEAD100220A54012573A12000C3
:1023600000F012FF002800D1002500BF74A120005A
:1023700000F00AFF002800D1002500BF76A1200050
:1023800000F002FF002800D1002500BF77A1200047
:1023900000F0FAFE002800D1002500BF79A120003E
:1023A00000F0F2FE002800D1002500BF7AA1200035
:1023B00000F0EAFE002800D1002500BF55A1200052
:1023C00000F0E2FE0028B4D0002DB2D0002E00D1E3
:1023D0009DE0049D55A1200000F0D6FE002801D10B
:1023E00028701BE056A1200000F0CEFE002801D18D
:1023F000287012E058A1200000F0C6FE002803D18A
:1024000001202870002009E0022600BF57A120000B
:1024100000F0BAFE002803D12E700120687073E02E
:102420002700903757A1200000F0AEFE00281AD1F7
:102430002E70A91C20003030FFF7BDFAA91C200027
:102440006030FFF7CDFA00240A22002130206043DB
:10245000381800F037FE29003831A2008850641C7B
:10246000082C51D2F0E700BF4BA1200000F08CFEF9
:10247000002849D103202870A91C20003030FFF724
:102480009AFAA91C20006030FFF7AAFA0A2200215C
:10249000380000F017FEE88100212000C03001F074
:1024A0008BF82A00103203C200212000F03001F026
:1024B00083F82A00183203C200219020400020181F
:1024C00001F07AF82A00203203C20021A82040003F
:1024D000201801F071F82A00283203C20021C02020
:1024E0004000201801F068F82A00303203C20A22A6
:1024F0000021D8204000201800F0E4FD29003831E8
:102500000E22AA5E9200885000206946087098E565
:10251000401A0020245053544D47454F46454E43E2
:10252000455245514552524F5200000024505354D9
:102530004D43464747454F46454E43454F4B0000A8
:10254000245053544D43464747454F46454E434517
:102550004552524F52000000245053544D47454FAE
:1025600046454E43454346474F4B00002450535485
:102570004D47454F46454E43454346474552524FCA
:1025800052000000245053544D47454F46454E439A
:102590004553544154555300245053544D47454FCF
:1025A00046454E4345000000F1B584B00D000027BC
:1025B000012069460870002D5FD000264B4C302169
:1025C00070B230225043201800F0C2FD761C70B269
:1025D0003028F4DB00240020039502940194434E3C
:1025E0000AE00A54401C04E00198401C01900020BD
:1025F00001270299491C02910399029A8A5C0A2ACE
:102600003AD0019B30256B43F1182C2A01D02A2A9D
:10261000E7D10C54012500BF35A1300000F0B4FD16
:10262000002800D1002500BF35A1300000F0ACFD2E
:10263000002800D1002500BF36A1300000F0A4FD25
:10264000002800D1002500BF36A1300000F09CFD1D
:10265000002800D1002500BF37A1300000F094FD14
:10266000002800D1002500BF37A1300000F08CFD0C
:102670000028B9D0002DB7D0002F36D03746049DA2
:102680001BA1380000F080FD002801D12C701EE055
:102690001BA1380000F078FD002801D12C7020E04B
:1026A000042600BF1BA1380000F06EFD00280DD0ED
:1026B0001CA1380000F068FD002811D0052600BFDD
:1026C0001DA1380000F060FD002802D12E706C7052
:1026D00009E000BF1CA1380000F056FD002802D11F
:1026E0002E700120687068460470AAE4401A002029
:1026F000245053544D4346474F444F4F4B00000026
:10270000245053544D4346474F444F4552524F5225
:1027100000000000245053544D4F444F5354415235
:10272000544F4B00245053544D4F444F5354415237
:10273000544552524F520000245053544D4F444F71
:1027400053544F504F4B0000245053544D4F444F5F
:1027500053544F504552524F52000000F1B584B0CF
:102760000D000027012069460870002D00D1D2E03D
:1027700000246A48302162B230235A43801800F0A6
:10278000E7FC641C60B23028F3DB002400200395D2
:1027900002940194614E0AE00A54401C04E001983E
:1027A000401C0190002001270299491C02910399C5
:1027B000029A8A5C0A2A59D0019B30256B43F11892
:1027C0002C2A01D02A2AE7D10C54012554A130002B
:1027D00000F0DAFC002800D1002500BF54A1300031
:1027E00000F0D2FC002800D1002500BF55A1300028
:1027F00000F0CAFC002800D1002500BF56A130001F
:1028000000F0C2FC002800D1002500BF57A1300015
:1028100000F0BAFC002800D1002500BF57A130000D
:1028200000F0B2FC002800D1002500BF58A1300004
:1028300000F0AAFC002800D1002500BF58A13000FC
:1028400000F0A2FC002800D1002500BF59A13000F3
:1028500000F09AFC002800D1002500BF59A13000EB
:1028600000F092FC00289AD0002D98D0002F52D072
:102870003746049D2AA1380000F086FC002801D1CB
:102880002C703AE02AA1380000F07EFC002801D12B
:102890002C703CE0062600BF2AA1380000F074FC32
:1028A000002829D02CA1380000F06EFC00282DD083
:1028B000072600BF2DA1380000F066FC00281BD0C1
:1028C0002EA1380000F060FC00281FD0082600BFB1
:1028D0002FA1380000F058FC00280DD030A138009E
:1028E00000F052FC002811D0092600BF31A13800A9
:1028F00000F04AFC002802D12E706C7009E000BF85
:1029000030A1380000F040FC002802D12E700120D8
:10291000687068460470FFF794FB0000401A0020BE
:10292000245053544D4346474C4F474F4B000000F3
:10293000245053544D4346474C4F474552524F52F3
:1029400000000000245053544D4C4F474352454122
:1029500054454F4B00000000245053544D4C4F47FA
:102960004352454154454552524F5200245053540E
:102970004D4C4F4753544152544F4B0024505354E5
:102980004D4C4F4753544152544552524F52000000
:10299000245053544D4C4F4753544F504F4B00000D
:1029A000245053544D4C4F4753544F504552524F5F
:1029B00052000000245053544D4C4F474552415350
:1029C000454F4B00245053544D4C4F4745524153B3
:1029D000454552524F520000F1B584B00D00002021
:1029E0000190012069460870002D53D00026A34CA9
:1029F000302170B230225043201800F0A9FB761C21
:102A000070B23028F4DB0027002600240021039553
:102A100007E04254491C03E0641C0021012001909E
:102A2000761C0398825D0A2A1CD0944830236343A5
:102A3000C0182C2A01D02A2AEBD1904A029247547E
:102A4000012500BF14A1029800F09EFB002800D1D0
:102A5000002500BF14A1029800F096FB0028DBD0EF
:102A6000002DD9D00198002814D0844D049C00BFBB
:102A700009A1280000F088FB002801D1277007E099
:102A800009A1280000F080FB002801D1012020705E
:102A900068460770FFF7D5FA245053544D43464714
:102AA0004D53474C4F4B0000245053544D43464721
:102AB0004D53474C4552524F52000000F1B584B07F
:102AC0000D0000200190012069460870002D53D0B0
:102AD00000266A4C302170B230225043201800F09A
:102AE00037FB761C70B23028F4DB00270026002468
:102AF0000021039507E04254491C03E0641C0021B7
:102B000001200190761C0398825D0A2A1CD05B4844
:102B100030236343C0182C2A01D02A2AEBD1574A0C
:102B200002924754012500BF14A1029800F02CFB2B
:102B3000002800D1002500BF14A1029800F024FB5A
:102B40000028DBD0002DD9D00198002814D04B4D9F
:102B5000049C00BF09A1280000F016FB002801D149
:102B6000277007E009A1280000F00EFB002801D122
:102B70000120207068460770FFF763FA2450535411
:102B80004D534156455041524F4B00002450535431
:102B90004D534156455041524552524F520000004C
:102BA000F1B584B00C000020019001206946087046
:102BB000002C61D00025302130486AB230235A43BE
:102BC000801800F0C5FA6D1C68B23028F3DB0027CE
:102BD000002600200294002407E00A54401C03E071
:102BE000761C0020012101917F1C0299CA5D0A2AEE
:102BF0001AD0224930237343C9182C2A01D02A2A1B
:102C0000EBD10C54012500BF1DA11C4800F0BCFAFB
:102C1000002800D1002500BF1EA1184800F0B4FA1A
:102C20000028DDD0002DDBD00198002824D0049EA0
:102C300037008037114D00BF11A1280000F0A4FA21
:102C400000280ED1402229003031300000F05CFE17
:102C50004022290060313000403000F055FE3C70C9
:102C600008E000BF0BA1280000F08EFA002801D177
:102C70000120387068460470FFF7E3F9401A00201D
:102C8000245053544D53544147505338504153539B
:102C900052544E00245053544D53544147505338CE
:102CA0005041535347454E4552524F520000000089
:102CB000F1B584B00D000026012069460870002D92
:102CC00000D105E10027834C302178B230225043F7
:102CD000201800F03DFA7F1C78B23028F4DB002782
:102CE00001970020029508E00A54401C02E07F1C76
:102CF000002001260199491C01910299019A8A5CE0
:102D00000A2A00D173E03021794361182C2A01D0BE
:102D10002A2AE9D100220A54012500BF6EA1200011
:102D200000F032FA002800D1002500BF6EA120007B
:102D300000F02AFA002800D1002500BF70A1200071
:102D400000F022FA002800D1002500BF73A1200066
:102D500000F01AFA002800D1002500BF75A120005C
:102D600000F012FA002800D1002500BF77A1200052
:102D700000F00AFA002800D1002500BF79A1200048
:102D800000F002FA002800D1002500BF7BA120003E
:102D900000F0FAF9002800D1002500BF7DA1200035
:102DA00000F0F2F9002800D1002500BF7FA120002B
:102DB00000F0EAF9002800D1002500BF81A1200021
:102DC00000F0E2F9002800D1002500BF84A1200016
:102DD00000F0DAF9002800D1002500BF84A120000E
:102DE00000F0D2F9002800D0002D00D17FE7002E9E
:102DF00000D16DE02646049C37A1300000F0C4F9F4
:102E0000002809D10A2020700A2200213000303029
:102E100000F058F9606058E00B2500BF32A1300087
:102E200000F0B2F9002845D035A1300000F0ACF92F
:102E3000002847D00C2500BF38A1300000F0A4F9CD
:102E4000002837D03BA1300000F09EF9002839D08F
:102E50000D2500BF3DA1300000F096F9002829D0D3
:102E600040A1300000F090F900282BD00E2500BFC3
:102E700042A1300000F088F900281BD045A13000A5
:102E800000F082F900281DD00F2500BF47A13000B7
:102E900000F07AF900280DD04AA1300000F074F952
:102EA00000280FD0102500BF4DA1300000F06CF9B4
:102EB000002801D1257007E04DA1300000F064F931
:102EC000002802D125700120207200206946087078
:102ED000FFF7B7F8401A0020245053544D41475093
:102EE0005353544154555300245053544D5354415B
:102EF00047505353454544424547494E4F4B0000C8
:102F0000245053544D535441475053534545444224
:102F10004547494E4552524F5200000024505354E9
:102F20004D535441475053424C4B545950454F4BCD
:102F300000000000245053544D5354414750534215
:102F40004C4B545950454552524F52002450535403
:102F50004D535441475053534C4F544652514F4B8D
:102F600000000000245053544D53544147505353D4
:102F70004C4F544652514552524F520024505354D4
:102F80004D53544147505353454544504B544F4B78
:102F900000000000245053544D53544147505353A4
:102FA000454544504B544552524F520024505354BF
:102FB0004D5354414750535345454450524F504F41
:102FC0004B000000245053544D5354414750535329
:102FD00045454450524F504552524F520000000058
:102FE000245053544D494E495454494D454F4B007C
:102FF000245053544D494E495454494D454552521D
:103000004F520000010000200A001300303B0A2B41
:1030100002D208003038C0B21300413B062B03D265
:1030200008004138C0B20A30613A062A03D2613939
:10303000C9B20A3108007047F7B50D001E00002D17
:1030400000D16D460190044600E0641C207800F039
:103050006CFC0028F9D127782D2F01D02B2F06D119
:10306000641C207800F061FC00280AD100E02B27C6
:10307000029A33002900200000F060FC29688C428D
:1030800003D101982860002005E02B2F05D1802175
:103090000906884207D203B0F0BD2D2FFBD1802155
:1030A000090688420BD900BF00BF002E01D00120C5
:1030B00030602D2F01D10846EDE7C843EBE74142D0
:1030C0000800E8E780B50023FFF7B6FF02BD2E0039
:1030D000CA0F00D0494203105A400DD004B500D3A6
:1030E000404200F009F8009AD20701D34942124247
:1030F00000D5404204BD0000094214D088420FD3DD
:103100000122030C01D100041204002300185B41CA
:103110008B4200D35B1A5241F8D31900100070475C
:1031200001000020704708B500F0AEFC08BD430068
:103130001206130A1A43130C1A4300BF094205D0A2
:10314000830709D00270401C491EF9D17047000066
:103150000022F3E70022FFE71300103906D330B452
:103160001400150010393CC0FCD230BC490700D314
:103170000CC000D504C0890002D30280801C002945
:1031800000D502707047FEE702780B78002A03D062
:10319000401C491C9A42F7D0D01A7047F8B5A2A635
:1031A000C0CE0F40002480256D03AF4203D24F40B4
:1031B0000020390009E03E0D9D4C0025ED43A41987
:1031C0002E46A24F0F409B49394300F05EFC0A0097
:1031D00013005D006D0D2C19002D11D0002C0FDD9A
:1031E000750DAC4206DB2805802109060A40024322
:1031F000002009E0954A1A40230513431900F4BD45
:103200000020802109060A401100F4BDFBB584B0FE
:10321000140000D101E184A6C0CE04A803C802AA0C
:1032200003C202A803C8394002D1002800D1F4E04B
:1032300004A803C8080041004915491C02D1000335
:1032400000D1EAE000227C4B002C00D486E06042F2
:10325000414D7D44FF35ED1C082604000AE0E007DF
:1032600005D503CD083D00F010FC02000B006408FA
:103270000835761E002C01D0002EF0D102A803C81C
:103280006D4603C5684603C80026F64306400F4056
:10329000802149038F4205D20025684603C8464075
:1032A0004F400CE03E0D65A003C88519684603C871
:1032B00064A6C0CE06400F405E4939430F0030007F
:1032C000390000F0A4FC0A0013005E00760D7519A9
:1032D000002E11D0002D0FDDB24EB54206DB3005B9
:1032E000802109060A400243002009E0574A1A409B
:1032F0002B051343190004E00020802109060A4031
:10330000110004AA03C248A6C0CE04A803C83940CD
:1033100001D100286AD004A803C80800410049155B
:10332000491C01D1000361D0002C5FD004A803C860
:1033300098A20CCAFFF732FF32003B0002400B405C
:1033400001D1002A50D04B005B155B1C01D10A0350
:103350004AD0641E48D0EBE7402E010046DD314DD7
:103360007D44FF353F3D082601273C4205D003CD73
:10337000083D00F08AFB02000B0064100835761E41
:10338000002C01DD002EF0D104A803C8FFF706FFD2
:1033900004AA03C20026F643770804A803C83940EC
:1033A00001D1002822D004A803C808004100491513
:1033B000491C01D1000319D0002C17DD04A803C853
:1033C0007AA20CCAFFF7EAFE32003B0002400B4033
:1033D00001D1002A08D04B005B155B1C01D10A0308
:1033E00002D0641E002CEBDC04AA03C204A803C8AC
:1033F00006400F4001D1002E06D0080041004915BB
:10340000491C0AD1000308D1069C00BF00BF002C54
:1034100003D0206801210143216004A803C807B03C
:10342000F0BD00BF742D0100FFFFFFFFFFFFFF7F16
:1034300002FCFFFF0000E03F0000F03F02FCFFFF46
:10344000FFFFFFFFFFFFFFFFFFFF0F80FFFF0F806A
:10345000F9B587B01500002B01D0002018600E00D0
:10346000079C07A800F034FC0107CA0F0592082149
:1034700088430495012829D10220009001AB320035
:103480000799200000F0B0FC050002D100200021C7
:1034900017E0029800F0A2FD022D12DB01AC083407
:1034A0006D1E00223D4B00F0F0FA06000F00206870
:1034B00000F094FD32003B0000F09AFD241D6D1ECB
:1034C000EFD1089B049A019C12194BE002284CD1C1
:1034D000009001AB32000799200000F063FE050068
:1034E00002D1002200231BE0029800F077FD0200C9
:1034F0000B00022D14DB01AC08346D1E002028499E
:1035000000F0C3FA06000F00206800F067FD3200EB
:103510003B0000F06DFD02000B00241D6D1EEDD17F
:103520001C00200041004D0D01996918002D12D09A
:10353000002910DD1B4DA94206DB28058021090664
:103540000C40044300200AE0174C044008052043C7
:103550000100100004E00020802109060C40210039
:10356000089B049AFFF752FE0CE0032802D10020CA
:10357000104907E0042803D10020C043410801E0BE
:1035800000200021059A002A02D080221206514014
:1035900009B0F0BD436FAC642806C80A65CDCD41C3
:1035A0000000B041FF070000FFFF0F803CBF737FAA
:1035B000DD4F15750000F07F80B500230022FFF776
:1035C00047FF04BD38B502005000400880231B04AB
:1035D000984202D20024504006E0C40D7E3CAF4B1E
:1035E0001340FC208005184300F0F8FE01004A005B
:1035F0005208D50D2B19002D0FD0002B0DDDFF2B00
:1036000006DBFF21C905802212061040084332BDA7
:10361000A24A0A40D805104332BD1000484032BDCE
:10362000F4B50400002900D1A2E02500680000D113
:103630009EE06A001216521C02D1680200D197E087
:10364000FE208005002955D54C4200BF9BA60527CA
:1036500007E0E10702D5316800F0C0FE6408361DBE
:103660007F1E002C01D0002FF3D10100260068003E
:10367000400880221204904202D20024684006E0F2
:10368000C40D7E3C854A2A40FC208005104300F092
:10369000FDFE020051004908CD0D2B19002D10D060
:1036A000002B0EDDFF2B07DBFF21C9050400802066
:1036B000000604400C4306E078481040DC05044353
:1036C00001E00C005440610042D00916491C01D1B0
:1036D00060023DD0002E3BD020007149FFF772FF01
:1036E000420034D01216521C01D141022FD0761E56
:1036F0002DD0F2E72CDD00BF70A605270D00E907ED
:1037000002D5316800F06AFE6D10361D7F1E002D57
:1037100001DD002FF3D101002000FFF753FF04006B
:10372000410015D00916491C01D1400210D0002DCE
:103730000EDD20005B49FFF745FF420007D012165F
:10374000521C01D1410202D06D1E002DF2DC04009A
:10375000610004D00916491C0AD1600208D1009DFD
:1037600000BF00BF002D03D028680121014329605C
:103770002000F2BDF9B585B01500002B01D0002066
:1037800018600E00059C05A800F0A2FA0107CA0FF8
:103790000492082188430395012826D1009001ABAB
:1037A00032000599200000F01FFB040001D1002029
:1037B00016E0029800F0CCFE012C11DD01AE0836B7
:1037C000641E394D290000F009FE0700306800F042
:1037D000BFFE0100380000F0C6FE361D641EF1D1A8
:1037E000069A0399019BC91842E0022843D101209F
:1037F000009001AB32000599200000F0D3FC0400DA
:1038000001D1002017E0029800F0A2FE012C12DD89
:1038100001AE0836641E9B25ED05290000F0DEFD93
:103820000700306800F094FE0100380000F09BFEB5
:10383000361D641EF1D101004B005B08DC0D019ABE
:10384000A218002C10D0002A0EDDFF2A07DBFF2172
:10385000C9058022120610400843030005E00F4806
:103860000840D305034300E04B40069A0399180033
:10387000FFF7D6FE09E0032802D1FF20C00504E0CF
:10388000042801D1094800E000200499002902D051
:1038900080210906484007B0F0BD0000FFFF7F808F
:1038A0001EB14F0AAEC59D74286B6E4EFFFFFF7FA1
:1038B00080B500230022FFF75DFF02BD000020411C
:1038C0000000C84200401C4620BCBE4CCA1B0E5A19
:1038D000AEC59D74012212060118CA420AD28A425C
:1038E0000DD83822120609098918C20FD2071143D0
:1038F0004007704700D049080909014301E0C10FA2
:10390000C90700207047FEE7A4460024521E0AD3D0
:103910000B5D0355641C1B42F8D1521E03D30355A3
:10392000641C521EFBD26446704710B5040000F0C0
:10393000C9FE01002000096A884710BDFCB587B0A8
:103940000C001500002B01D00021196003900646E1
:1039500000E0761C3078FFF7E8FF0028F9D130004E
:1039600001782D2901D02B2903D16A461170401C02
:1039700002E02B216A4611700194002D03D4012D21
:1039800001D0252D04DB002C54D00398206051E099
:10399000002D0ADD102D16D10178302913D1417880
:1039A00020220A43782A0ED10AE00178302901D07A
:1039B0000A2508E0417820220A43782A02D11025FE
:1039C000801C00E00825069000E0401C01783029AA
:1039D000FBD0002405902B4A7A44A83228326B464B
:1039E0005A700295049F05000494264E7E44943636
:1039F00008E0049469464978471AFFB202984443A4
:103A0000E4196D1C287800F067FE029A010030006E
:103A1000283000F06BFE0028EBD1029938002F000F
:103A2000049D069ABA4207D10198002802D0039853
:103A300001990860002022E0059ABA1A735CD21A34
:103A4000002A11D405DC201A03D3FFF755FBA84246
:103A50000AD000BF00BF0898002802D001200899B2
:103A600008600024E44305E0684600782D2801D171
:103A7000604204000198002800D00760200009B0CF
:103A8000F0BD00BFAC2501007047F0B50E005E40F0
:103A90000125ED072E40B446AE0ADF184C18F4425B
:103AA00008D2F7420ED2640D01D07F0D12D1002052
:103AB0006146F0BD05D1F74201D87F0D05D1002048
:103AC000C143F0BDFBD1640DF9D00020C1434905CD
:103AD00049088FE0E419C902DB0229432B43DB0AC2
:103AE000460DC00231438E4630B487B295B27D4355
:103AF0002E0CADB2140C7C43A419260C24042543CF
:103B00009CB27C43A419190C7943270CC919A4B29F
:103B10000F043C43090C000C97B247432E0CBE190E
:103B20003543ADB2170C4743360CBF19A6B2BF19C7
:103B30003E043543240C3E0C36199FB24743BF194F
:103B4000BCB23E0C89191F0C47437F183E04344316
:103B5000390C704680B297B247432E0CBE193543DC
:103B6000ADB2170C4743360CBF19A6B2BF193E04BD
:103B70003543240C3E0C36199FB24743BF19BCB2E3
:103B80003E0C89191F0C47437F183E043443390CFF
:103B900077463F0C90B278432E0C80190604ADB2E4
:103BA0002E43050CA0B22D18120C7A435019020CAA
:103BB00080B2240CA4189AB27A4312191404204338
:103BC000120C89181B0C7B43C91830BCEF0A394210
:103BD00003D1B61940414941641E6F12BF0DE41B69
:103BE0000BDBFF19BC4211DA240500274208AE4165
:103BF0007841614166463143F0BD641C05D1401CEB
:103C00006141CF0201D34908F4E750E75DE7F0B422
:103C10000E005E400125ED072E40B446AE0ADF18C7
:103C20004C18F4423BD2F74241D2640D43D07F0D91
:103C300038D0E41BC902DB0229432B43CF0ADB0A3D
:103C40000600B61A9F4104D2641EB6197F41B61809
:103C50005F416812800D24180018844222DAE80CB3
:103C60000021B6197F41B61A9F4102D2B6185F41B2
:103C70003F1C40414941F4D3241C21DD2405B619E1
:103C80007F41B61A9F4105D33743C6073743002605
:103C9000012F7041614166463143F0BC7047FCD151
:103CA000F74205D20020C14349054908F3E704D093
:103CB0000020C143F1E77F0DFAD000206146ECE718
:103CC0002442FAD1401C61410F03F6D30020E2E701
:103CD000F1B582B00E0004680027002500E0641CE6
:103CE0002078FFF722FE0028F9D120782D2801D175
:103CF000082501E02B2800D1641C217820202022F7
:103D00000A4300966E2A25D161780143612903D1C7
:103D1000A17808436E2802D00298046815E0E41CDC
:103D200025000427287828280FD16D1C2E78300014
:103D300000F0E7FC0028F8D1303E0A2EF5D32878B1
:103D40005F28F2D0292800D16C1C0098002846D0AA
:103D5000046044E0692A26D1617801436E2903D1C9
:103D6000A1780143662902D00298046817E0E41C98
:103D700003272F4321780143692910D1617801433A
:103D80006E290CD1A1780143692908D1E17801435A
:103D9000742904D121790843792800D1641D002EAB
:103DA0001DD034601BE0302917D161780843782892
:103DB00013D1A01C01782E2900D1401C00780100ED
:103DC0006139062906D301004139062902D330386A
:103DD0000A2802D2A41C022700E001272F430298E0
:103DE0000460380003B0F0BDF5B591B00D001900C6
:103DF000189A00200290D3009A182D2A00DD2D2257
:103E0000086048600027012301E06D1C01272C7821
:103E1000302CFAD00026009305AC18920FE00A6807
:103E2000521C0A602A78302A07D0009805E0189BB7
:103E30009E42F4DA303AA255761C6D1C009F2A7817
:103E40001300303B0A2BF2D30191039000F03CFCAD
:103E50002978406A0078814200D16D1C002E0198BB
:103E60000ED1297830290BD10168491E01606D1CE3
:103E7000009FF6E7302901D0009903916D1C009F47
:103E800029780A00303A0A2A09D2189A9642F1DAB9
:103E90003039A155761C0168491E0160EEE7019595
:103EA0001899039A0397002A04D0621E525C521C90
:103EB000631E5A54050007E0601E805D002809D18A
:103EC0002868401C2860761E002EF5DC02D10020F8
:103ED0002070009E0398002860D0002004900924E0
:103EE00030000921FFF7F4F8641A20000921FFF7D8
:103EF000EFF8002901D000980290029F0296049EDC
:103F000018E0B800281801688A0051184900009A82
:103F1000891801600CE005A8805D0090200009214F
:103F2000FFF7D6F80029ECD17F1C0098B900685043
:103F3000641C761C02988642EDDB0297019800789B
:103F400020210143652929D1019800900198431C43
:103F50001C782B2C01D02D2C01D15B1C00E02B24D4
:103F60000026002109E0144EB14204DA8E007118D7
:103F70004900091830395B1C012618780700303FCA
:103F80000A2FF0D301932D2C01D14842010028685B
:103F900040182860002E01D1009801901299002944
:103FA00006D00398002801D0019800E0119808601D
:103FB000029813B0F0BD00BF00E1F50501004222F8
:103FC0001201D21E004207D002D4521E0018FCD5A6
:103FD000C10A400512058918704700000100EED59E
:103FE0004042F446FFF7EBFF0122D207114360473E
:103FF000F0B40125ED070F005F404FD48B4200D194
:10400000824205D98446100062468C4619006346F8
:10401000DF184C18640D7F0D3AD0661C760537D03A
:10402000E61B352E34DCDB022B43DB0A0C0DC90208
:104030002943C912202E0DDB1700203E06D01F0099
:10404000F741F3405F400026012A7741C0187141D3
:104050000DD217E01700F741F2405740F3415A40A4
:10406000B340F3405A400026801859410AD3A21C9D
:1040700052050FD0C207012F724117004008CB072D
:1040800018434908641C24054208AF41704161414E
:10409000F0BC7047641C21050020F9E76B4010E07C
:1040A0006B40ABE7F742F3D1E943F1E72442EFD1AC
:1040B00000200021ECE7F0B40125ED070F005F4080
:1040C000EED40C00871A9C4105D2C01BA141D21925
:1040D000634169406B40AE0ADF184C18F442E1D2EC
:1040E000640D7F0DE2D0E61B362ED1DCDB022B43C4
:1040F000DB0AA4460C0DC9022943C90A012E28DC9B
:1041000004D1D6075208DF073A435B08EF0A76422C
:104110009041994114D039423BD1B61940414941AF
:10412000761C394204D1761C001849413942FAD034
:10413000B9436746B74208D9A41B24052143A7E722
:104140000042EAD13642E8D1A2E7E40AE1070020C2
:104150009EE7202E0BDD203E1F00F340F7415F401D
:10416000012A002257417E42984191410BE01700FD
:10417000F741F2405740F3415A40B340F3405A40B0
:104180007E42904199410A0303D2641EB619404110
:1041900049410027641E24054208AE41784161412F
:1041A000F0BC7047F5B58FB0169800220392C2009C
:1041B000101A232800DD232000221A605A600026EE
:1041C00001E0491C01260C78302CFAD0002400BFF5
:1041D00076A20092012202920D001F00169010E0BC
:1041E0003868401C38600AE01699A142F8DB00BF2D
:1041F00074A1009A801A085C05A90855641C6D1CFE
:10420000029E00BF69A01622297800F06FFA0028EC
:10421000EAD104970196270000F056FA2978406AFF
:104220000078814200D16D1C002F0BD12C00049E20
:10423000019D2078302819D13068401E3060641C00
:10424000029DF6E72C00049E019D0FE01699B942ED
:104250000ADB00BF5BA1009A801A085C05A9C8555B
:104260007F1C3068401E3060641C029D162221783D
:104270004EA000F03BFA0028E8D100941698019572
:10428000B84218DA05A9095C072906DD05A9491E07
:10429000095C491C05AA521E115407003068401CD5
:1042A000306008E005A8401EC05D00280AD13068D3
:1042B000401C30607F1E002FF4DC03D100206946D3
:1042C0000875029F306880003060019800285ED039
:1042D00000200490072438000721FEF7F9FE641A35
:1042E00020000721FEF7F4FE002901D00298039078
:1042F000039D0397049F16E0A80030180168090188
:10430000029A891801600CE005A8C05D02902000A7
:104310000721FEF7DDFE0029EED16D1C0298A900F1
:104320007050641C7F1C03988742EDDB0395009856
:10433000007820210143702929D10098029000982B
:10434000431C1C782B2C01D02D2C01D15B1C00E0D0
:104350002B240025002109E0134DA94204DA8D0029
:1043600069184900091830395B1C012518780700C5
:10437000303F0A2FF0D300932D2C01D14842010089
:10438000306840183060002D01D1029800901099DB
:10439000002906D00198002801D0009800E00F986D
:1043A0000860039811B0F0BD00E1F50530313233FB
:1043B0003435363738396162636465664142434457
:1043C00045460000000102030405060708090A0B20
:1043D0000C0D0E0F0A0B0C0D0E0F000030B4050073
:1043E0004D400122D20715404B180418240E2ED040
:1043F0001B0E32D0FF2C34D0FF2B3AD0E418000231
:10440000090210431143000A090A9446C2B24A4302
:10441000000AC3B24B43000A4843110A5B181A430F
:10442000D2B2190A091801D44918641E080A7F3C3F
:1044300023DBFE2C08DAE4050906114363469941A3
:104440006041284330BC7047FF20C005F9E72800D1
:104450001B0EFF2BF6D1D043F4E72800FF2CF1D13F
:10446000F9E74002F7D1FF2B01D14902F3D1E00572
:10447000E7E7D8054902E4D0EDE743020020641CD9
:10448000DFD15B129B1CDCD9D805DAE730B405001C
:104490004D400122D20715404B180418240E25D098
:1044A0001B0E2CD0FF2C31D0FF2B34D0E41A00028D
:1044B00009021043114343084808D10D1B1A02D2C8
:1044C000641EDB181B18DB18834200D31B1A4941FA
:1044D000F9D37F3423DDFF2C05DAE4054808604179
:1044E000284330BC7047FF20C005F9E728001B0EA9
:1044F00003D0FF2BF5D14902F3D0D043F1E7FF2CD5
:1045000001D14002F9D1FF20C005E9E74002F4D112
:10451000FF2BF8D1F1E728004902E2D0EDE70B02CA
:1045200000202442DCD15B129B1CD9D9D805D7E7E7
:104530009D2102000AD002D4491E9218FCD5C9055B
:10454000100A1206524100D3012A48417047000068
:104550009D210200EED55242F446FFF7EBFF012207
:10456000D207104360470122D20703004B402ED4EC
:10457000431A01D2C01AC91830B44B180418240EBB
:104580001B0E22D0FF2C20D0E31A182B1DDC0902B1
:104590001143C40D641E0002104394461925ED1A00
:1045A0000A00AA40D940451801D36D08A41CE405AF
:1045B000D209280A2D062A436546AA4160410318FC
:1045C0001B0EFF2B01D3C00DC00530BC70475140FE
:1045D00006E05140CCE70122D20703004B40F8D45B
:1045E000431A03D2C01AC9185040514030B44B1876
:1045F000090211430418240E1B0E40D0FF2C3AD0A0
:1046000025009D410BD31ED8C50D4002401A0BD387
:10461000ED050100400AC90591416841D5E7C50D86
:1046200040024918401AD0D001214008491C001806
:10463000FCD58C4204D36D1A000AED054019C4E77D
:10464000E8051040C1E7182DBFDCAC1C0D00E140AF
:10465000E5414D40012D4941C40D00021043451A6A
:1046600001D46D199543641EE405280A2D06954171
:10467000604130BC7047FF2BA7D1D843A5E7244247
:10468000A3D10020A1E7FEE7613807E005E00100C3
:1046900061391A2901D20120704741381A28804116
:1046A000C00F704701000939052901D3202801D125
:1046B0000120704700207047010041391A2900D2BB
:1046C00020307047024870470248704700000000E1
:1046D000F8060020C006002010B50400FFF7F2FF26
:1046E00001002000896A884710BDFEE7C9B2521E4A
:1046F00005D30378401C8B42F9D1401E704700203F
:10470000704710B50400FFF7DDFF010020000969C4
:10471000884710BDFEB596B0184A2623D35E002BFD
:1047200024D01300E833994220D001AB0C781C70E0
:104730004C785C70022600910FE00099895D9C190D
:10474000F50708D52627D75FCD198D27D75DBD4240
:1047500001DAD58C49192170761C8642EDD318A94F
:104760000B78179A01A901F032FB04E018AA13781C
:10477000179A01F02CFB19B0F0BD00008003002057
:1047800080B5694680220A7048700023002202200A
:1047900001F01DFB01BD38B586B003000800002400
:1047A00069460C704B7003E0135D0D19AB70641C0F
:1047B0008442F9D300230022801CC0B201F007FB21
:1047C00007B030BD70B5C2B00E0014006B460121B9
:1047D00019705870350004D0FF222900981CFEF78C
:1047E000A7FC002321AA6946B61CF0B201F0EFFA3B
:1047F000002004E021A9091889782154401CA8420E
:10480000F8D342B070BD0000FEB5A0B004000D00AA
:104810000020069002A83C49102201F0E9FA482144
:1048200007A8FEF797FC19A838491C2201F0E0FA06
:104830002298407900280CD10F2002A94872142038
:1048400088721820C8721E200873272048733620EB
:10485000887368460471522302260320072105222B
:1048600007AC00956D462D79052D4AD801A76D003E
:104870007F5BBF440A009A00BE006E011C02B602B4
:1048800021980370002002A9229A0B5C54791B190D
:104890000B54401C0E28F8DD02AC00980699471C0A
:1048A000002383551579BD5585192B74CBB2E35C74
:1048B0006B74491CB61C112EF2DD12230022040079
:1048C0001034E25402AACCB2145D05001135EC5448
:1048D000491C9B1C222BF1DB0021002300240090AB
:1048E00000985030654240190170DDB2555D457049
:1048F0005B1CA41C1F2CF3DD009800210170FF211C
:10490000417023B0F0BD00BF7862010888620108E1
:10491000219803700020009A1070FF21009A5170B6
:104920000099229A4C1C88551379A355B61C512E18
:10493000E7DCF8E7219D2B70002301E0092B01DC67
:104940000125E5541D000A3D072D00D8E6541D0041
:10495000123D062D00D8E0541D00193D052D01D84B
:104960000425E5541D001F3D052D00D2E2541D0015
:10497000243D052D01D20625E5541D00293D042DB9
:1049800000D2E1545B1C2D2BD8DD1B2219A920007D
:104990002D3001F047FA002200212298635C45790E
:1049A0005B196354491C4729F8DD00994D1C8A5551
:1049B0000379AB55B61C112EF9DD002300250091BB
:1049C0000699009A6E4292195032CEB27742E61999
:1049D000F67F8779F61956701370491CAD1C402D6F
:1049E0008ADAEEE7219D2B700025002301E0092BD8
:1049F00001DC0127E7541F000A3F072F00D8E654C7
:104A00001F00123F062F00D8E0541F00193F052F4A
:104A100001D80427E7541F001F3F052F00D2E2549E
:104A20001F00243F052F01D20627E7541F00293F0E
:104A3000042F00D2E1545B1C2D2BD8DD1B2219A9B9
:104A400020002D3001F0EEF90020229E215C7279C9
:104A500089182154401C4728F8DD00990D70FF206B
:104A6000009948700027069800997A4289185031B9
:104A7000220047329446C2B253426246D25CB379B6
:104A8000D2184A700D70401CBF1C502F00DB38E755
:104A9000EAE7219D2B70002301E0092B01DC0125B1
:104AA000E5541D000A3D072D00D8E6541D00123DB7
:104AB000062D00D8E0541D00193D052D01D8042510
:104AC000E5541D001F3D052D00D2E2541D00243D7C
:104AD000052D01D20625E5541D00293D042D00D2E7
:104AE000E1545B1C2D2BD8DD1B2219A920002D3091
:104AF00001F098F9002200212298635C45795B1946
:104B00006354491C4729F8DD0699009DAA552300E6
:104B10004733CDB26F42DB5D85795B19009D6D1C1B
:104B2000AB55491CB61C502E4DDCEEE74223219DAF
:104B30002B70002301E0092B01DC0125E5541D0049
:104B40000A3D072D00D8E6541D00123D062D00D861
:104B5000E0541D00193D052D01D80425E5541D0024
:104B60001F3D052D00D2E2541D00243D052D01D22C
:104B70000625E5541D00293D042D00D2E1545B1C9F
:104B80002D2BD8DD1B2219A920002D3001F04AF968
:104B9000002100222298A35C45795B19A354521C82
:104BA000472AF8DD2822009DA95523004733D5B2B6
:104BB0006F42DB5D85795B19009D6D1CAB55521C06
:104BC000B61C402EEFDD97E615488069704710B59A
:104BD000040000206071A0717F206070812020702F
:104BE000DC20E0700320A07001F030F900280CD028
:104BF000022802D0032804D010BD22206071232097
:104C00000CE00748807F002803D11220A07001200B
:104C100004E0042060710220A0710520207110BD05
:104C200080030020F8B588B00700FFF7CDFF06002D
:104C30000024049469460C768025DD48864200D322
:104C40007608012F00D08BE0612008760020FA2141
:104C500049003200002301F0CFF984B20021D54A87
:104C600000231219300001F0FDF90022D24B121876
:104C70004B41029203930020FA21490000900191D8
:104C800000216A0200231219300001F0EBF9009AAA
:104C9000019B121A8B4102980399994203D801D3C0
:104CA000904200D2641C0494F4263606FFF78CFF71
:104CB000BF49884225D3FFF787FF02000023300059
:104CC000012101F099F90400FFF77EFF0600FFF7CC
:104CD0007BFF0021E2B20023521C01F0C3F9C02285
:104CE00012050123DB4312184B4102920393F42077
:104CF000000601210090019130000021E2B2002362
:104D00002DE18125FFF760FF020000233000012123
:104D100001F072F90400FFF757FF0600FFF754FF98
:104D2000002100900191E0B2FF22921C0023121892
:104D3000009801F097F9C02212050123DB431218F5
:104D40004B4102920393F42000060121009001914F
:104D50000021E0B280225200002312183000FEE051
:104D6000022F00D009E1CB4DAE4228D36320087654
:104D70000020C9493200002301F03EF984B200212D
:104D80008C4A00231219300001F06CF90022C34B49
:104D900012184B41029203930020BF4900900191E9
:104DA00000218022520200231219300001F05AF92A
:104DB000009A019B121A8B41029803992AE0642001
:104DC000087600270020FF2178313200002301F00F
:104DD00013F984B20021774A00231219300001F040
:104DE00041F9AF4B3A184B4104920593FF217831BA
:104DF0000297039100960197802252020023121914
:104E00000098002101F02EF9029A039B121A8B419F
:104E100004980599994203D801D3904200D2641CAA
:104E20000494FFF7D1FE6249884238D3FFF7CCFEE5
:104E30009C49884235D38225FFF7C6FE0200002335
:104E4000DC200006052101F0D7F80400FFF7BCFEC6
:104E50000600FFF7B9FE002100900191E0B2FF22A9
:104E6000921C00231218009801F0FCF89022920581
:104E70000523DB4312184B4102920393DC2000060A
:104E80000521009001910021E0B280225200002310
:104E90001218300001F0E6F8009A052363E0AE42F4
:104EA00033D38325FFF790FE02000023EE20000697
:104EB000022101F0A1F80400FFF786FE0600FFF7CB
:104EC00083FE002100900191E0B2FF22921C00239A
:104ED0001218009801F0C6F8902252050223DB4315
:104EE00012184B4102920393EE200006022100901B
:104EF00001910021E0B280225200002312183000FC
:104F000001F0B0F8009A02232DE08425FFF75CFE43
:104F100002000023EE20C005012101F06DF804001D
:104F2000614881690591E6B280690021FF22921CE7
:104F30000023921901F096F8892212060123DB431F
:104F400012184B4102920393EE20C00501210090FC
:104F5000019105980021802252000023921901F04E
:104F600081F8009A0123121A8B4102980399994201
:104F700003D801D3904200D2641C07AE0498000409
:104F8000000E3070049870706846007EB07007AAFA
:104F900003210E20FFF7FFFB3570747007AA022172
:104FA0001120FFF7F8FB4148FFF711FE09B0F0BDF3
:104FB00081C3C901010001000CFEFFFF01880A0640
:104FC000520F4A401202C905090E1143C905C90D05
:104FD0000180704711B581B0082401A8FFF7EEFFEA
:104FE000641EFAD16846808816BDF8B52E4D2F0094
:104FF00094372E008A362E4C00280ED13300220022
:105000003900FFF701FC30786178814200D1707877
:1050100060706078C621685405E0330022003900D2
:105020000120FFF7F1FB0123002239002078FFF770
:1050300071FBF1BD7CB57220FFF7A2FB1A4C002377
:1050400000222100E8311220FFF764FB260094368D
:10505000174D23008A332A0031000420FFF7D4FBC8
:105060000023002231002878FFF754FB32206946E4
:1050700008706A4601210120FFF78DFB0121012004
:1050800000F090FE0120242160540220207073BDA6
:105090000000000021D77501EE02000012FDFFFFA5
:1050A00089FEFFFF200DE402800300200A04002097
:1050B00068360020F8B58AB00700B74C06D12A2020
:1050C000205C002802D000202070CCE1012000F0FC
:1050D0006DFE002000F06AFE607F002808D0B0203E
:1050E0006946487606AA521C01216D20FFF753FB42
:1050F0000021002000F056FEDC4DA069A84201D23C
:105100003E2000E02E206946487606AA521C012166
:105110006C20FFF740FB380036D0022F04D000D2BD
:105120009AE0032F00D094E1A669AE4200D9760838
:1051300000ADAD1CDA480121A269002300F05CFF3C
:1051400064382870D64801213200002300F054FF53
:105150006438687000AA921C02210920FFF71BFB2B
:10516000812069460870032F01D1512008706A46DA
:1051700001211320FFF70FFB2020694608706A46C3
:1051800001212E20FFF707FB0420694608706A46BC
:1051900001213020FFF7FFFA0720694608706A46B0
:1051A00001216220FFF7F7FA6A4601216320FFF729
:1051B00009FB68460078FD210140684601706A4697
:1051C00001216320FFF7E7FAD720694608706A4695
:1051D00001216520FFF7DFFA8720694608706A46DB
:1051E00001217620FFF7D7FAFC20694608706A464D
:1051F00001217720FFF7CFFAC820694608706A4678
:1052000001216420FFF7C7FA207F002818D0207FF3
:10521000082815DA207F0001022101436846017049
:105220006A4601217920FFF7B6FA207F052807DBBF
:105230008820694608706A4601216420FFF7ABFAAE
:105240003020694608706A4601213F20FFF7A3FA23
:1052500001202A216054FCE0A76908A884A10CC998
:105260000CC0AF4200D97F080020962189003A0087
:10527000002300F0C1FE85B20021009701919F4AF2
:1052800000235219009800F0EDFE00229C4B1218EA
:105290004B410492059300209621890002900391CE
:1052A0000021009701918022520200235219009898
:1052B00000F0D8FE029A039B121A8B4104980599BC
:1052C000994203D801D3904200D26D1C0495C820A6
:1052D0000006A169FDF710FFC5B2A0690590A0699D
:1052E0000021002300266A1C00F0BCFEE02292058B
:1052F0000023DB4312184B4102920393C82000069F
:1053000000210090019105982A00002300F0AAFED8
:10531000009A0023121A8B4102980399994205D8EA
:1053200001D3904202D268466D1C00E068460570C9
:1053300000ADAD1C5A480121A269002300F05CFEBB
:1053400064382870564801213A00002300F054FECA
:105350006438687000AA921C02210920FFF71BFA2A
:1053600007AD04980004000E28700498687021208E
:10537000A87007AA03210E20FFF70DFA2E706846C9
:105380000078687007AA02211120FFF704FA8D48FF
:10539000874203D3882002E080030020682069460A
:1053A000087606AA01211320FFF7F5F908AA0521BE
:1053B0002E20FFF7F0F9402708AD2F7008AA012131
:1053C0002B20FFF7E8F927202870B220687008AA80
:1053D00002213520FFF7DFF92F706E7008AA022135
:1053E0003920FFF7D8F96846067606AA01211F2062
:1053F000FFF7D1F907206946087606AA012118208F
:10540000FFF7C9F970206946087606AA0121212014
:10541000FFF7C1F920206946087606AA0121FFF7A7
:10542000BAF96846067606AA01211420FFF7B3F9F7
:1054300088206946087606AA01217620FFF7ABF995
:105440006846067606AA01217720FFF7A4F92A20EC
:10545000265400209A49887020008A30FFF7B7FB55
:1054600000F0E0FA00200BB0F0BD000080C3C901DD
:10547000000000000F00000080B500F0BEFA01201F
:1054800000F094FC00208F4924228A5C052A01D177
:1054900024228854202288542A22885402BD0000E5
:1054A000000074B7F8B507000800002400211600BA
:1054B00000E0491CCAB2B242FBD3010004D0814DC6
:1054C0002421695C002901D03120F2BDFFF7AAFB3D
:1054D000AC73AF606E80FFF7ADFD00F075FA202071
:1054E0002C5401E000F0ACFA2020285C0028F9D010
:1054F00020202C5424202C540020F2BD0100010057
:10550000A8FDFFFFF1B584B0C50A44056D4E20002B
:105510002900B269002300F06FFD0700B069039015
:10552000B069002100900191002300207A1C4341C2
:10553000009800F097FD001BA9410090019103988D
:1055400000213A00002300F08DFD241A8D410098BF
:105550000199A94203D801D3A04200D27F1C402464
:10556000BF4A049B9B00BF4DAB42B36903D3934238
:1055700004D2202404E0934202D36024002600E0F9
:10558000042602AA01216520FFF71CF902AD287844
:10559000FB2101400E432E7002AA01216520FFF776
:1055A000FAF83801000F04432C70380C6870380A80
:1055B000A870EF7002AA04210520FFF7ECF8002084
:1055C00005B0F0BD21D77501F7B582B00025694659
:1055D0000D7001A80560012601AFFE702020B87093
:1055E00001AA04215020FFF7D6F80220387001AA42
:1055F00001210120FFF7CFF80021012000F0D2FBAC
:105600007120FFF7BDF801AA0421FA20FFF7DAF8AC
:105610002C4C2021655402202421605400F0E4F930
:1056200004E0B878800601D5684606702120205C29
:10563000002803D068460078002835D000F000FA32
:105640002020205C0028F1D02021655401AA0421EB
:10565000FA20FFF7B7F8F878C007E2D5029F00AA52
:10566000521C01219020FFF7ADF83A0068464178BE
:10567000FF20FFF7A7F8220010320121A220FFF738
:10568000A1F8207C40B22821615640189238039935
:1056900008800021002000F085FB24202554049878
:1056A0000670002005B0F0BD00F0A7F90021002031
:1056B00000F078FB2421655404980570F1E70000A0
:1056C0006836002080030020F7B56A460023136087
:1056D000B74DAE69624A964200D376080C000700C7
:1056E000402069468870102008706A4604215020C6
:1056F000FFF751F80220694608706A46012101202F
:10570000FFF749F80021012000F04CFB6E3C2820F7
:105710002856201A29216956401A694608706A4697
:1057200001211820FFF737F88020694608706A4683
:1057300001213920FFF72FF8380000213200002323
:1057400000F090FCFA229200002300F055FCA54ADC
:10575000002300F051FC06000F000020761C47419A
:1057600030003900FF22002300F046FC69464870F3
:1057700068464078012801DD401E00E001204870A5
:10578000300039006A465278521CD31700F034FCBE
:10579000694608706A4602214620FEF7FCFF042095
:1057A0002421685401200299087000247120FEF71A
:1057B000E7FF6A460421FA20FFF704F820216C5421
:1057C00000F012F901E000F03BF92020285C0028ED
:1057D00003D12220285C0028F5D02020285C002856
:1057E00010D020216C546A460421FA20FEF7EAFF0B
:1057F00068468178490602D500F0FFF802E000789B
:10580000C00614D42220285C0028CFD000202221FA
:1058100068540299087002980078012809D16846F6
:1058200004606A4604215020FEF7B5FF08E001201D
:10583000EFE7012000F0BAFA00F07AFA2A216C545E
:105840000021002000F0AEFA24202C540020FEBDE0
:105850006E490870704701206D490870704700005C
:1058600081C3C90100A493D6F8B50125504C24206A
:10587000205C012806D02420205C052802D02020AE
:105880002554F1BD00F0E4FC0028FAD161498D7087
:10589000E08823008A33072708262178891E0629F5
:1058A00013D801A2525C9744C2709E523422060063
:1058B00000F0A3F87220FEF763FF0121002000F042
:1058C00071FA002020702020255468E00123002276
:1058D0002100E8314220FEF71DFF26705FE04E4DAB
:1058E0004C4A29000320FEF78FFF012300222900E4
:1058F00048480078FEF70EFF277050E0464D454AB5
:1059000029000220FEF780FF0123002229004148E0
:105910000078FEF7FFFE062040E0A168A288895CBF
:10592000C1400D402800FFF760FBE08800281AD135
:10593000E780A088401CA080618880B288422ED178
:105940000020A080052029E0A189C1400D40280049
:10595000FFF74BFBE088002805D1E680A089FFF720
:1059600039FBA0811BE0401EE08018E0294A21009D
:1059700094310520FEF748FF0123002221009431D5
:1059800024480078FEF7C6FEA07B012802D1E680FD
:10599000042003E00020A080E78003202070002086
:1059A0001C498870F1BD02498861002070470000E1
:1059B0008003002019498877002070471848007834
:1059C00070471648807B704780B51448807F002858
:1059D00001D1012000E0022000F039FC602008E045
:1059E00000000000BA04000080B5032000F02FFC86
:1059F0006120FEF7C5FE002002BD80B56720FEF7DE
:105A0000BFFE002000F023FC002002BDA103002007
:105A1000A203002068360020140400208003002028
:105A20000C0400207047FEE780B500F02CFE01BD9D
:105A300080B500F08CFB01BD80B500F089FB01BD95
:105A400038B5B94C2079002814D06079002811D1DC
:105A500000F07DFBEFF3108572B6A079002805D128
:105A60000121012000F09CFE00F00DFE85F310885E
:105A700000F06EFBA079002803D0FFF7F5FE0020B0
:105A8000A07131BD80B500F0EDFBC54800F0CFFE40
:105A900001BDF8B50600A548C1490860FFF7F2FF4F
:105AA000A14C0120A070BE480068C168802211404E
:105AB000A84A0A43C26080204003A7490860002723
:105AC000E760AC4DAC4AAD49280000F042FB2868C5
:105AD000C16801229143C160280000F0C7FE280080
