:020000040800F2
:1000000060350020B1230108A11D0108A31D0108CE
:1000100000000000000000000000000000000000E0
:10002000000000000000000000000000A51D010805
:100030000000000000000000A71D0108A91D010824
:1000400057210008D72E0008B11D01083B2F0008DA
:1000500077420008BB1D01088F460008C51D010836
:10006000B3480008E7480008D51D0108AF4D000857
:10007000636700082B6800082F680008CF9000080D
:100080008797000853A100085FA400080000000043
:1000900043B3000887C3000803DC00081BEC00081A
:1000A0001FED0008E51D010827EE0008EF1D0108FF
:1000B000C7EE000807EF0008C3EF0008A7F3000829
:1000C000F8B50C000A22002101F0E6FB07002760CA
:1000D000904E310001F024FC050000B24643BE1BE7
:1000E0003000642101F01CFCE080A58000B2642196
:1000F0004143701A2081F1BD38B50400207801F029
:100100006BFB0501607801F067FB284332BD70B5D9
:1001100004000D000020002A03D0022A1AD009D3BF
:1001200070BD605D01F058FB06000A20464360196F
:10013000407826E0605D01F04FFB060064204643F6
:100140006019407801F048FB0A21484336186019CD
:10015000807816E0605D01F03FFB0600FA20800029
:1001600046436019407801F037FB64214843361854
:100170006019807801F030FB0A2148433618601975
:10018000C07801F029FB301870BD38B505000C00AF
:1001900000220021FFF7BBFF20800022022128005F
:1001A000FFF7B5FF6080002204212800FFF7AFFFB2
:1001B000A08031BD38B505000C0002220021FFF7F8
:1001C000A6FFE080002204212800FFF7A0FF208185
:1001D000002206212800FFF79AFF608131BD000050
:1001E000F1B582B00E000024012069460870002E8F
:1001F0002BD00025A94F302168B230225043381847
:1002000001F0CEFB6D1C68B23028F4DB0025002025
:100210000196002605E00A54401C01E06D1C0124F3
:10022000761C01998A5D0A2A0ED03021694379181B
:100230002C2A01D02A2AEED100220A5436A13800F5
:1002400001F0CAFB0028E9D0002C5FD00A2200216F
:1002500090204000381801F01FFB029C012801D0BB
:10026000002801D136216054210038003030FFF7DA
:1002700027FF00213800603001F0C6FD2200103257
:1002800003C29020385C2821605400213800C0301F
:1002900001F0BAFD2200183203C2F020385C292197
:1002A00060540A220021A8204000381801F0F4FA16
:1002B000A0860021C0204000381801F021FF2063F3
:1002C0000021D8204000381801F01AFF01F02AFF61
:1002D0002200203203C2F0204000385C2A21605402
:1002E0000A22002184208000381801F0D5FA2087E6
:1002F00090208000385C3A216054B4208000381887
:10030000FFF7FAFE2064002069460870684600780E
:10031000FEBD000010270000244750474741000061
:10032000F1B584B00D0000200290012069460870EC
:10033000002D53D00024594F302160B23022504359
:10034000381801F02DFB641C60B23028F4DB002665
:1003500000240021039507E05054491C03E0641C6D
:10036000019901200290761C0398805D0022019281
:100370000A2831D030226243BA182C2801D02A280A
:10038000EAD100205054012545A1380001F024FB9A
:10039000002800D1019D00BF43A1380001F01CFBE3
:1003A000002800D1019D00BF41A1380001F014FBDD
:1003B000002800D1019D00BF3FA1380001F00CFBD7
:1003C000002800D1019D00BF3DA1380001F004FBD1
:1003D0000028C4D0002DC2D0029800285CD0049D13
:1003E00020223900280001F0B7FE29002031380012
:1003F0003030FFF765FE00213800603001F004FD69
:100400002A00303203C22C0048349020385C20701F
:1004100000213800C03001F0F7FC2A00383203C256
:10042000F020385C607090204000385C2072A8207A
:100430004000385C60720A220021C0204000381859
:1004400001F02AFA60810021D8204000381801F01C
:1004500057FEE0600021F0204000381801F050FE07
:1004600001F060FE2864696400218420800038184F
:1004700001F046FE206190208000385C20759C20B1
:100480008000385C6075A82080003818FFF734FEC3
:10049000A061019869460870BDE10000981900202C
:1004A000244750474E530000244741474E53000015
:1004B000244244474E53000024515A474E530000F3
:1004C00024474E474E530000F1B582B00E00002481
:1004D000012069460870002E68D00025D04F3021D9
:1004E00068B230225043381801F05AFA6D1C68B2D5
:1004F0003028F4DB002500200196002605E00A5490
:10050000401C01E06D1C0124761C01998A5D0A2AB9
:100510000ED03021694379182C2A01D02A2AEED135
:1005200000220A5423A1380001F056FA0028E9D02D
:10053000002C3BD0029C210038003030FFF7C0FD7A
:1005400000213800603001F0DBFDE0600021380060
:10055000903001F0D5FD206100213800C03001F05D
:10056000CFFD606100213800F03001F0C9FDA061CD
:10057000002190204000381801F0C2FDE061002108
:10058000A8204000381801F0BBFD20620021C020E7
:100590004000381801F0B4FD6062D82040003818DF
:1005A000FFF7AAFDA062002069460870684600783F
:1005B000FEBD00002447504753540000F1B582B0FF
:1005C0000F000024012069460870002F7BD0002511
:1005D000934830216AB230235A43801801F0E0F981
:1005E0006D1C68B23028F3DB00260025002106E0F0
:1005F0005854491C02E06D1C00210124761CB85D92
:100600000A2810D0864A30236B43D3182C2801D0F7
:100610002A28EDD1104600225A5400BF2BA101F028
:10062000DBF90028E7D0002C4DD0029D7C4C29003E
:1006300020003030FFF744FD6020205C287300214B
:100640002000903001F0E0FB2A00103203C2C020ED
:10065000205C2821685400212000F03001F0D4FBF8
:100660002A00183203C290204000205C29216854DF
:100670000021A8204000201801F042FD286300213D
:10068000C0204000201801F03BFD68630A220021D1
:10069000D8204000201801F0FFF8A8630021F020C6
:1006A0004000201801F02CFDE86384208000205CCD
:1006B000402168549C2080002018FFF71DFD6864CD
:1006C00000206946087068460078FEBD24475052F5
:1006D0004D430000F1B584B00C00002001900120D2
:1006E00069460870002C57D0002530214C486AB26A
:1006F00030235A43801801F053F96D1C68B230283A
:10070000F3DB002100270020039402910024444ED3
:1007100009E00A54401C03E07F1C002001210191E4
:100720000299491C02910399029A8A5C0A2A31D0E3
:1007300030237B43F1182C2A01D02A2AE9D10C540A
:10074000012500BF37A1300001F046F9002800D193
:10075000002500BF35A1300001F03EF9002800D18E
:10076000002500BF33A1300001F036F9002800D188
:10077000002500BF31A1300001F02EF9002800D182
:10078000002500BF2FA1300001F026F90028C3D0BA
:10079000002DC1D0019800283DD0049D374620226D
:1007A0003900280001F0D8FC3020385C2021685442
:1007B0000A2200213800603001F06EF868840026BB
:1007C0000A220021302060433818903001F064F88C
:1007D000A10069184862641C0C2CF1DB0021B420D4
:1007E0008000381801F08CFC68650021C020800072
:1007F000381801F085FCA8650021CC20800038184D
:1008000001F07EFCE865D82080003818FFF774FC02
:100810002866684606706846007805B0F0BD00009E
:1008200098190020244750475341000024474C4763
:1008300053410000244741475341000024424447AC
:100840005341000024474E4753410000F1B586B0A4
:100850000C00002003900027012069460870002C3E
:100860005FD00026634D302170B2302250432818EB
:1008700001F096F8761C70B23028F4DB002001906D
:10088000049402902E460AE00A54401C04E00298A8
:10089000401C0290002001270199491C01910499F4
:1008A000019A8A5C0A2A3BD0029B30246343F118E8
:1008B0002C2A01D02A2AE7D100240C54012500BF9C
:1008C0004DA1300001F088F8002800D1002500BFBC
:1008D0004BA1300001F080F8002800D1002500BFB6
:1008E00049A1300001F078F8002800D1002500BFB0
:1008F00047A1300001F070F8002800D1002500BFAA
:1009000045A1300001F068F8002800D1002500BFA3
:1009100043A1300001F060F80028B8D0002DB6D017
:10092000002F62D0069C2021200001F03BF800201F
:1009300020846084E084A0840025082120002830E1
:100940002A065215801801F02BF86D1C68B20C288D
:10095000F3DB20223146200001F0FEFB0A220021B9
:10096000534800F099FF20840A220021514800F0EA
:1009700093FF60840A2200214F4800F08DFFA0847D
:1009800001260694039F0698F90044181948C021CF
:10099000714345180A220021280000F07DFF2085C0
:1009A0000A2200212800303000F076FF60850A22FC
:1009B00000212800603000F06FFFA0850A2200218E
:1009C0002800903000F068FFE0852820205E002895
:1009D00004D00698C08C401C0699C8847F1C761CE5
:1009E000052ED0DB0020694608706846007807B005
:1009F000F0BD0000981900202447504753560000CE
:100A000024474C47535600002447414753560000A3
:100A1000244244475356000024515A47535600007D
:100A200024474E4753560000F1B582B00D00002711
:100A30000024012069460870002D35D00026A94801
:100A4000302172B230235A43801800F0A9FF761C7F
:100A500070B23028F3DB002600210195002506E066
:100A60005854491C02E06D1C00210124761C019899
:100A7000805D0A280FD09B4A30236B43D3182C2863
:100A800001D02A28ECD110465F5400BF0BA100F022
:100A9000A3FF0028E7D0002C06D0029820220449AA
:100AA00001F05AFB6846077068460078FEBD0000FA
:100AB000C8190020F8190020281A00202450535487
:100AC0004D56455200000000F1B584B00C000026E0
:100AD000012069460870002C63D000258148302130
:100AE0006AB230235A43801800F05AFF6D1C68B276
:100AF0003028F3DB0027002002940196794C08E0AF
:100B00000A54401C02E07F1C002001260199491C68
:100B100001910299019A8A5C0A2A41D030237B43D1
:100B2000E1182C2A01D02A2AEAD100220A540125F0
:100B300073A1200000F050FF002800D1002500BF65
:100B400074A1200000F048FF002800D1002500BF5C
:100B500076A1200000F040FF002800D1002500BF52
:100B600077A1200000F038FF002800D1002500BF49
:100B700079A1200000F030FF002800D1002500BF3F
:100B80007AA1200000F028FF002800D1002500BF36
:100B900055A1200000F020FF0028B4D0002DB2D0D5
:100BA000002E00D19DE0049D55A1200000F014FF0F
:100BB000002801D128701BE056A1200000F00CFF96
:100BC000002801D1287012E058A1200000F004FF95
:100BD000002803D101202870002009E0022600BF70
:100BE00057A1200000F0F8FE002803D12E7001204C
:100BF000687073E02700903757A1200000F0ECFEEA
:100C000000281AD12E70A91C20003030FFF7BDFA41
:100C1000A91C20006030FFF7CDFA00240A22002131
:100C200030206043381800F037FE29003831A20028
:100C30008850641C082C51D2F0E700BF4BA1200063
:100C400000F0CAFE002849D103202870A91C20000A
:100C50003030FFF79AFAA91C20006030FFF7AAFA9B
:100C60000A220021380000F017FEE8810021200050
:100C7000C03001F0C9F82A00103203C20021200060
:100C8000F03001F0C1F82A00183203C20021902090
:100C90004000201801F0B8F82A00203203C20021D9
:100CA000A8204000201801F0AFF82A00283203C223
:100CB0000021C0204000201801F0A6F82A003032A0
:100CC00003C20A220021D8204000201800F0E4FDD1
:100CD000290038310E22AA5E920088500020694611
:100CE000087098E598190020245053544D47454FFB
:100CF00046454E43455245514552524F5200000021
:100D0000245053544D43464747454F46454E43456F
:100D10004F4B0000245053544D43464747454F46E0
:100D2000454E43454552524F520000002450535403
:100D30004D47454F46454E43454346474F4B0000C0
:100D4000245053544D47454F46454E43454346472F
:100D50004552524F52000000245053544D47454FC6
:100D600046454E4345535441545553002450535423
:100D70004D47454F46454E4345000000F1B584B010
:100D80000D000027012069460870002D5FD0002665
:100D90004B4C302170B230225043201800F000FE3E
:100DA000761C70B23028F4DB0024002003950294F6
:100DB0000194434E0AE00A54401C04E00198401C90
:100DC0000190002001270299491C02910399029A7F
:100DD0008A5C0A2A3AD0019B30256B43F1182C2AF1
:100DE00001D02A2AE7D10C54012500BF35A13000DB
:100DF00000F0F2FD002800D1002500BF35A1300031
:100E000000F0EAFD002800D1002500BF36A1300027
:100E100000F0E2FD002800D1002500BF36A130001F
:100E200000F0DAFD002800D1002500BF37A1300016
:100E300000F0D2FD002800D1002500BF37A130000E
:100E400000F0CAFD0028B9D0002DB7D0002F36D051
:100E50003746049D1BA1380000F0BEFD002801D1DB
:100E60002C701EE01BA1380000F0B6FD002801D157
:100E70002C7020E0042600BF1BA1380000F0ACFD60
:100E800000280DD01CA1380000F0A6FD002811D0CC
:100E9000052600BF1DA1380000F09EFD002802D1EC
:100EA0002E706C7009E000BF1CA1380000F094FDAA
:100EB000002802D12E700120687068460470AAE4F0
:100EC00098190020245053544D4346474F444F4FE8
:100ED0004B000000245053544D4346474F444F4568
:100EE00052524F5200000000245053544D4F444F73
:100EF00053544152544F4B00245053544D4F444F80
:100F000053544152544552524F52000024505354AE
:100F10004D4F444F53544F504F4B000024505354A7
:100F20004D4F444F53544F504552524F52000000C2
:100F3000F1B584B00D000027012069460870002D2E
:100F400000D1D2E000246A48302162B230235A43F3
:100F5000801800F025FD641C60B23028F3DB00240B
:100F60000020039502940194614E0AE00A54401C4B
:100F700004E00198401C0190002001270299491CBF
:100F800002910399029A8A5C0A2A59D0019B302562
:100F90006B43F1182C2A01D02A2AE7D10C540125E1
:100FA00054A1300000F018FD002800D1002500BF3A
:100FB00054A1300000F010FD002800D1002500BF32
:100FC00055A1300000F008FD002800D1002500BF29
:100FD00056A1300000F000FD002800D1002500BF20
:100FE00057A1300000F0F8FC002800D1002500BF18
:100FF00057A1300000F0F0FC002800D1002500BF10
:1010000058A1300000F0E8FC002800D1002500BF06
:1010100058A1300000F0E0FC002800D1002500BFFE
:1010200059A1300000F0D8FC002800D1002500BFF5
:1010300059A1300000F0D0FC00289AD0002D98D0A3
:10104000002F52D03746049D2AA1380000F0C4FC7E
:10105000002801D12C703AE02AA1380000F0BCFC35
:10106000002801D12C703CE0062600BF2AA13800E0
:1010700000F0B2FC002829D02CA1380000F0ACFC14
:1010800000282DD0072600BF2DA1380000F0A4FCB9
:1010900000281BD02EA1380000F09EFC00281FD095
:1010A000082600BF2FA1380000F096FC00280DD0C4
:1010B00030A1380000F090FC002811D0092600BFB4
:1010C00031A1380000F088FC002802D12E706C702D
:1010D00009E000BF30A1380000F07EFC002802D1FA
:1010E0002E700120687068460470FFF794FB0000C2
:1010F00098190020245053544D4346474C4F474FB6
:101100004B000000245053544D4346474C4F474535
:1011100052524F5200000000245053544D4C4F4740
:101120004352454154454F4B000000002450535456
:101130004D4C4F474352454154454552524F520042
:10114000245053544D4C4F4753544152544F4B002D
:10115000245053544D4C4F475354415254455252CE
:101160004F520000245053544D4C4F4753544F504E
:101170004F4B0000245053544D4C4F4753544F5045
:101180004552524F52000000245053544D4C4F478B
:1011900045524153454F4B00245053544D4C4F47FB
:1011A00045524153454552524F520000F1B584B06B
:1011B0000D0000200190012069460870002D53D0D9
:1011C0000026A34C302170B230225043201800F08A
:1011D000E7FB761C70B23028F4DB002700260024E1
:1011E0000021039507E04254491C03E0641C0021E0
:1011F00001200190761C0398825D0A2A1CD0944835
:1012000030236343C0182C2A01D02A2AEBD1904AFC
:1012100002924754012500BF14A1029800F0DCFBA4
:10122000002800D1002500BF14A1029800F0D4FBD3
:101230000028DBD0002DD9D00198002814D0844D8F
:10124000049C00BF09A1280000F0C6FB002801D1C2
:10125000277007E009A1280000F0BEFB002801D19B
:101260000120207068460770FFF7D5FA24505354C8
:101270004D4346474D53474C4F4B00002450535469
:101280004D4346474D53474C4552524F5200000084
:10129000F1B584B00D00002001900120694608706E
:1012A000002D53D000266A4C302170B230225043BA
:1012B000201800F075FB761C70B23028F4DB002794
:1012C000002600240021039507E04254491C03E056
:1012D000641C002101200190761C0398825D0A2A7B
:1012E0001CD05B4830236343C0182C2A01D02A2A23
:1012F000EBD1574A02924754012500BF14A102982E
:1013000000F06AFB002800D1002500BF14A102985C
:1013100000F062FB0028DBD0002DD9D00198002816
:1013200014D04B4D049C00BF09A1280000F054FBD1
:10133000002801D1277007E009A1280000F04CFB2C
:10134000002801D10120207068460770FFF763FA7A
:10135000245053544D534156455041524F4B000079
:10136000245053544D534156455041524552524FCB
:1013700052000000F1B584B00C0000200190012063
:1013800069460870002C61D00025302130486AB2CF
:1013900030235A43801800F003FB6D1C68B23028DC
:1013A000F3DB0027002600200294002407E00A5403
:1013B000401C03E0761C0020012101917F1C029952
:1013C000CA5D0A2A1AD0224930237343C9182C2A2D
:1013D00001D02A2AEBD10C54012500BF1DA11C48C5
:1013E00000F0FAFA002800D1002500BF1EA118481D
:1013F00000F0F2FA0028DDD0002DDBD001980028A3
:1014000024D0049E37008037114D00BF11A1280061
:1014100000F0E2FA00280ED14022290030313000DD
:1014200000F09AFE4022290060313000403000F088
:1014300093FE3C7008E000BF0BA1280000F0CCFA3E
:10144000002801D10120387068460470FFF7E3F9E5
:1014500098190020245053544D5354414750533849
:101460005041535352544E00245053544D53544101
:10147000475053385041535347454E4552524F52AF
:1014800000000000F1B584B00D000026012069467F
:101490000870002D00D105E10027834C302178B27F
:1014A00030225043201800F07BFA7F1C78B230289D
:1014B000F4DB002701970020029508E00A54401C45
:1014C00002E07F1C002001260199491C019102992C
:1014D000019A8A5C0A2A00D173E0302179436118AD
:1014E0002C2A01D02A2AE9D100220A54012500BF62
:1014F0006EA1200000F070FA002800D1002500BF86
:101500006EA1200000F068FA002800D1002500BF7D
:1015100070A1200000F060FA002800D1002500BF73
:1015200073A1200000F058FA002800D1002500BF68
:1015300075A1200000F050FA002800D1002500BF5E
:1015400077A1200000F048FA002800D1002500BF54
:1015500079A1200000F040FA002800D1002500BF4A
:101560007BA1200000F038FA002800D1002500BF40
:101570007DA1200000F030FA002800D1002500BF36
:101580007FA1200000F028FA002800D1002500BF2C
:1015900081A1200000F020FA002800D1002500BF22
:1015A00084A1200000F018FA002800D1002500BF17
:1015B00084A1200000F010FA002800D0002D00D1F6
:1015C0007FE7002E00D16DE02646049C37A1300055
:1015D00000F002FA002809D10A2020700A22002116
:1015E0003000303000F058F9606058E00B2500BF43
:1015F00032A1300000F0F0F9002845D035A13000CC
:1016000000F0EAF9002847D00C2500BF38A13000CF
:1016100000F0E2F9002837D03BA1300000F0DCF9FF
:10162000002839D00D2500BF3DA1300000F0D4F9CD
:10163000002829D040A1300000F0CEF900282BD09E
:101640000E2500BF42A1300000F0C6F900281BD0D3
:1016500045A1300000F0C0F900281DD00F2500BFC3
:1016600047A1300000F0B8F900280DD04AA13000A1
:1016700000F0B2F900280FD0102500BF4DA13000B6
:1016800000F0AAF9002801D1257007E04DA1300033
:1016900000F0A2F9002802D125700120207200205C
:1016A00069460870FFF7B7F8981900202450535482
:1016B0004D414750535354415455530024505354B3
:1016C0004D53544147505353454544424547494E75
:1016D0004F4B0000245053544D53544147505353E3
:1016E000454544424547494E4552524F520000003D
:1016F000245053544D535441475053424C4B54592A
:1017000050454F4B00000000245053544D5354415A
:10171000475053424C4B545950454552524F52003A
:10172000245053544D535441475053534C4F5446F7
:1017300052514F4B00000000245053544D5354411C
:10174000475053534C4F544652514552524F5200FA
:10175000245053544D5354414750535345454450DE
:101760004B544F4B00000000245053544D535441F0
:1017700047505353454544504B544552524F5200E5
:10178000245053544D5354414750535345454450AE
:10179000524F504F4B000000245053544D5354416E
:1017A0004750535345454450524F504552524F5263
:1017B00000000000245053544D494E495454494DA3
:1017C000454F4B00245053544D494E495454494DB4
:1017D000454552524F520000010000200A001300FC
:1017E000303B0A2B02D208003038C0B21300413B14
:1017F000062B03D208004138C0B20A30613A062AEB
:1018000003D26139C9B20A3108007047F7B50D003B
:101810001E00002D00D16D460190044600E0641CBE
:10182000207800F0AAFC0028F9D127782D2F01D0CC
:101830002B2F06D1641C207800F09FFC00280AD1D1
:1018400000E02B27029A33002900200000F09EFCC4
:1018500029688C4203D101982860002005E02B2FD5
:1018600005D180210906884207D203B0F0BD2D2F93
:10187000FBD18021090688420BD900BF00BF002E92
:1018800001D0012030602D2F01D10846EDE7C8437B
:10189000EBE741420800E8E780B50023FFF7B6FF19
:1018A00002BDF1B401684218416848081318009855
:1018B0008068C9071ED5494640181BE01778521C9E
:1018C0000770401C761EF9D1002C13D01678521CDC
:1018D00089080D40032D01D11578521C2902711879
:1018E0004D424119A41C05D00D78491C0570401CBF
:1018F000641EF9D19A420FD01178521C0325032699
:101900000E4002D11678F61C521C0C090F2CD9D1AE
:1019100014780F34521CD5E700980C30F2BC704795
:10192000CA0F00D0494203105A400DD004B500D36D
:10193000404200F009F8009AD20701D3494212420E
:1019400000D5404204BD0000094214D088420FD3A4
:101950000122030C01D100041204002300185B4192
:101960008B4200D35B1A5241F8D319001000704724
:1019700001000020704708B500F0AEFC08BD2E0045
:101980001206130A1A43130C1A4300BF094205D06A
:10199000830709D00270401C491EF9D1704700002E
:1019A0000022F3E70022FFE71300103906D330B41A
:1019B0001400150010393CC0FCD230BC490700D3DC
:1019C0000CC000D504C0890002D30280801C00290D
:1019D00000D502707047430002780B78002A03D0CC
:1019E000401C491C9A42F7D0D01A7047F8B5A2A6FD
:1019F000C0CE0F40002480256D03AF4203D24F407C
:101A00000020390009E03E0D9D4C0025ED43A4194E
:101A10002E46A24F0F409B49394300F05EFC0A005E
:101A200013005D006D0D2C19002D11D0002C0FDD61
:101A3000750DAC4206DB2805802109060A400243E9
:101A4000002009E0954A1A40230513431900F4BD0C
:101A50000020802109060A401100F4BDFBB584B0C6
:101A6000140000D101E184A6C0CE04A803C802AAD4
:101A700003C202A803C8394002D1002800D1F4E013
:101A800004A803C8080041004915491C02D10003FD
:101A900000D1EAE000227C4B002C00D486E06042BA
:101AA000414D7D44FF35ED1C082604000AE0E007A7
:101AB00005D503CD083D00F010FC02000B006408C2
:101AC0000835761E002C01D0002EF0D102A803C8E4
:101AD0006D4603C5684603C80026F64306400F401E
:101AE000802149038F4205D20025684603C846403D
:101AF0004F400CE03E0D65A003C88519684603C839
:101B000064A6C0CE06400F405E4939430F00300046
:101B1000390000F0A4FC0A0013005E00760D751970
:101B2000002E11D0002D0FDDB24EB54206DB300580
:101B3000802109060A400243002009E0574A1A4062
:101B40002B051343190004E00020802109060A40F8
:101B5000110004AA03C248A6C0CE04A803C8394095
:101B600001D100286AD004A803C808004100491523
:101B7000491C01D1000361D0002C5FD004A803C828
:101B800098A20CCAFFF732FF32003B0002400B4024
:101B900001D1002A50D04B005B155B1C01D10A0318
:101BA0004AD0641E48D0EBE79005010046DD314D78
:101BB0007D44FF353F3D082601273C4205D003CD3B
:101BC000083D00F08AFB02000B0064100835761E09
:101BD000002C01DD002EF0D104A803C8FFF706FF9A
:101BE00004AA03C20026F643770804A803C83940B4
:101BF00001D1002822D004A803C8080041004915DB
:101C0000491C01D1000319D0002C17DD04A803C81A
:101C10007AA20CCAFFF7EAFE32003B0002400B40FA
:101C200001D1002A08D04B005B155B1C01D10A03CF
:101C300002D0641E002CEBDC04AA03C204A803C873
:101C400006400F4001D1002E06D008004100491582
:101C5000491C0AD1000308D1069C00BF00BF002C1C
:101C600003D0206801210143216004A803C807B004
:101C7000F0BD00BFC4040100FFFFFFFFFFFFFF7FB7
:101C800002FCFFFF0000E03F0000F03F02FCFFFF0E
:101C9000FFFFFFFFFFFFFFFFFFFF0F80FFFF0F8032
:101CA000F9B587B01500002B01D0002018600E0098
:101CB000079C07A800F034FC0107CA0F0592082111
:101CC00088430495012829D10220009001AB3200FD
:101CD0000799200000F0B0FC050002D1002000218F
:101CE00017E0029800F0A2FD022D12DB01AC0834CF
:101CF0006D1E00223D4B00F0F0FA06000F00206838
:101D000000F094FD32003B0000F09AFD241D6D1E92
:101D1000EFD1089B049A019C12194BE002284CD188
:101D2000009001AB32000799200000F063FE05002F
:101D300002D1002200231BE0029800F077FD020090
:101D40000B00022D14DB01AC08346D1E0020284965
:101D500000F0C3FA06000F00206800F067FD3200B3
:101D60003B0000F06DFD02000B00241D6D1EEDD147
:101D70001C00200041004D0D01996918002D12D062
:101D8000002910DD1B4DA94206DB2805802109062C
:101D90000C40044300200AE0174C0440080520438F
:101DA0000100100004E00020802109060C40210001
:101DB000089B049AFFF752FE0CE0032802D1002092
:101DC000104907E0042803D10020C043410801E086
:101DD00000200021059A002A02D0802212065140DC
:101DE00009B0F0BD436FAC642806C80A65CDCD418B
:101DF0000000B041FF070000FFFF0F803CBF737F72
:101E0000DD4F15750000F07F80B500230022FFF73D
:101E100047FF04BD38B502005000400880231B0472
:101E2000984202D20024504006E0C40D7E3CAF4BE5
:101E30001340FC208005184300F0F8FE01004A0022
:101E40005208D50D2B19002D0FD0002B0DDDFF2BC7
:101E500006DBFF21C905802212061040084332BD6F
:101E6000A24A0A40D805104332BD1000484032BD96
:101E7000F4B50400002900D1A2E02500680000D1DB
:101E80009EE06A001216521C02D1680200D197E04F
:101E9000FE208005002955D54C4200BF9BA6052792
:101EA00007E0E10702D5316800F0C0FE6408361D86
:101EB0007F1E002C01D0002FF3D101002600680006
:101EC000400880221204904202D20024684006E0BA
:101ED000C40D7E3C854A2A40FC208005104300F05A
:101EE000FDFE020051004908CD0D2B19002D10D028
:101EF000002B0EDDFF2B07DBFF21C905040080202E
:101F0000000604400C4306E078481040DC0504431A
:101F100001E00C005440610042D00916491C01D177
:101F200060023DD0002E3BD020007149FFF772FFC8
:101F3000420034D01216521C01D141022FD0761E1D
:101F40002DD0F2E72CDD00BF70A605270D00E907B4
:101F500002D5316800F06AFE6D10361D7F1E002D1F
:101F600001DD002FF3D101002000FFF753FF040033
:101F7000410015D00916491C01D1400210D0002D96
:101F80000EDD20005B49FFF745FF420007D0121627
:101F9000521C01D1410202D06D1E002DF2DC040062
:101FA000610004D00916491C0AD1600208D1009DC5
:101FB00000BF00BF002D03D0286801210143296024
:101FC0002000F2BDF9B585B01500002B01D000202E
:101FD00018600E00059C05A800F0A2FA0107CA0FC0
:101FE0000492082188430395012826D1009001AB73
:101FF00032000599200000F01FFB040001D10020F1
:1020000016E0029800F0CCFE012C11DD01AE08367E
:10201000641E394D290000F009FE0700306800F009
:10202000BFFE0100380000F0C6FE361D641EF1D16F
:10203000069A0399019BC91842E0022843D1012066
:10204000009001AB32000599200000F0D3FC0400A1
:1020500001D1002017E0029800F0A2FE012C12DD51
:1020600001AE0836641E9B25ED05290000F0DEFD5B
:102070000700306800F094FE0100380000F09BFE7D
:10208000361D641EF1D101004B005B08DC0D019A86
:10209000A218002C10D0002A0EDDFF2A07DBFF213A
:1020A000C9058022120610400843030005E00F48CE
:1020B0000840D305034300E04B40069A03991800FB
:1020C000FFF7D6FE09E0032802D1FF20C00504E097
:1020D000042801D1094800E000200499002902D019
:1020E00080210906484007B0F0BD0000FFFF7F8057
:1020F0001EB14F0AAEC59D74286B6E4EFFFFFF7F69
:1021000080B500230022FFF75DFF02BD00002041E3
:102110000000C84200401C4620BCBE4CCA1B0E5AE0
:10212000AEC59D74012212060118CA420AD28A4223
:102130000DD83822120609098918C20FD207114397
:102140004007704700D049080909014301E0C10F69
:10215000C90700207047FEE7A4460024521E0AD398
:102160000B5D0355641C1B42F8D1521E03D303556B
:10217000641C521EFBD26446704710B5040000F088
:10218000C9FE01002000096A884710BDFCB587B070
:102190000C001500002B01D00021196003900646A9
:1021A00000E0761C3078FFF7E8FF0028F9D1300016
:1021B00001782D2901D02B2903D16A461170401CCA
:1021C00002E02B216A4611700194002D03D4012DE9
:1021D00001D0252D04DB002C54D00398206051E061
:1021E000002D0ADD102D16D10178302913D1417848
:1021F00020220A43782A0ED10AE00178302901D042
:102200000A2508E0417820220A43782A02D11025C5
:10221000801C00E00825069000E0401C0178302971
:10222000FBD0002405902B4A7A44A83228326B4612
:102230005A700295049F05000494264E7E449436FD
:1022400008E0049469464978471AFFB2029844436B
:10225000E4196D1C287800F067FE029A0100300036
:10226000283000F06BFE0028EBD1029938002F00D7
:10227000049D069ABA4207D10198002802D003981B
:1022800001990860002022E0059ABA1A735CD21AFC
:10229000002A11D405DC201A03D3FFF755FBA8420E
:1022A0000AD000BF00BF0898002802D0012008997A
:1022B00008600024E44305E0684600782D2801D139
:1022C000604204000198002800D00760200009B097
:1022D000F0BD00BF44FD00007047F0B50E005E4049
:1022E0000125ED072E40B446AE0ADF184C18F44223
:1022F00008D2F7420ED2640D01D07F0D12D100201A
:102300006146F0BD05D1F74201D87F0D05D100200F
:10231000C143F0BDFBD1640DF9D00020C143490594
:1023200049088FE0E419C902DB0229432B43DB0A89
:10233000460DC00231438E4630B487B295B27D431C
:102340002E0CADB2140C7C43A419260C2404254396
:102350009CB27C43A419190C7943270CC919A4B267
:102360000F043C43090C000C97B247432E0CBE19D6
:102370003543ADB2170C4743360CBF19A6B2BF198F
:102380003E043543240C3E0C36199FB24743BF1917
:10239000BCB23E0C89191F0C47437F183E043443DE
:1023A000390C704680B297B247432E0CBE193543A4
:1023B000ADB2170C4743360CBF19A6B2BF193E0485
:1023C0003543240C3E0C36199FB24743BF19BCB2AB
:1023D0003E0C89191F0C47437F183E043443390CC7
:1023E00077463F0C90B278432E0C80190604ADB2AC
:1023F0002E43050CA0B22D18120C7A435019020C72
:1024000080B2240CA4189AB27A43121914042043FF
:10241000120C89181B0C7B43C91830BCEF0A3942D7
:1024200003D1B61940414941641E6F12BF0DE41B30
:102430000BDBFF19BC4211DA240500274208AE412C
:102440007841614166463143F0BD641C05D1401CB2
:102450006141CF0201D34908F4E750E75DE7F0B4EA
:102460000E005E400125ED072E40B446AE0ADF188F
:102470004C18F4423BD2F74241D2640D43D07F0D59
:1024800038D0E41BC902DB0229432B43CF0ADB0A05
:102490000600B61A9F4104D2641EB6197F41B618D1
:1024A0005F416812800D24180018844222DAE80C7B
:1024B0000021B6197F41B61A9F4102D2B6185F417A
:1024C0003F1C40414941F4D3241C21DD2405B619A9
:1024D0007F41B61A9F4105D33743C60737430026CD
:1024E000012F7041614166463143F0BC7047FCD119
:1024F000F74205D20020C14349054908F3E704D05B
:102500000020C143F1E77F0DFAD000206146ECE7DF
:102510002442FAD1401C61410F03F6D30020E2E7C8
:10252000F1B582B00E0004680027002500E0641CAD
:102530002078FFF722FE0028F9D120782D2801D13C
:10254000082501E02B2800D1641C217820202022BE
:102550000A4300966E2A25D161780143612903D18F
:10256000A17808436E2802D00298046815E0E41CA4
:1025700025000427287828280FD16D1C2E783000DC
:1025800000F0E7FC0028F8D1303E0A2EF5D3287879
:102590005F28F2D0292800D16C1C0098002846D072
:1025A000046044E0692A26D1617801436E2903D191
:1025B000A1780143662902D00298046817E0E41C60
:1025C00003272F4321780143692910D16178014302
:1025D0006E290CD1A1780143692908D1E178014322
:1025E000742904D121790843792800D1641D002E73
:1025F0001DD034601BE0302917D16178084378285A
:1026000013D1A01C01782E2900D1401C00780100B4
:102610006139062906D301004139062902D3303831
:102620000A2802D2A41C022700E001272F430298A7
:102630000460380003B0F0BDF5B591B00D0019008D
:10264000189A00200290D3009A182D2A00DD2D221E
:10265000086048600027012301E06D1C01272C78E9
:10266000302CFAD00026009305AC18920FE00A68CF
:10267000521C0A602A78302A07D0009805E0189B7F
:102680009E42F4DA303AA255761C6D1C009F2A78DF
:102690001300303B0A2BF2D30191039000F03CFC75
:1026A0002978406A0078814200D16D1C002E019883
:1026B0000ED1297830290BD10168491E01606D1CAB
:1026C000009FF6E7302901D0009903916D1C009F0F
:1026D00029780A00303A0A2A09D2189A9642F1DA81
:1026E0003039A155761C0168491E0160EEE701955D
:1026F0001899039A0397002A04D0621E525C521C58
:10270000631E5A54050007E0601E805D002809D151
:102710002868401C2860761E002EF5DC02D10020BF
:102720002070009E0398002860D0002004900924A7
:1027300030000921FFF7F4F8641A20000921FFF79F
:10274000EFF8002901D000980290029F0296049EA3
:1027500018E0B800281801688A0051184900009A4A
:10276000891801600CE005A8805D00902000092117
:10277000FFF7D6F80029ECD17F1C0098B90068500B
:10278000641C761C02988642EDDB02970198007863
:1027900020210143652929D1019800900198431C0B
:1027A0001C782B2C01D02D2C01D15B1C00E02B249C
:1027B0000026002109E0144EB14204DA8E0071189F
:1027C0004900091830395B1C012618780700303F92
:1027D0000A2FF0D301932D2C01D148420100286823
:1027E00040182860002E01D100980190129900290C
:1027F00006D00398002801D0019800E011980860E5
:10280000029813B0F0BD00BF00E1F50501004222BF
:102810001201D21E004207D002D4521E0018FCD56D
:10282000C10A400512058918704700000100EED565
:102830004042F446FFF7EBFF0122D2071143604705
:10284000F0B40125ED070F005F404FD48B4200D15B
:10285000824205D98446100062468C4619006346C0
:10286000DF184C18640D7F0D3AD0661C760537D002
:10287000E61B352E34DCDB022B43DB0A0C0DC902D0
:102880002943C912202E0DDB1700203E06D01F0061
:10289000F741F3405F400026012A7741C01871419B
:1028A0000DD217E01700F741F2405740F3415A406C
:1028B000B340F3405A400026801859410AD3A21C65
:1028C00052050FD0C207012F724117004008CB07F5
:1028D00018434908641C24054208AF417041614116
:1028E000F0BC7047641C21050020F9E76B4010E044
:1028F0006B40ABE7F742F3D1E943F1E72442EFD174
:1029000000200021ECE7F0B40125ED070F005F4047
:10291000EED40C00871A9C4105D2C01BA141D219EC
:10292000634169406B40AE0ADF184C18F442E1D2B3
:10293000640D7F0DE2D0E61B362ED1DCDB022B438B
:10294000DB0AA4460C0DC9022943C90A012E28DC62
:1029500004D1D6075208DF073A435B08EF0A7642F4
:102960009041994114D039423BD1B6194041494177
:10297000761C394204D1761C001849413942FAD0FC
:10298000B9436746B74208D9A41B24052143A7E7EA
:102990000042EAD13642E8D1A2E7E40AE10700208A
:1029A0009EE7202E0BDD203E1F00F340F7415F40E5
:1029B000012A002257417E42984191410BE01700C5
:1029C000F741F2405740F3415A40B340F3405A4078
:1029D0007E42904199410A0303D2641EB6194041D8
:1029E00049410027641E24054208AE4178416141F7
:1029F000F0BC7047F5B58FB0169800220392C20064
:102A0000101A232800DD232000221A605A600026B5
:102A100001E0491C01260C78302CFAD0002400BFBC
:102A200076A20092012202920D001F00169010E083
:102A30003868401C38600AE01699A142F8DB00BFF4
:102A400074A1009A801A085C05A90855641C6D1CC5
:102A5000029E00BF69A01622297800F06FFA0028B4
:102A6000EAD104970196270000F056FA2978406AC7
:102A70000078814200D16D1C002F0BD12C00049EE8
:102A8000019D2078302819D13068401E3060641CC8
:102A9000029DF6E72C00049E019D0FE01699B942B5
:102AA0000ADB00BF5BA1009A801A085C05A9C85523
:102AB0007F1C3068401E3060641C029D1622217805
:102AC0004EA000F03BFA0028E8D10094169801953A
:102AD000B84218DA05A9095C072906DD05A9491ECF
:102AE000095C491C05AA521E115407003068401C9D
:102AF000306008E005A8401EC05D00280AD130689B
:102B0000401C30607F1E002FF4DC03D1002069469A
:102B10000875029F306880003060019800285ED000
:102B200000200490072438000721FEF7F9FE641AFC
:102B300020000721FEF7F4FE002901D0029803903F
:102B4000039D0397049F16E0A8003018016809014F
:102B5000029A891801600CE005A8C05D029020006F
:102B60000721FEF7DDFE0029EED16D1C0298A900B9
:102B70007050641C7F1C03988742EDDB039500981E
:102B8000007820210143702929D1009802900098F3
:102B9000431C1C782B2C01D02D2C01D15B1C00E098
:102BA0002B240025002109E0134DA94204DA8D00F1
:102BB00069184900091830395B1C0125187807008D
:102BC000303F0A2FF0D300932D2C01D14842010051
:102BD000306840183060002D01D1029800901099A3
:102BE000002906D00198002801D0009800E00F9835
:102BF0000860039811B0F0BD00E1F50530313233C3
:102C0000343536373839616263646566414243441E
:102C100045460000000102030405060708090A0BE7
:102C20000C0D0E0F0A0B0C0D0E0F000030B405003A
:102C30004D400122D20715404B180418240E2ED007
:102C40001B0E32D0FF2C34D0FF2B3AD0E4180002F8
:102C5000090210431143000A090A9446C2B24A43CA
:102C6000000AC3B24B43000A4843110A5B181A43D7
:102C7000D2B2190A091801D44918641E080A7F3C07
:102C800023DBFE2C08DAE40509061143634699416B
:102C90006041284330BC7047FF20C005F9E7280099
:102CA0001B0EFF2BF6D1D043F4E72800FF2CF1D107
:102CB000F9E74002F7D1FF2B01D14902F3D1E0053A
:102CC000E7E7D8054902E4D0EDE743020020641CA1
:102CD000DFD15B129B1CDCD9D805DAE730B40500E4
:102CE0004D400122D20715404B180418240E25D060
:102CF0001B0E2CD0FF2C31D0FF2B34D0E41A000255
:102D000009021043114343084808D10D1B1A02D28F
:102D1000641EDB181B18DB18834200D31B1A4941C1
:102D2000F9D37F3423DDFF2C05DAE4054808604140
:102D3000284330BC7047FF20C005F9E728001B0E70
:102D400003D0FF2BF5D14902F3D0D043F1E7FF2C9C
:102D500001D14002F9D1FF20C005E9E74002F4D1DA
:102D6000FF2BF8D1F1E728004902E2D0EDE70B0292
:102D700000202442DCD15B129B1CD9D9D805D7E7AF
:102D80009D2102000AD002D4491E9218FCD5C90523
:102D9000100A1206524100D3012A48417047000030
:102DA0009D210200EED55242F446FFF7EBFF0122CF
:102DB000D207104360470122D20703004B402ED4B4
:102DC000431A01D2C01AC91830B44B180418240E83
:102DD0001B0E22D0FF2C20D0E31A182B1DDC090279
:102DE0001143C40D641E0002104394461925ED1AC8
:102DF0000A00AA40D940451801D36D08A41CE40577
:102E0000D209280A2D062A436546AA4160410318C3
:102E10001B0EFF2B01D3C00DC00530BC70475140C5
:102E200006E05140CCE70122D20703004B40F8D422
:102E3000431A03D2C01AC9185040514030B44B183D
:102E4000090211430418240E1B0E40D0FF2C3AD067
:102E500025009D410BD31ED8C50D4002401A0BD34F
:102E6000ED050100400AC90591416841D5E7C50D4E
:102E700040024918401AD0D001214008491C0018CE
:102E8000FCD58C4204D36D1A000AED054019C4E745
:102E9000E8051040C1E7182DBFDCAC1C0D00E14077
:102EA000E5414D40012D4941C40D00021043451A32
:102EB00001D46D199543641EE405280A2D06954139
:102EC000604130BC7047FF2BA7D1D843A5E724420F
:102ED000A3D10020A1E7FEE7613807E005E001008B
:102EE00061391A2901D20120704741381A288041DE
:102EF000C00F704701000939052901D3202801D1ED
:102F00000120704700207047010041391A2900D282
:102F100020307047024870470248704700000000A8
:102F2000500600201806002010B50400FFF7F2FF3D
:102F300001002000896A884710BDFEE7C9B2521E11
:102F400005D30378401C8B42F9D1401E7047002006
:102F5000704710B50400FFF7DDFF0100200009698C
:102F6000884710BDFEB596B0184A2623D35E002BC5
:102F700024D01300E833994220D001AB0C781C70A8
:102F80004C785C70022600910FE00099895D9C19D5
:102F9000F50708D52627D75FCD198D27D75DBD4208
:102FA00001DAD58C49192170761C8642EDD318A917
:102FB0000B78179A01A901F032FB04E018AA1378E4
:102FC000179A01F02CFB19B0F0BD00002C03002073
:102FD00080B5694680220A704870002300220220D2
:102FE00001F01DFB01BD38B586B0030008000024C8
:102FF00069460C704B7003E0135D0D19AB70641CD7
:103000008442F9D300230022801CC0B201F007FBE8
:1030100007B030BD70B5C2B00E0014006B46012180
:1030200019705870350004D0FF222900981CFEF753
:10303000A7FC002321AA6946B61CF0B201F0EFFA02
:10304000002004E021A9091889782154401CA842D5
:10305000F8D342B070BD0000FEB5A0B004000D0072
:103060000020069002A83C49102201F0E9FA48210C
:1030700007A8FEF797FC19A838491C2201F0E0FACE
:103080002298407900280CD10F2002A94872142000
:1030900088721820C8721E200873272048733620B3
:1030A00088736846047152230226032007210522F3
:1030B00007AC00956D462D79052D4AD801A76D0006
:1030C0007F5BBF440A009A00BE006E011C02B6027C
:1030D00021980370002002A9229A0B5C54791B19D5
:1030E0000B54401C0E28F8DD02AC00980699471CD2
:1030F000002383551579BD5585192B74CBB2E35C3C
:103100006B74491CB61C112EF2DD12230022040040
:103110001034E25402AACCB2145D05001135EC540F
:10312000491C9B1C222BF1DB002100230024009072
:1031300000985030654240190170DDB2555D457010
:103140005B1CA41C1F2CF3DD009800210170FF21E3
:10315000417023B0F0BD00BFE8210108F82101084B
:10316000219803700020009A1070FF21009A51707E
:103170000099229A4C1C88551379A355B61C512EE0
:10318000E7DCF8E7219D2B70002301E0092B01DC2F
:103190000125E5541D000A3D072D00D8E6541D0009
:1031A000123D062D00D8E0541D00193D052D01D813
:1031B0000425E5541D001F3D052D00D2E2541D00DD
:1031C000243D052D01D20625E5541D00293D042D81
:1031D00000D2E1545B1C2D2BD8DD1B2219A9200045
:1031E0002D3001F047FA002200212298635C4579D6
:1031F0005B196354491C4729F8DD00994D1C8A5519
:103200000379AB55B61C112EF9DD00230025009182
:103210000699009A6E4292195032CEB27742E61960
:10322000F67F8779F61956701370491CAD1C402D36
:103230008ADAEEE7219D2B700025002301E0092B9F
:1032400001DC0127E7541F000A3F072F00D8E6548E
:103250001F00123F062F00D8E0541F00193F052F12
:1032600001D80427E7541F001F3F052F00D2E25466
:103270001F00243F052F01D20627E7541F00293FD6
:10328000042F00D2E1545B1C2D2BD8DD1B2219A981
:1032900020002D3001F0EEF90020229E215C727991
:1032A00089182154401C4728F8DD00990D70FF2033
:1032B000009948700027069800997A428918503181
:1032C000220047329446C2B253426246D25CB3797E
:1032D000D2184A700D70401CBF1C502F00DB38E71D
:1032E000EAE7219D2B70002301E0092B01DC012579
:1032F000E5541D000A3D072D00D8E6541D00123D7F
:10330000062D00D8E0541D00193D052D01D80425D7
:10331000E5541D001F3D052D00D2E2541D00243D43
:10332000052D01D20625E5541D00293D042D00D2AE
:10333000E1545B1C2D2BD8DD1B2219A920002D3058
:1033400001F098F9002200212298635C45795B190D
:103350006354491C4729F8DD0699009DAA552300AE
:103360004733CDB26F42DB5D85795B19009D6D1CE3
:10337000AB55491CB61C502E4DDCEEE74223219D77
:103380002B70002301E0092B01DC0125E5541D0011
:103390000A3D072D00D8E6541D00123D062D00D829
:1033A000E0541D00193D052D01D80425E5541D00EC
:1033B0001F3D052D00D2E2541D00243D052D01D2F4
:1033C0000625E5541D00293D042D00D2E1545B1C67
:1033D0002D2BD8DD1B2219A920002D3001F04AF930
:1033E000002100222298A35C45795B19A354521C4A
:1033F000472AF8DD2822009DA95523004733D5B27E
:103400006F42DB5D85795B19009D6D1CAB55521CCD
:10341000B61C402EEFDD97E615488069704710B561
:10342000040000206071A0717F20607081202070F6
:10343000DC20E0700320A07001F030F900280CD0EF
:10344000022802D0032804D010BD2220607123205E
:103450000CE00748807F002803D11220A0700120D3
:1034600004E0042060710220A0710520207110BDCD
:103470002C030020F8B588B00700FFF7CDFF060049
:103480000024049469460C768025DD48864200D3EA
:103490007608012F00D08BE0612008760020FA2109
:1034A00049003200002301F0CFF984B20021D54A4F
:1034B00000231219300001F0FDF90022D24B12183E
:1034C0004B41029203930020FA21490000900191A0
:1034D00000216A0200231219300001F0EBF9009A72
:1034E000019B121A8B4102980399994203D801D388
:1034F000904200D2641C0494F4263606FFF78CFF39
:10350000BF49884225D3FFF787FF02000023300020
:10351000012101F099F90400FFF77EFF0600FFF793
:103520007BFF0021E2B20023521C01F0C3F9C0224C
:1035300012050123DB4312184B4102920393F4203E
:10354000000601210090019130000021E2B2002329
:103550002DE18125FFF760FF0200002330000121EB
:1035600001F072F90400FFF757FF0600FFF754FF60
:10357000002100900191E0B2FF22921C002312185A
:10358000009801F097F9C02212050123DB431218BD
:103590004B4102920393F420000601210090019117
:1035A0000021E0B280225200002312183000FEE019
:1035B000022F00D009E1CB4DAE4228D3632008761C
:1035C0000020C9493200002301F03EF984B20021F5
:1035D0008C4A00231219300001F06CF90022C34B11
:1035E00012184B41029203930020BF4900900191B1
:1035F00000218022520200231219300001F05AF9F2
:10360000009A019B121A8B41029803992AE06420C8
:10361000087600270020FF2178313200002301F0D6
:1036200013F984B20021774A00231219300001F007
:1036300041F9AF4B3A184B4104920593FF21783181
:1036400002970391009601978022520200231219DB
:103650000098002101F02EF9029A039B121A8B4167
:1036600004980599994203D801D3904200D2641C72
:103670000494FFF7D1FE6249884238D3FFF7CCFEAD
:103680009C49884235D38225FFF7C6FE02000023FD
:10369000DC200006052101F0D7F80400FFF7BCFE8E
:1036A0000600FFF7B9FE002100900191E0B2FF2271
:1036B000921C00231218009801F0FCF89022920549
:1036C0000523DB4312184B4102920393DC200006D2
:1036D0000521009001910021E0B2802252000023D8
:1036E0001218300001F0E6F8009A052363E0AE42BC
:1036F00033D38325FFF790FE02000023EE2000065F
:10370000022101F0A1F80400FFF786FE0600FFF792
:1037100083FE002100900191E0B2FF22921C002361
:103720001218009801F0C6F8902252050223DB43DC
:1037300012184B4102920393EE20000602210090E2
:1037400001910021E0B280225200002312183000C3
:1037500001F0B0F8009A02232DE08425FFF75CFE0B
:1037600002000023EE20C005012101F06DF80400E5
:10377000614881690591E6B280690021FF22921CAF
:103780000023921901F096F8892212060123DB43E7
:1037900012184B4102920393EE20C00501210090C4
:1037A000019105980021802252000023921901F016
:1037B00081F8009A0123121A8B41029803999942C9
:1037C00003D801D3904200D2641C07AE04980004D1
:1037D000000E3070049870706846007EB07007AAC2
:1037E00003210E20FFF7FFFB3570747007AA02213A
:1037F0001120FFF7F8FB4148FFF711FE09B0F0BDBB
:1038000081C3C901010001000CFEFFFF01880A0607
:10381000520F4A401202C905090E1143C905C90DCC
:103820000180704711B581B0082401A8FFF7EEFFB1
:10383000641EFAD16846808816BDF8B52E4D2F005B
:1038400094372E008A362E4C00280ED133002200E9
:103850003900FFF701FC30786178814200D170783F
:1038600060706078C621685405E03300220039009A
:103870000120FFF7F1FB0123002239002078FFF738
:1038800071FBF1BD7CB57220FFF7A2FB1A4C00233F
:1038900000222100E8311220FFF764FB2600943655
:1038A000174D23008A332A0031000420FFF7D4FB90
:1038B0000023002231002878FFF754FB32206946AC
:1038C00008706A4601210320FFF78DFB01210120CA
:1038D00000F090FE0120242160540220207073BD6E
:1038E0000000000021D77501EE02000012FDFFFF6D
:1038F00089FEFFFF200DE4022C030020B603002008
:1039000050310020F8B58AB00700B74C06D12A2004
:10391000205C002802D000202070CCE1012000F0C3
:103920006DFE002000F06AFE607F002808D0B02005
:103930006946487606AA521C01216D20FFF753FB09
:103940000021002000F056FEDC4DA069A84201D203
:103950003E2000E02E206946487606AA521C01212E
:103960006C20FFF740FB380036D0022F04D000D285
:103970009AE0032F00D094E1A669AE4200D9760800
:1039800000ADAD1CDA480121A269002300F05CFF04
:1039900064382870D64801213200002300F054FF1B
:1039A0006438687000AA921C02210920FFF71BFBF3
:1039B000812069460870032F01D1512008706A46A2
:1039C00001211320FFF70FFB2020694608706A468B
:1039D00001212E20FFF707FB0420694608706A4684
:1039E00001213020FFF7FFFA0720694608706A4678
:1039F00001216220FFF7F7FA6A4601216320FFF7F1
:103A000009FB68460078FD210140684601706A465E
:103A100001216320FFF7E7FAD720694608706A465C
:103A200001216520FFF7DFFA8720694608706A46A2
:103A300001217620FFF7D7FAFC20694608706A4614
:103A400001217720FFF7CFFAC820694608706A463F
:103A500001216420FFF7C7FA207F002818D0207FBB
:103A6000082815DA207F0001022101436846017011
:103A70006A4601217920FFF7B6FA207F052807DB87
:103A80008820694608706A4601216420FFF7ABFA76
:103A90003020694608706A4601213F20FFF7A3FAEB
:103AA00001202A216054FCE0A76908A884A10CC960
:103AB0000CC0AF4200D97F080020962189003A004F
:103AC000002300F0C1FE85B20021009701919F4ABA
:103AD00000235219009800F0EDFE00229C4B1218B2
:103AE0004B41049205930020962189000290039196
:103AF0000021009701918022520200235219009860
:103B000000F0D8FE029A039B121A8B410498059983
:103B1000994203D801D3904200D26D1C0495C8206D
:103B20000006A169FDF710FFC5B2A0690590A06964
:103B30000021002300266A1C00F0BCFEE022920552
:103B40000023DB4312184B4102920393C820000666
:103B500000210090019105982A00002300F0AAFEA0
:103B6000009A0023121A8B4102980399994205D8B2
:103B700001D3904202D268466D1C00E06846057091
:103B800000ADAD1C5A480121A269002300F05CFE83
:103B900064382870564801213A00002300F054FE92
:103BA0006438687000AA921C02210920FFF71BFAF2
:103BB00007AD04980004000E287004986870212056
:103BC000A87007AA03210E20FFF70DFA2E70684691
:103BD0000078687007AA02211120FFF704FA8D48C7
:103BE000874203D3882002E02C0300206820694626
:103BF000087606AA01211320FFF7F5F908AA052186
:103C00002E20FFF7F0F9402708AD2F7008AA0121F8
:103C10002B20FFF7E8F927202870B220687008AA47
:103C200002213520FFF7DFF92F706E7008AA0221FC
:103C30003920FFF7D8F96846067606AA01211F2029
:103C4000FFF7D1F907206946087606AA0121182056
:103C5000FFF7C9F970206946087606AA01212120DC
:103C6000FFF7C1F920206946087606AA0121FFF76F
:103C7000BAF96846067606AA01211420FFF7B3F9BF
:103C800088206946087606AA01217620FFF7ABF95D
:103C90006846067606AA01217720FFF7A4F92A20B4
:103CA000265400209A49887020008A30FFF7B7FB1D
:103CB00000F0E0FA00200BB0F0BD000080C3C901A5
:103CC000000000000F00000080B500F0BEFA0120E7
:103CD00000F094FC00208F4924228A5C052A01D13F
:103CE00024228854202288542A22885402BD0000AD
:103CF000000074B7F8B50700080000240021160082
:103D000000E0491CCAB2B242FBD3010004D0814D8D
:103D10002421695C002901D03120F2BDFFF7AAFB04
:103D2000AC73AF606E80FFF7ADFD00F075FA202038
:103D30002C5401E000F0ACFA2020285C0028F9D0D7
:103D400020202C5424202C540020F2BD010001001E
:103D5000A8FDFFFFF1B584B0C50A44056D4E2000F3
:103D60002900B269002300F06FFD0700B0690390DD
:103D7000B069002100900191002300207A1C43418A
:103D8000009800F097FD001BA94100900191039855
:103D900000213A00002300F08DFD241A8D41009887
:103DA0000199A94203D801D3A04200D27F1C40242C
:103DB000BF4A049B9B00BF4DAB42B36903D3934200
:103DC00004D2202404E0934202D36024002600E0C1
:103DD000042602AA01216520FFF71CF902AD28780C
:103DE000FB2101400E432E7002AA01216520FFF73E
:103DF000FAF83801000F04432C70380C6870380A48
:103E0000A870EF7002AA04210520FFF7ECF800204B
:103E100005B0F0BD21D77501F7B582B00025694620
:103E20000D7001A80560012601AFFE702020B8705A
:103E300001AA04215020FFF7D6F80220387001AA09
:103E400001210320FFF7CFF80021012000F0D2FB71
:103E50007120FFF7BDF801AA0421FA20FFF7DAF874
:103E60002C4C2021655402202421605400F0E4F9F8
:103E700004E0B878800601D5684606702120205CF1
:103E8000002803D068460078002835D000F000FAFA
:103E90002020205C0028F1D02021655401AA0421B3
:103EA000FA20FFF7B7F8F878C007E2D5029F00AA1A
:103EB000521C01219020FFF7ADF83A006846417886
:103EC000FF20FFF7A7F8220010320121A220FFF700
:103ED000A1F8207C40B228216156401892380399FD
:103EE00008800021002000F085FB24202554049840
:103EF0000670002005B0F0BD00F0A7F900210020F9
:103F000000F078FB2421655404980570F1E7000067
:103F1000503100202C030020F7B56A4600231360BF
:103F2000B74DAE69624A964200D376080C0007008E
:103F3000402069468870102008706A46042150208D
:103F4000FFF751F80220694608706A4601210320F4
:103F5000FFF749F80021012000F04CFB6E3C2820BF
:103F60002856201A29216956401A694608706A465F
:103F700001211820FFF737F88020694608706A464B
:103F800001213920FFF72FF83800002132000023EB
:103F900000F090FCFA229200002300F055FCA54AA4
:103FA000002300F051FC06000F000020761C474162
:103FB00030003900FF22002300F046FC69464870BB
:103FC00068464078012801DD401E00E0012048706D
:103FD000300039006A465278521CD31700F034FC86
:103FE000694608706A4602214620FEF7FCFF04205D
:103FF0002421685401200299087000247120FEF7E2
:10400000E7FF6A460421FA20FFF704F820216C54E8
:1040100000F012F901E000F03BF92020285C0028B4
:1040200003D12220285C0028F5D02020285C00281D
:1040300010D020216C546A460421FA20FEF7EAFFD2
:1040400068468178490602D500F0FFF802E0007862
:10405000C00614D42220285C0028CFD000202221C2
:1040600068540299087002980078012809D16846BE
:1040700004606A4604215020FEF7B5FF08E00120E5
:10408000EFE7012000F0BAFA00F07AFA2A216C5426
:104090000021002000F0AEFA24202C540020FEBDA8
:1040A0006E490870704701206D4908707047000024
:1040B00081C3C90100A493D6F8B50125504C242032
:1040C000205C012806D02420205C052802D0202076
:1040D0002554F1BD00F0E4FC0028FAD161498D704F
:1040E000E08823008A33072708262178891E0629BD
:1040F00013D801A2525C9744C2709E52342206002B
:1041000000F0A3F87220FEF763FF0121002000F009
:1041100071FA002020702020255468E0012300223D
:104120002100E8314220FEF71DFF26705FE04E4D72
:104130004C4A29000320FEF78FFF012300222900AB
:1041400048480078FEF70EFF277050E0464D454A7C
:1041500029000220FEF780FF0123002229004148A8
:104160000078FEF7FFFE062040E0A168A288895C87
:10417000C1400D402800FFF760FBE08800281AD1FD
:10418000E780A088401CA080618880B288422ED140
:104190000020A080052029E0A189C1400D40280011
:1041A000FFF74BFBE088002805D1E680A089FFF7E8
:1041B00039FBA0811BE0401EE08018E0294A210065
:1041C00094310520FEF748FF01230022210094319D
:1041D00024480078FEF7C6FEA07B012802D1E680C5
:1041E000042003E00020A080E7800320207000204E
:1041F0001C498870F1BD02498861002070470000A9
:104200002C0300201949887700207047184800784F
:1042100070471648807B704780B51448807F00281F
:1042200001D1012000E0022000F039FC602008E00C
:1042300000000000BA04000080B5032000F02FFC4D
:104240006120FEF7C5FE002002BD80B56720FEF7A5
:10425000BFFE002000F023FC002002BD4D03002023
:104260004E03002050310020C00300202C0300200A
:10427000B80300207047FEE780B500F029FE01BDBD
:1042800080B500F08CFB01BD80B500F089FB01BD5D
:1042900038B5B94C2079002814D06079002811D1A4
:1042A00000F07DFBEFF3108572B6A079002805D1F0
:1042B0000121012000F09AFE00F00AFE85F310882B
:1042C00000F06EFBA079002803D0FFF7F5FE002078
:1042D000A07131BD80B500F0EDFBC54800F0CDFE0A
:1042E00001BDF8B50600A548C1490860FFF7F2FF17
:1042F000A14C0120A070BE480068C1688022114016
:10430000A84A0A43C26080204003A74908600027EA
:10431000E760AC4DAC4AAD49280000F042FB28688C
:10432000C16801229143C160280000F0C5FE280049
:1043300000F0B8FE280000F0FEFE0820205E009786
:1043400031004843FA218900FDF7FEFA01000022FE
:10435000A74801F0D5F820780028FCD02868406AEA
:1043600000902770280000F009FF0820205E4643D7
:104370003000009989B2FDF7D3FA2081F1BD80B5F4
:10438000FFF747FF002803D10120A749887101BD2D
:10439000FFF792FE01BD10B50400FFF79BFF200060
:1043A00001F027F9A04CE068002811D1012020700D
:1043B00000206070A178002910D0E178002903D096
:1043C000E070FFF770FE10BD0120FFF769FE10BD21
:1043D000E06800F098F82069401C206110BD80B5AD
:1043E00001F06CF901BDFF22F632904201DB112091
:1043F00070478E48086000207047002070470023F7
:1044000003800B8013800020704780B5002804D003
:1044100002280BD001D3032810D1FFF7F7FEFA21B1
:1044200049004000081AFFF7DAFF07E0FFF7EEFE49
:10443000FA21C9004000081A01F040F9002002BD2D
:104440001CB56C46247C009401F0C9FE002016BD0A
:1044500080B5072101F018FF02BD80B5072101F0EA
:104460001DFF02BDF8B504000126434D6E7168784A
:10447000002817D06A4600A9891CFA2080016043F1
:1044800000F04AFA4F4C68460088421E92B26846D5
:104490004088411E89B2200000F083FA200000F01D
:1044A00079FE2EE0FFF716FFAE7061480068C16824
:1044B000802211403B4A0A43C26030053A490860F5
:1044C00000272F616E70EE70FA26B6000820285E75
:1044D000444320003100FDF723FA040055498C4283
:1044E00004D9554820180C00704300E00020082132
:1044F000695EFDF729FAE860002221004C4800F0CF
:10450000FFFF0020F2BDF8B506000020FFF7C8FD50
:104510000025194C2570222E00D12426FFF7DAFE43
:104520000121A17032480268D36880273B401D4FAB
:104530001F43D7600A051C4B1A6025616170082172
:10454000615E4E4331003B4A914202D93A4BCD184D
:104550001100002200F0D4FF28000821615EFDF761
:10456000F3F9E0600020F2BD80B5214801F041F888
:1045700000202D49487002BD18030020002800408B
:1045800038B50024284DE878002805D0184801F0F7
:1045900030F86C70EC7002E00A4800F022FE6C719A
:1045A000002032BD7FFBFFFF1404014010B51E4CFC
:1045B00001E0FFF76DFE20780028FAD0002020707F
:1045C00010BD0000A42C0020FEFF00007F3E000074
:1045D00080B500F04EFB002002BD000010B50C00BD
:1045E00001F01CFE154800782070002010BD00006E
:1045F000AC30002080B500F077F901BD80B501280E
:1046000005D101F07BFF002002F0A9F801BD02F006
:10461000A7F8012002F0A3F801F079FF01BD80B5F1
:10462000002300F0FEF901BD1803002098280020A7
:10463000AC300020FFFF00000100FFFF57310020D9
:1046400070B4103A03D378C9103A78C0FBD253073C
:1046500001D318C918C001D508C908C0D20704D3AE
:104660000B880380891C801C002A01D50B780370FD
:1046700070BC70478B0701D18307E1D0124205D08F
:104680000B78491C0370401C521EF9D17047FEE79D
:104690005749887070475649487070475448407869
:1046A000704770B58AB0534D002469460C7003E022
:1046B00068460078401C087068460078FF28F7D1EB
:1046C00000AA521C01218E2002F05CF802F078F85A
:1046D00028784008E9D100AA521C0121F12002F0FB
:1046E00051F8434E684640783070812801D09128B7
:1046F00001D101F003FF00F08BF8002809D101F08F
:1047000006FF00F06DF8002861D13B4802F06AF81E
:104710005DE002AB20220021002001F095FF02ADF8
:104720002878002801D0FF280BD101F0E7FF30786E
:10473000812801D0912801D101F0E9FE00F050F864
:104740004CE0687800280CD001280CD002280CD04E
:1047500003280CD004280CD005280CD0FF280CD03E
:1047600018E0264813E0264811E026480FE02648C6
:104770000DE021480BE0254809E0002001AA414254
:104780006918897F1154401C0328F8DD019802F054
:1047900029F801E000F024F8E87F012800D1F0704A
:1047A000E878B0706879707002AB04222121002093
:1047B00001F04AFF0194E81C6142405C01A90855E0
:1047C000641C032CF7DD019802F012F87060307859
:1047D000812801D0912801D101F099FE0AB070BD65
:1047E00010B5054C200001F0FDFF200010BD0000B9
:1047F0006C0400205431002080F0FA0200366E0173
:1048000040787D0180BA8C01006CDC0200751903D0
:1048100010B50124002001F045FF012811D000202F
:1048200001F0C0FE012000F049FF002001F09CFED5
:10483000012000F043FF002001F034FF012800D0E8
:104840000024200010BD0000124224D0994228D933
:1048500070B500251B4202D00C00002109E00024A5
:10486000012649186441944200D3A41A7641F8D332
:104870003100012601E0764109D2001864416D4102
:10488000A41A9D41F7D2A4185D41B619F5D33000A2
:1048900022002B0070BD1B42D8D108B501F0C6FF25
:1048A00008BD01D19042D3D202000B0000210020AC
:1048B0007047FEE730B4434351435D18010C0C00D0
:1048C000130C5C432D1980B2434392B25143002430
:1048D000C918644124040B04090C09195043C01879
:1048E000694130BC7047FEE710B50400080003D0F2
:1048F000012901D1012201E000220121002001F063
:10490000DBFC6948012C02D101F00EFE10BD002C29
:1049100001D101F023FE10BDFCB507000E0014000C
:104920000097781E6149FDF70FF8451C3800A9B2C1
:10493000FDF70AF8358020800197070001E0491C47
:10494000318031885A4A914226DA0198FCF7FCFFFF
:104950002080318820880A0003005A43019BD21A24
:10496000130000D55B424908994206DA401C2080BA
:10497000318880B2414301980A1A100000D54042A4
:10498000009B002B00D55B4231889842D7DA009219
:104990000D002788002AD2D135802780F3BD7047CB
:1049A000704770B5BA4CA04217D115000E0000F048
:1049B000D3FAB848206066600020A060E5602061FE
:1049C0006061200000F08CFB002801D000F008FBA3
:1049D000B14A0E21200000F091FC70BD80B513009B
:1049E0000A000100002001F02FFEC0B202BD80B518
:1049F00013000A000100002001F0EBFDC0B202BD6F
:104A000038B5A64C0025A5706078002808D0012292
:104A10000221A020C00502F04AF8657000F0C6F936
:104A200031BDFEB507000E0002929C4C002A01D158
:104A3000201D0290684603710120207069460979A3
:104A4000002900D1A070607000220221A020C005C2
:104A500002F02DF80025009502E00098401C00901F
:104A600000987028F9D330003A00029902F05AF900
:104A700068460079002810D1A0780028FCD1009564
:104A800002E00098401C009000987028F9D30122A1
:104A90000221A020C00502F00AF82570F7BD70477A
:104AA0007E4800787047000078040020FFFF000077
:104AB000FEFF000080B598B000F094FA0C200A9038
:104AC0000020149001210F910C900AA802F096FA90
:104AD0002020009000030190684602F019FE19B0F2
:104AE00000BD00207047000058B58AB00024401E69
:104AF000062800D981E002A1095C49008F4400BF6B
:104B0000040A1C324B686E000020FFF77BFB6846EE
:104B100065A168E00120FFF775FB684669A11C22CA
:104B2000FFF78EFD684602F0D9FE002800D0012470
:104B3000684600BF6AA144E00020FFF763FB03A8BA
:104B40006AA11C22FFF77CFD03A802F0C7FE69469C
:104B5000087068460078002800D00124684600BF2D
:104B600069A12EE00120FFF74DFB03A869A11C22DB
:104B7000FFF766FD03A802F0B1FE694608706846BB
:104B80000078002800D00124684600BF68A14CC905
:104B90004CC0012118E00020FFF734FB03A800BF40
:104BA00066A11C22FFF74CFD03A802F097FE6946A0
:104BB000087068460078002800D00124684600BFCD
:104BC00065A14CC94CC00021684602F06FFF10E09F
:104BD0000020FFF717FB684662A104E00020FFF702
:104BE00011FB684666A11C22FFF72AFD684602F009
:104BF00075FE002802D0012400E0632420000BB0E1
:104C000050BD0000F8B584B005000E000024244F0C
:104C10003868FFF7F0FA684660A11022FFF710FD30
:104C2000684601F013FB0120FFF7E8FC012000F0CB
:104C300045FD01220221A020C00501F038FF2A1DF8
:104C4000691D280001F015FA002801D0022407E0B0
:104C500038682861002E03D02879FFF745FF04004B
:104C6000200005B0F0BD0F48007870470D4908706E
:104C70007047704710B5040020680649884204D187
:104C8000FFF711FA200000F0ACFA10BD00000000A0
:104C9000A42C002000080140754C0008CC2D0020F9
:104CA0007C04002058310020D09CBE3308E6D3336A
:104CB00000EE0200010400000000000000000000FF
:104CC00000000000C07AC6358041F43500EE0200D5
:104CD00002010000000000000000000000000000D1
:104CE00001000000000000000000000000EA06379C
:104CF000C0A7F73600EE02000102000000EA063706
:104D0000400D0300B0000000030000008813000005
:104D100000000000C07AC635602EF93600EE0200B1
:104D20000201000000000000000000000000000080
:104D3000000000000000004000000000A0700837E4
:104D4000602EF93600EE020001020000A070083764
:104D5000400D0300BF0000000300000088130000A6
:104D60000000000080E7913360B0A23300EE020043
:104D7000010400000000000000000000000000002E
:104D800000D6C833E069CD3300EE02000104000014
:104D90000000000000000000000000000000000013
:104DA0000000000000060000000000007047FEE761
:104DB000F8B586B002F0C4FE00F08AF81421684607
:104DC000FCF7F0FD04207E4C21680143216021683E
:104DD00008400590059820688021014321602068E3
:104DE0008021084005900598012620683043206006
:104DF0002068304005900598022021680143216019
:104E00002168084005900598002291214900A020C2
:104E1000C00501F04CFE002280216A4801F047FEE7
:104E200000225021684801F042FE009688277F0347
:104E30000197002502956946624801F0F9FC91202E
:104E4000400000900196029503956946A020C00598
:104E500001F0EEFC802000900196029503956946D2
:104E6000584801F0E5FC502000900196029503950A
:104E70006946554801F0DCFC20200090019702951E
:104E80006946514801F0D4FC00220021052002F0BF
:104E900088FE052002F08AFE00220021072002F091
:104EA00080FE072002F082FE606830436060606828
:104EB000064000960098002200210A2002F071FEB0
:104EC0000A2002F073FE02F0A5FE02F0F5FEFCE7F8
:104ED00030B59DB038210FA8FCF764FD1421684659
:104EE000FCF760FD282105A8FCF75CFD3748016848
:104EF000374A0A40C10C114301600A200F90012477
:104F00001294102013901494002519950FA802F004
:104F100075F8002801D000F063F80F20009001948C
:104F20000295039504950021684602F0B9FA00281D
:104F300001D000F055F82B20059008950420099029
:104F40000B95C003069005A802F0E2FB002801D0F3
:104F500000F046F81DB030BD38B586B002A800217B
:104F60000022002300241EC0684606C0194C1A48BF
:104F7000206000256560A5601848E06025616561D6
:104F8000200000F0ADF8002801D000F029F88020C2
:104F90004001029002A9200000F046F9002801D04B
:104FA00072B6FEE7009501956946200003F03CF9D2
:104FB000002801D072B6FEE707B030BD0000000047
:104FC0002C10024000080050000400500070004007
:104FD000FFE7FFFFA42C002000080140FFFF0000B6
:104FE00072B6FEE71B480168820D30E0F0B5802202
:104FF0009200184B1C681440174D2E68F507ED0FF2
:10500000002C05D0002D03D01E68144F37401F60C0
:105010001E680327BE433043186011480668042702
:1050200037430760012901D130BF02E040BF20BFF4
:1050300020BF01680426B1430160002C04D0002D7C
:1050400002D0186802431A60F0BD016810220A43BA
:10505000026070470070004020000140FFFDFFFF2C
:1050600010ED00E01A48016801220A43026041681D
:10507000802252050A434260704700681549884201
:1050800000D0704780B5144801688022D2020A43DC
:10509000026000220021022002F083FD022002F0C3
:1050A00085FD01BD00680D49884204D108480168AA
:1050B00004220A430260704700680849884204D10C
:1050C000034801680422914301607047000000001A
:1050D00034100240002800405010024000080140F7
:1050E00010B5040001D1012010BD3920205C00283A
:1050F0000CD138216054200000F0D0F9206C002839
:1051000001D1424820642000216C884702203921C7
:105110006054211D206800F059F901203E2160549F
:105120003A2160543B2160543C2160543D2160543D
:10513000392100F075F83921415C012901D00120A5
:105140007047022139228154026801218B079A425B
:1051500008D0304B9A4205D02F4B9A4202D02F4BA9
:105160009A4204D192685207520F062A04D002686C
:105170001268114300680160002070470168096AE5
:10518000234A0A4005D10168096801229143026857
:10519000116036E03921415C012901D001207047BE
:1051A00002213922815402680121D3680B43D36064
:1051B00002688B079A4208D0164B9A4205D0164BCC
:1051C0009A4202D0154B9A4205D192685207520F6B
:1051D000062A04D0026812681143006801600020AA
:1051E000704702680121C943D3680B40D36002684D
:1051F000126A074B134004D102681268114002681A
:10520000116001213922815400207047A550000807
:10521000111100000004004000080140001401408A
:105220006054002010BD0000F8B504000026684658
:1052300006703820205C012801D10220F2BD270031
:10524000383701253D7002203922A0542068826839
:10525000294B13408360086802003FD010283DD0DE
:1052600020283BD0302839D0402830D0502820D0BA
:10527000602825D0702806D02B03984235D05B00DB
:1052800098420AD02FE0CB684A688968206800F00D
:10529000F5F820688168772208E0CB684A68896859
:1052A000206800F0EBF820688168AA030A43826056
:1052B0001BE0CA684968206800F0B5F850210EE08C
:1052C000CA684968206800F0BFF8602107E0CA6832
:1052D0004968206800F0A7F8402100E0010020683C
:1052E00000F0C4F801E068460570392025543E708E
:1052F00068460078F2BD00008800FFFFF0B50300AB
:1053000000240020150001D10120F0BD38255D5D8D
:10531000012D01D10220F0BD1D00383501262E706F
:105320003927DF5D012F26D117294BD801A77F5CD4
:10533000BF4400BF6064686C7074787C8084888C23
:105340009090181C2024282C3034383C1A673AE0FE
:105350005A6738E09A6736E0DA6734E0802108E07F
:10536000842106E0882104E08C2102E0902100E005
:1053700094215A5027E03927DF5D002F22D10B29D5
:1053800020D801A77F5CBF440A0E12161A1E2226DF
:105390002A2E32361A6416E05A6414E09A6412E037
:1053A000DA6410E01A650EE05A650CE09A650AE0CE
:1053B000DA6508E01A6606E05A6604E09A6602E0DA
:1053C000DA6600E001202C70F0BD0000F0B5066840
:1053D0002F4A304B304C8025ED05A84205D0A04225
:1053E00003D0984201D090420AD17027BE433700C3
:1053F0004E683E43A84205D0A04203D0984201D057
:10540000904203D1314A3240CE68164380229643FF
:105410000A69324302608A68C262096881620121B6
:105420004161F0BD000030B5036A046A0125AC4358
:1054300004628469F025AC431201224382610A228E
:1054400093431943016230BD30B5036A1024A3436E
:1054500003628469036A1E4D254012032A43826158
:10546000A022934309011943016230BD8268702371
:105470009A43114307220A438260704730B584681B
:10548000144D254029430A4319021143816030BD60
:105490000014014000080140000400400E4901676B
:1054A0000E4941670E4981670E49C1670E49802246
:1054B000815084300D4901600D4941600D49816082
:1054C0000D49C1600D49016170470000FFFCFFFFFD
:1054D000FF0FFFFFFF00FFFF3F2301084F230108DD
:1054E000092401080B2401080124010803240108F0
:1054F0009F23010805240108072401080D24010841
:10550000F8B504000F0016002020205C012801D10E
:105510000220F2BD0120202160540220212160548C
:10552000CA20216848625320216848622068806848
:1055300040050DD502F0ACFE05002068C0684007AC
:1055400006D502F0A5FE401B55498842F5D319E067
:1055500020688168534A0A4082602068C1688022BE
:105560001140524A0A43C26002F092FE3D00070019
:105570002068C168490706D402F08AFEC01B48496A
:105580008842F5D31AE0456120688168072291437B
:105590008160206881680E43866080204003444912
:1055A0000A6802430A608A6810438860206881683C
:1055B0008022D2010A4382600BE00000FF202168B4
:1055C00048620320212160540020202160540320E0
:1055D000F2BD206881688022D2000A438260FF20E9
:1055E000216848620120212160540020202160545C
:1055F000F2BD70B505002020285C012801D10220F1
:1056000070BD012420202C54022021216854CA207E
:105610002968486253202968486228688168214ABD
:105620000A40826028688168224A0A40826002F04B
:105630002FFE06002868C168490710D402F028FE32
:10564000801B19498842F5D3FF202968486203204E
:1056500021216854002020216854032070BDFF21BF
:10566000416221202C5400202021685470BD00008C
:1056700010B504002068C068400509D52000FEF779
:105680008AFE2068C16880221140084A0A43C2602D
:10569000802040030849086001202121605410BD8A
:1056A000E9030000FFFBFFFFE90300007FFBFFFFB2
:1056B00000040140FFBFFFFF1404014038B505009E
:1056C00002F0E6FD04000020C043854202D00448F9
:1056D00000782D1802F0DCFD001BA842FAD331BD82
:1056E00080040020F8B5A348016CA3480A78027032
:1056F0004A7842708A788270CA78C2700B790371D6
:105700004A7942718A798271CA79C2710A7A0272BF
:105710004A7A42728A7A8272CA7AC2720B7B0373A5
:105720004A7B42738A7B8273C97BC173042607005C
:105730001037924C6D460422391F6846FEF79AFFD7
:10574000B00717D12A7868782870A8786870E97847
:10575000A970EA702A78A25C2A70205C6870605C8C
:10576000A870E878205CE87028788549B208895CE0
:10577000414029703800103800782978414039704C
:1057800038000F38007869784140797038000E3859
:105790000078A9784140B97038000D380078E97870
:1057A0004140F970761C3F1D2C2EC4D3F1BD10B4BE
:1057B0007049C96B704A0001101804220B780478F4
:1057C0005C400C704B7844785C404C708B788478EB
:1057D0005C408C70CB78C4785C40CC70001D091D97
:1057E000521EEBD110BC704718B46248C16B042242
:1057F000624826E05F48C06B417842794270427A45
:105800004271427B427241738178827A82708172E6
:105810008179827B82718173C178C27BC270C27AC6
:10582000C273C279C272C17170474100C0091B22A4
:1058300050434840C0B2704718B44E48C16B042270
:1058400050486C460B78C35C0B700B7923706B4629
:105850001B78C35C0B710B7A23706B461B78C35C9F
:105860000B720B7BC35C0B73491C521EEAD111BC3B
:1058700070474048C06B417B427A42734279427222
:105880004278427141708178827A82708172817926
:10589000827B82718173C178C279C270C27AC2710F
:1058A000C27BC272C1737047FEB50020FFF77FFF55
:1058B000012069460871FFF797FFFFF79BFF2D480E
:1058C000C06B042106786A465671C278837847789F
:1058D0003C0074401D00654014006C403D00754064
:1058E00000966E00B446EE091B256E4365466E4079
:1058F00025007540009E754005701D007D406E00BE
:10590000B446EE091B256E4365466E402500754082
:105910007D40457016005E407500F6091B277E43EA
:105920006E40250075405D4085706B465B79534045
:105930005D00DB091B2673436B405C405440C47020
:10594000001D491EBED168460079FFF730FF68464A
:105950000079401C69460871684600790A28AADB6C
:10596000FFF742FFFFF746FF0A20FFF720FF03B0D3
:10597000F0BD0000A0040020F42B0020B8150108A1
:10598000B8170108B8160108F0B589B00A20FFF76A
:105990000EFF092069464871FFF76BFFFFF74CFFC8
:1059A00068464079FFF703FF004801E0A0040020AB
:1059B000C06B042107900891079800786946087029
:1059C00007984078C8700798807888700798C078E2
:1059D000487068460078FFF728FF040068460078A2
:1059E000FFF723FFFFF721FF604069460872684612
:1059F0000078FFF71AFFFFF718FFFFF716FF694659
:105A0000C87168460078FFF710FFFFF70EFFFFF739
:105A10000CFFFFF70AFF6846C078FFF706FF6946EC
:105A200088716846C078FFF700FFFFF7FEFE684602
:105A3000C078FFF7FAFEFFF7F8FEFFF7F6FE6946BB
:105A400008716846C078FFF7F0FEFFF7EEFEFFF73B
:105A5000ECFEFFF7EAFE68468078FFF7E6FE684650
:105A60008078FFF7E2FEFFF7E0FE040068468078EA
:105A7000FFF7DBFEFFF7D9FEFFF7D7FE050068460C
:105A80008078FFF7D2FEFFF7D0FEFFF7CEFEFFF7DC
:105A9000CCFE68464078FFF7C8FE68464078FFF7BE
:105AA000C4FEFFF7C2FE68464078FFF7BEFEFFF770
:105AB000BCFEFFF7BAFE060068464078FFF7B5FE69
:105AC000FFF7B3FEFFF7B1FEFFF7AFFE6846007ABF
:105AD0006946C97941406846C07848406946897935
